{
  "contractName": "CoinFlip",
  "abi": [
    {
      "anonymous": false,
      "inputs": [
        {
          "indexed": false,
          "internalType": "string",
          "name": "description",
          "type": "string"
        },
        {
          "indexed": false,
          "internalType": "uint256",
          "name": "result",
          "type": "uint256"
        }
      ],
      "name": "LiquidityProvided",
      "type": "event"
    },
    {
      "anonymous": false,
      "inputs": [
        {
          "indexed": false,
          "internalType": "string",
          "name": "description",
          "type": "string"
        },
        {
          "indexed": false,
          "internalType": "bytes32",
          "name": "ticket_num",
          "type": "bytes32"
        },
        {
          "indexed": false,
          "internalType": "address",
          "name": "whoseNumber",
          "type": "address"
        }
      ],
      "name": "LogNewProvableQuery",
      "type": "event"
    },
    {
      "anonymous": false,
      "inputs": [
        {
          "indexed": false,
          "internalType": "string",
          "name": "result",
          "type": "string"
        }
      ],
      "name": "contractClosingDown",
      "type": "event"
    },
    {
      "anonymous": false,
      "inputs": [
        {
          "indexed": false,
          "internalType": "string",
          "name": "result",
          "type": "string"
        }
      ],
      "name": "contractDestroyed",
      "type": "event"
    },
    {
      "anonymous": false,
      "inputs": [
        {
          "indexed": false,
          "internalType": "string",
          "name": "description",
          "type": "string"
        },
        {
          "indexed": false,
          "internalType": "bytes32",
          "name": "ticket_num",
          "type": "bytes32"
        },
        {
          "indexed": false,
          "internalType": "address",
          "name": "player",
          "type": "address"
        }
      ],
      "name": "deadTicket",
      "type": "event"
    },
    {
      "anonymous": false,
      "inputs": [
        {
          "indexed": false,
          "internalType": "string",
          "name": "description",
          "type": "string"
        },
        {
          "indexed": false,
          "internalType": "bytes32",
          "name": "ticket_num",
          "type": "bytes32"
        },
        {
          "indexed": false,
          "internalType": "address",
          "name": "player",
          "type": "address"
        }
      ],
      "name": "losingResult",
      "type": "event"
    },
    {
      "anonymous": false,
      "inputs": [
        {
          "indexed": false,
          "internalType": "string",
          "name": "description",
          "type": "string"
        }
      ],
      "name": "mintedLPTokens",
      "type": "event"
    },
    {
      "anonymous": false,
      "inputs": [
        {
          "indexed": false,
          "internalType": "string",
          "name": "description",
          "type": "string"
        },
        {
          "indexed": false,
          "internalType": "uint256",
          "name": "returnBet",
          "type": "uint256"
        },
        {
          "indexed": false,
          "internalType": "address",
          "name": "player",
          "type": "address"
        }
      ],
      "name": "refundedBet",
      "type": "event"
    },
    {
      "anonymous": false,
      "inputs": [
        {
          "indexed": false,
          "internalType": "string",
          "name": "result",
          "type": "string"
        },
        {
          "indexed": false,
          "internalType": "uint256",
          "name": "withdraw_Amount",
          "type": "uint256"
        }
      ],
      "name": "transferOK",
      "type": "event"
    },
    {
      "anonymous": false,
      "inputs": [
        {
          "indexed": false,
          "internalType": "string",
          "name": "description",
          "type": "string"
        }
      ],
      "name": "updateGen",
      "type": "event"
    },
    {
      "anonymous": false,
      "inputs": [
        {
          "indexed": false,
          "internalType": "string",
          "name": "description",
          "type": "string"
        }
      ],
      "name": "waitingForProviders",
      "type": "event"
    },
    {
      "anonymous": false,
      "inputs": [
        {
          "indexed": false,
          "internalType": "string",
          "name": "description",
          "type": "string"
        },
        {
          "indexed": false,
          "internalType": "bytes32",
          "name": "ticket_num",
          "type": "bytes32"
        },
        {
          "indexed": false,
          "internalType": "address",
          "name": "player",
          "type": "address"
        }
      ],
      "name": "winningResult",
      "type": "event"
    },
    {
      "constant": true,
      "inputs": [],
      "name": "LPTokenPool",
      "outputs": [
        {
          "internalType": "uint256",
          "name": "",
          "type": "uint256"
        }
      ],
      "payable": false,
      "stateMutability": "view",
      "type": "function"
    },
    {
      "constant": true,
      "inputs": [],
      "name": "MAX_BET",
      "outputs": [
        {
          "internalType": "uint256",
          "name": "",
          "type": "uint256"
        }
      ],
      "payable": false,
      "stateMutability": "view",
      "type": "function"
    },
    {
      "constant": true,
      "inputs": [],
      "name": "MIN_BET",
      "outputs": [
        {
          "internalType": "uint256",
          "name": "",
          "type": "uint256"
        }
      ],
      "payable": false,
      "stateMutability": "view",
      "type": "function"
    },
    {
      "constant": true,
      "inputs": [],
      "name": "SELF_DESTRUCT_TIMER",
      "outputs": [
        {
          "internalType": "bool",
          "name": "",
          "type": "bool"
        }
      ],
      "payable": false,
      "stateMutability": "view",
      "type": "function"
    },
    {
      "constant": true,
      "inputs": [],
      "name": "activeBets",
      "outputs": [
        {
          "internalType": "uint256",
          "name": "",
          "type": "uint256"
        }
      ],
      "payable": false,
      "stateMutability": "view",
      "type": "function"
    },
    {
      "constant": true,
      "inputs": [],
      "name": "betsAllowed",
      "outputs": [
        {
          "internalType": "bool",
          "name": "",
          "type": "bool"
        }
      ],
      "payable": false,
      "stateMutability": "view",
      "type": "function"
    },
    {
      "constant": true,
      "inputs": [],
      "name": "blank",
      "outputs": [
        {
          "internalType": "bytes32",
          "name": "",
          "type": "bytes32"
        }
      ],
      "payable": false,
      "stateMutability": "view",
      "type": "function"
    },
    {
      "constant": true,
      "inputs": [],
      "name": "contractBalance",
      "outputs": [
        {
          "internalType": "uint256",
          "name": "",
          "type": "uint256"
        }
      ],
      "payable": false,
      "stateMutability": "view",
      "type": "function"
    },
    {
      "constant": true,
      "inputs": [],
      "name": "currentAddress",
      "outputs": [
        {
          "internalType": "address",
          "name": "",
          "type": "address"
        }
      ],
      "payable": false,
      "stateMutability": "view",
      "type": "function"
    },
    {
      "constant": true,
      "inputs": [],
      "name": "currentLPGen",
      "outputs": [
        {
          "internalType": "uint256",
          "name": "",
          "type": "uint256"
        }
      ],
      "payable": false,
      "stateMutability": "view",
      "type": "function"
    },
    {
      "constant": true,
      "inputs": [],
      "name": "currentTxPrice",
      "outputs": [
        {
          "internalType": "uint256",
          "name": "",
          "type": "uint256"
        }
      ],
      "payable": false,
      "stateMutability": "view",
      "type": "function"
    },
    {
      "constant": false,
      "inputs": [],
      "name": "destroy",
      "outputs": [],
      "payable": false,
      "stateMutability": "nonpayable",
      "type": "function"
    },
    {
      "constant": true,
      "inputs": [
        {
          "internalType": "address",
          "name": "_userAddress",
          "type": "address"
        }
      ],
      "name": "getLiquidityProviderBalance",
      "outputs": [
        {
          "internalType": "uint256",
          "name": "_tokenBalance",
          "type": "uint256"
        }
      ],
      "payable": false,
      "stateMutability": "view",
      "type": "function"
    },
    {
      "constant": true,
      "inputs": [
        {
          "internalType": "address",
          "name": "_userAddress",
          "type": "address"
        }
      ],
      "name": "getLiquidityProviderGen",
      "outputs": [
        {
          "internalType": "uint256",
          "name": "",
          "type": "uint256"
        }
      ],
      "payable": false,
      "stateMutability": "view",
      "type": "function"
    },
    {
      "constant": true,
      "inputs": [
        {
          "internalType": "address",
          "name": "",
          "type": "address"
        }
      ],
      "name": "m_LP_tokens",
      "outputs": [
        {
          "internalType": "uint256",
          "name": "genNum",
          "type": "uint256"
        },
        {
          "internalType": "uint256",
          "name": "LP_token_amount",
          "type": "uint256"
        }
      ],
      "payable": false,
      "stateMutability": "view",
      "type": "function"
    },
    {
      "constant": true,
      "inputs": [
        {
          "internalType": "address",
          "name": "",
          "type": "address"
        }
      ],
      "name": "m_userData",
      "outputs": [
        {
          "internalType": "uint256",
          "name": "account_balance",
          "type": "uint256"
        },
        {
          "internalType": "uint256",
          "name": "bet_amount",
          "type": "uint256"
        },
        {
          "internalType": "bool",
          "name": "heads_or_tails",
          "type": "bool"
        },
        {
          "internalType": "bytes32",
          "name": "ticket_num",
          "type": "bytes32"
        }
      ],
      "payable": false,
      "stateMutability": "view",
      "type": "function"
    },
    {
      "constant": true,
      "inputs": [],
      "name": "owner",
      "outputs": [
        {
          "internalType": "address",
          "name": "",
          "type": "address"
        }
      ],
      "payable": false,
      "stateMutability": "view",
      "type": "function"
    },
    {
      "constant": true,
      "inputs": [],
      "name": "processingFee",
      "outputs": [
        {
          "internalType": "uint256",
          "name": "",
          "type": "uint256"
        }
      ],
      "payable": false,
      "stateMutability": "view",
      "type": "function"
    },
    {
      "constant": true,
      "inputs": [],
      "name": "queryId",
      "outputs": [
        {
          "internalType": "bytes32",
          "name": "",
          "type": "bytes32"
        }
      ],
      "payable": false,
      "stateMutability": "view",
      "type": "function"
    },
    {
      "constant": true,
      "inputs": [],
      "name": "totalLiabilities",
      "outputs": [
        {
          "internalType": "uint256",
          "name": "",
          "type": "uint256"
        }
      ],
      "payable": false,
      "stateMutability": "view",
      "type": "function"
    },
    {
      "constant": true,
      "inputs": [
        {
          "internalType": "bytes32",
          "name": "",
          "type": "bytes32"
        }
      ],
      "name": "userQueryId",
      "outputs": [
        {
          "internalType": "address",
          "name": "",
          "type": "address"
        }
      ],
      "payable": false,
      "stateMutability": "view",
      "type": "function"
    },
    {
      "constant": false,
      "inputs": [],
      "name": "selfDestruct",
      "outputs": [],
      "payable": false,
      "stateMutability": "nonpayable",
      "type": "function"
    },
    {
      "constant": false,
      "inputs": [
        {
          "internalType": "bool",
          "name": "_headsOrTails",
          "type": "bool"
        }
      ],
      "name": "makeBet",
      "outputs": [],
      "payable": true,
      "stateMutability": "payable",
      "type": "function"
    },
    {
      "constant": false,
      "inputs": [
        {
          "internalType": "bytes32",
          "name": "_myid",
          "type": "bytes32"
        },
        {
          "internalType": "string",
          "name": "_result",
          "type": "string"
        }
      ],
      "name": "__callback",
      "outputs": [],
      "payable": false,
      "stateMutability": "nonpayable",
      "type": "function"
    },
    {
      "constant": false,
      "inputs": [
        {
          "internalType": "bytes32",
          "name": "_queryId",
          "type": "bytes32"
        },
        {
          "internalType": "string",
          "name": "_result",
          "type": "string"
        },
        {
          "internalType": "bytes",
          "name": "_proof",
          "type": "bytes"
        }
      ],
      "name": "__callback",
      "outputs": [],
      "payable": false,
      "stateMutability": "nonpayable",
      "type": "function"
    },
    {
      "constant": false,
      "inputs": [],
      "name": "addLiquidity",
      "outputs": [],
      "payable": true,
      "stateMutability": "payable",
      "type": "function"
    },
    {
      "constant": false,
      "inputs": [],
      "name": "refundBet",
      "outputs": [],
      "payable": false,
      "stateMutability": "nonpayable",
      "type": "function"
    },
    {
      "constant": false,
      "inputs": [],
      "name": "withdrawMoney",
      "outputs": [],
      "payable": false,
      "stateMutability": "nonpayable",
      "type": "function"
    },
    {
      "constant": true,
      "inputs": [],
      "name": "getUserBalance",
      "outputs": [
        {
          "internalType": "uint256",
          "name": "",
          "type": "uint256"
        }
      ],
      "payable": false,
      "stateMutability": "view",
      "type": "function"
    },
    {
      "constant": true,
      "inputs": [],
      "name": "getUserTicket",
      "outputs": [
        {
          "internalType": "bytes32",
          "name": "",
          "type": "bytes32"
        }
      ],
      "payable": false,
      "stateMutability": "view",
      "type": "function"
    },
    {
      "constant": true,
      "inputs": [],
      "name": "getUserBet",
      "outputs": [
        {
          "internalType": "uint256",
          "name": "",
          "type": "uint256"
        }
      ],
      "payable": false,
      "stateMutability": "view",
      "type": "function"
    }
  ],
  "bytecode": "0x60806040526611c37937e080006009556000801b600b55336000806101000a81548173ffffffffffffffffffffffffffffffffffffffff021916908373ffffffffffffffffffffffffffffffffffffffff16021790555060006003819055506001600660016101000a81548160ff021916908315150217905550662386f26fc10000600481905550671bc16d674ec800006005819055506000600660006101000a81548160ff0219169083151502179055506000600c819055506000600d81905550615511806100d06000396000f3fe6080604052600436106101d85760003560e01c806381a2824f11610102578063ac44600211610095578063de1881a811610064578063de1881a8146109b8578063e66632fb146109e3578063e8078d9414610a0e578063f73579a914610a18576101d8565b8063ac4460021461091b578063b099cceb14610932578063b7013dc114610962578063ce5aec661461098d576101d8565b80638da5cb5b116100d15780638da5cb5b146108195780639cb8a26a14610870578063a77fd3eb14610887578063aac51164146108b6576101d8565b806381a2824f1461075557806381bf47181461078057806383197ef0146107d75780638b7afe2e146107ee576101d8565b80634672f57e1161017a578063738763bc11610149578063738763bc1461060657806374ca6cd31461068157806375efeb81146106ff5780637e95b5231461072a576101d8565b80634672f57e146105155780635322101714610581578063646f47bb146105b05780636540742f146105db576101d8565b806327dc297e116101b657806327dc297e14610284578063343861df1461035657806338bbfa50146103815780633f1be4d4146104ea576101d8565b8063032ee405146101dd578063039b3a231461020857806311ea8acb1461026d575b600080fd5b3480156101e957600080fd5b506101f2610a43565b6040518082815260200191505060405180910390f35b34801561021457600080fd5b506102576004803603602081101561022b57600080fd5b81019080803573ffffffffffffffffffffffffffffffffffffffff169060200190929190505050610a49565b6040518082815260200191505060405180910390f35b34801561027957600080fd5b50610282610a95565b005b34801561029057600080fd5b50610354600480360360408110156102a757600080fd5b8101908080359060200190929190803590602001906401000000008111156102ce57600080fd5b8201836020820111156102e057600080fd5b8035906020019184600183028401116401000000008311171561030257600080fd5b91908080601f016020809104026020016040519081016040528093929190818152602001838380828437600081840152601f19601f820116905080830192505050505050509192919290505050610cef565b005b34801561036257600080fd5b5061036b610d32565b6040518082815260200191505060405180910390f35b34801561038d57600080fd5b506104e8600480360360608110156103a457600080fd5b8101908080359060200190929190803590602001906401000000008111156103cb57600080fd5b8201836020820111156103dd57600080fd5b803590602001918460018302840111640100000000831117156103ff57600080fd5b91908080601f016020809104026020016040519081016040528093929190818152602001838380828437600081840152601f19601f8201169050808301925050505050505091929192908035906020019064010000000081111561046257600080fd5b82018360208201111561047457600080fd5b8035906020019184600183028401116401000000008311171561049657600080fd5b91908080601f016020809104026020016040519081016040528093929190818152602001838380828437600081840152601f19601f820116905080830192505050505050509192919290505050610d38565b005b3480156104f657600080fd5b506104ff6113ea565b6040518082815260200191505060405180910390f35b34801561052157600080fd5b506105646004803603602081101561053857600080fd5b81019080803573ffffffffffffffffffffffffffffffffffffffff1690602001909291905050506113f0565b604051808381526020018281526020019250505060405180910390f35b34801561058d57600080fd5b50610596611414565b604051808215151515815260200191505060405180910390f35b3480156105bc57600080fd5b506105c5611427565b6040518082815260200191505060405180910390f35b3480156105e757600080fd5b506105f0611471565b6040518082815260200191505060405180910390f35b34801561061257600080fd5b5061063f6004803603602081101561062957600080fd5b8101908080359060200190929190505050611477565b604051808273ffffffffffffffffffffffffffffffffffffffff1673ffffffffffffffffffffffffffffffffffffffff16815260200191505060405180910390f35b34801561068d57600080fd5b506106d0600480360360208110156106a457600080fd5b81019080803573ffffffffffffffffffffffffffffffffffffffff1690602001909291905050506114aa565b604051808581526020018481526020018315151515815260200182815260200194505050505060405180910390f35b34801561070b57600080fd5b506107146114e7565b6040518082815260200191505060405180910390f35b34801561073657600080fd5b5061073f6114ed565b6040518082815260200191505060405180910390f35b34801561076157600080fd5b5061076a6114f3565b6040518082815260200191505060405180910390f35b34801561078c57600080fd5b5061079561153d565b604051808273ffffffffffffffffffffffffffffffffffffffff1673ffffffffffffffffffffffffffffffffffffffff16815260200191505060405180910390f35b3480156107e357600080fd5b506107ec611563565b005b3480156107fa57600080fd5b506108036117a2565b6040518082815260200191505060405180910390f35b34801561082557600080fd5b5061082e6117a8565b604051808273ffffffffffffffffffffffffffffffffffffffff1673ffffffffffffffffffffffffffffffffffffffff16815260200191505060405180910390f35b34801561087c57600080fd5b506108856117cd565b005b34801561089357600080fd5b5061089c611844565b604051808215151515815260200191505060405180910390f35b3480156108c257600080fd5b50610905600480360360208110156108d957600080fd5b81019080803573ffffffffffffffffffffffffffffffffffffffff169060200190929190505050611857565b6040518082815260200191505060405180910390f35b34801561092757600080fd5b506109306118a6565b005b6109606004803603602081101561094857600080fd5b8101908080351515906020019092919050505061214a565b005b34801561096e57600080fd5b506109776124e0565b6040518082815260200191505060405180910390f35b34801561099957600080fd5b506109a261252a565b6040518082815260200191505060405180910390f35b3480156109c457600080fd5b506109cd612530565b6040518082815260200191505060405180910390f35b3480156109ef57600080fd5b506109f8612536565b6040518082815260200191505060405180910390f35b610a1661253c565b005b348015610a2457600080fd5b50610a2d6125f7565b6040518082815260200191505060405180910390f35b60035481565b6000601660008373ffffffffffffffffffffffffffffffffffffffff1673ffffffffffffffffffffffffffffffffffffffff168152602001908152602001600020600001549050919050565b6000601560003373ffffffffffffffffffffffffffffffffffffffff1673ffffffffffffffffffffffffffffffffffffffff1681526020019081526020016000206001015414610ced57600b54601560003373ffffffffffffffffffffffffffffffffffffffff1673ffffffffffffffffffffffffffffffffffffffff168152602001908152602001600020600301819055506000601560003373ffffffffffffffffffffffffffffffffffffffff1673ffffffffffffffffffffffffffffffffffffffff168152602001908152602001600020600101549050610b84816002546125fd90919063ffffffff16565b600281905550610bb2610ba160028361264790919063ffffffff16565b6007546125fd90919063ffffffff16565b6007819055506000601560003373ffffffffffffffffffffffffffffffffffffffff1673ffffffffffffffffffffffffffffffffffffffff168152602001908152602001600020600101819055503373ffffffffffffffffffffffffffffffffffffffff166108fc829081150290604051600060405180830381858888f19350505050158015610c46573d6000803e3d6000fd5b507f50e471aaeb1277a8b5c6df5abd2e9da6cb9d59f70b0dc578043cf5a2256440a5813360405180806020018481526020018373ffffffffffffffffffffffffffffffffffffffff1673ffffffffffffffffffffffffffffffffffffffff168152602001828103825260168152602001807f596f7572206265742077617320726566756e6465642e00000000000000000000815250602001935050505060405180910390a1505b565b610d2e828260006040519080825280601f01601f191660200182016040528015610d285781602001600182028038833980820191505090505b50610d38565b5050565b600d5481565b610d406126cd565b73ffffffffffffffffffffffffffffffffffffffff163373ffffffffffffffffffffffffffffffffffffffff1614610d7757600080fd5b60006014600085815260200190815260200160002060009054906101000a900473ffffffffffffffffffffffffffffffffffffffff16905083601560008373ffffffffffffffffffffffffffffffffffffffff1673ffffffffffffffffffffffffffffffffffffffff16815260200190815260200160002060030154141561133f57600b54601560008373ffffffffffffffffffffffffffffffffffffffff1673ffffffffffffffffffffffffffffffffffffffff168152602001908152602001600020600301819055506000610ecc6002856040516020018082805190602001908083835b60208310610e805780518252602082019150602081019050602083039250610e5d565b6001836020036101000a0380198251168184511680821785525050505050509050019150506040516020818303038152906040528051906020012060001c6129ed90919063ffffffff16565b90506000601560008473ffffffffffffffffffffffffffffffffffffffff1673ffffffffffffffffffffffffffffffffffffffff16815260200190815260200160002060020160009054906101000a900460ff169050600182148015610f36575060011515811515145b80610f515750600082148015610f50575060001515811515145b5b156111db576000601560008573ffffffffffffffffffffffffffffffffffffffff1673ffffffffffffffffffffffffffffffffffffffff168152602001908152602001600020600001541415610fbe57610fb76001600354612a3790919063ffffffff16565b6003819055505b60006110166002601560008773ffffffffffffffffffffffffffffffffffffffff1673ffffffffffffffffffffffffffffffffffffffff1681526020019081526020016000206001015461264790919063ffffffff16565b905061102d816002546125fd90919063ffffffff16565b600281905550611048816007546125fd90919063ffffffff16565b6007819055506000601560008673ffffffffffffffffffffffffffffffffffffffff1673ffffffffffffffffffffffffffffffffffffffff168152602001908152602001600020600101819055506110eb81601560008773ffffffffffffffffffffffffffffffffffffffff1673ffffffffffffffffffffffffffffffffffffffff16815260200190815260200160002060000154612a3790919063ffffffff16565b601560008673ffffffffffffffffffffffffffffffffffffffff1673ffffffffffffffffffffffffffffffffffffffff168152602001908152602001600020600001819055507f25e7209c11106001d374e2bce16b86df7fd7c2ebcf94ae2d3db49b646e72c084878560405180806020018481526020018373ffffffffffffffffffffffffffffffffffffffff1673ffffffffffffffffffffffffffffffffffffffff168152602001828103825260208152602001807f436f6e67726174756c6174696f6e7320796f7520776f6e207468652062657421815250602001935050505060405180910390a150611338565b6112456112346002601560008773ffffffffffffffffffffffffffffffffffffffff1673ffffffffffffffffffffffffffffffffffffffff1681526020019081526020016000206001015461264790919063ffffffff16565b6007546125fd90919063ffffffff16565b6007819055506000601560008573ffffffffffffffffffffffffffffffffffffffff1673ffffffffffffffffffffffffffffffffffffffff168152602001908152602001600020600101819055507f859a86a669a043f713bb2cdd0376cf727dc980c7b30f74a8c07fd41aa20f1e73868460405180806020018481526020018373ffffffffffffffffffffffffffffffffffffffff1673ffffffffffffffffffffffffffffffffffffffff168152602001828103825260148152602001807f596f75206c6f73742e2054727920416761696e21000000000000000000000000815250602001935050505060405180910390a15b50506113e4565b7f7ed14a8f4a1bb27eed22d5714ba5b6e51ad183a2f08b6fa5dd03f13cf1dbe4ec848260405180806020018481526020018373ffffffffffffffffffffffffffffffffffffffff1673ffffffffffffffffffffffffffffffffffffffff1681526020018281038252601f8152602001807f576520676f74206261636b2061206e6f77206465616420726571756573742e00815250602001935050505060405180910390a15b50505050565b600a5481565b60166020528060005260406000206000915090508060000154908060010154905082565b600660009054906101000a900460ff1681565b6000601560003373ffffffffffffffffffffffffffffffffffffffff1673ffffffffffffffffffffffffffffffffffffffff16815260200190815260200160002060030154905090565b60045481565b60146020528060005260406000206000915054906101000a900473ffffffffffffffffffffffffffffffffffffffff1681565b60156020528060005260406000206000915090508060000154908060010154908060020160009054906101000a900460ff16908060030154905084565b60085481565b60055481565b6000601560003373ffffffffffffffffffffffffffffffffffffffff1673ffffffffffffffffffffffffffffffffffffffff16815260200190815260200160002060010154905090565b600160009054906101000a900473ffffffffffffffffffffffffffffffffffffffff1681565b6000809054906101000a900473ffffffffffffffffffffffffffffffffffffffff1673ffffffffffffffffffffffffffffffffffffffff163373ffffffffffffffffffffffffffffffffffffffff16146115bc57600080fd5b600660009054906101000a900460ff16611656576000600660016101000a81548160ff0219169083151502179055506001600660006101000a81548160ff0219169083151502179055507f1b02c716f27555f879e01d5dabef2ac991d225e6c1278f477168f3bb71493cc76040518080602001828103825260438152602001806153aa6043913960600191505060405180910390a16117a0565b600060025414801561166a57506000600354145b1561168d5760003390508073ffffffffffffffffffffffffffffffffffffffff16ff5b600d54601660003373ffffffffffffffffffffffffffffffffffffffff1673ffffffffffffffffffffffffffffffffffffffff168152602001908152602001600020600001541480156117235750600c54601660003373ffffffffffffffffffffffffffffffffffffffff1673ffffffffffffffffffffffffffffffffffffffff16815260200190815260200160002060010154145b801561173157506000600354145b156117545760003390508073ffffffffffffffffffffffffffffffffffffffff16ff5b7ff60094595f5be639661cd3c6c7fa1ef87c793e55f5923b9dca94fc9a2a6a87926040518080602001828103825260358152602001806154a86035913960400191505060405180910390a15b565b60025481565b6000809054906101000a900473ffffffffffffffffffffffffffffffffffffffff1681565b6000809054906101000a900473ffffffffffffffffffffffffffffffffffffffff1673ffffffffffffffffffffffffffffffffffffffff163373ffffffffffffffffffffffffffffffffffffffff161461182657600080fd5b60003390508073ffffffffffffffffffffffffffffffffffffffff16ff5b600660019054906101000a900460ff1681565b6000601660008373ffffffffffffffffffffffffffffffffffffffff1673ffffffffffffffffffffffffffffffffffffffff168152602001908152602001600020600101549050809050919050565b6000601660003373ffffffffffffffffffffffffffffffffffffffff1673ffffffffffffffffffffffffffffffffffffffff1681526020019081526020016000206001015414158061193b57506000601560003373ffffffffffffffffffffffffffffffffffffffff1673ffffffffffffffffffffffffffffffffffffffff1681526020019081526020016000206000015414155b61194457600080fd5b6000601660003373ffffffffffffffffffffffffffffffffffffffff1673ffffffffffffffffffffffffffffffffffffffff168152602001908152602001600020600101541415611b42576000601560003373ffffffffffffffffffffffffffffffffffffffff1673ffffffffffffffffffffffffffffffffffffffff1681526020019081526020016000206000015414611b3d576000601560003373ffffffffffffffffffffffffffffffffffffffff1673ffffffffffffffffffffffffffffffffffffffff1681526020019081526020016000206000015490506000601560003373ffffffffffffffffffffffffffffffffffffffff1673ffffffffffffffffffffffffffffffffffffffff16815260200190815260200160002060000181905550611a7e60016003546125fd90919063ffffffff16565b6003819055503373ffffffffffffffffffffffffffffffffffffffff166108fc829081150290604051600060405180830381858888f19350505050158015611aca573d6000803e3d6000fd5b507fd8dd3d19368b2cfc5c3f8e03a3eb5ab6209e25fd1f64f0a1d5cd85885fa1e49d816040518080602001838152602001828103825260208152602001807f5765207472616e7366657272656420746865206d6f6e657920746f20796f752e8152506020019250505060405180910390a1505b612148565b600d54601660003373ffffffffffffffffffffffffffffffffffffffff1673ffffffffffffffffffffffffffffffffffffffff168152602001908152602001600020600001541415611f35576000601560003373ffffffffffffffffffffffffffffffffffffffff1673ffffffffffffffffffffffffffffffffffffffff168152602001908152602001600020600001541415611d29576000611c46600c54611c38600254601660003373ffffffffffffffffffffffffffffffffffffffff1673ffffffffffffffffffffffffffffffffffffffff1681526020019081526020016000206001015461264790919063ffffffff16565b612abf90919063ffffffff16565b9050611c5133612b09565b611c66816002546125fd90919063ffffffff16565b6002819055503373ffffffffffffffffffffffffffffffffffffffff166108fc829081150290604051600060405180830381858888f19350505050158015611cb2573d6000803e3d6000fd5b507fd8dd3d19368b2cfc5c3f8e03a3eb5ab6209e25fd1f64f0a1d5cd85885fa1e49d816040518080602001838152602001828103825260208152602001807f5765207472616e7366657272656420746865206d6f6e657920746f20796f752e8152506020019250505060405180910390a150611f30565b6000611d96600c54611d88600254601660003373ffffffffffffffffffffffffffffffffffffffff1673ffffffffffffffffffffffffffffffffffffffff1681526020019081526020016000206001015461264790919063ffffffff16565b612abf90919063ffffffff16565b9050611da133612b09565b611db6816002546125fd90919063ffffffff16565b600281905550611e11601560003373ffffffffffffffffffffffffffffffffffffffff1673ffffffffffffffffffffffffffffffffffffffff1681526020019081526020016000206000015482612a3790919063ffffffff16565b90506000601560003373ffffffffffffffffffffffffffffffffffffffff1673ffffffffffffffffffffffffffffffffffffffff16815260200190815260200160002060000181905550611e7160016003546125fd90919063ffffffff16565b6003819055503373ffffffffffffffffffffffffffffffffffffffff166108fc829081150290604051600060405180830381858888f19350505050158015611ebd573d6000803e3d6000fd5b507fd8dd3d19368b2cfc5c3f8e03a3eb5ab6209e25fd1f64f0a1d5cd85885fa1e49d816040518080602001838152602001828103825260208152602001807f5765207472616e7366657272656420746865206d6f6e657920746f20796f752e8152506020019250505060405180910390a1505b612147565b6000601560003373ffffffffffffffffffffffffffffffffffffffff1673ffffffffffffffffffffffffffffffffffffffff168152602001908152602001600020600001541415611fd957611f8933612b09565b7ff6b04a1a728c1c6bb2dbd7347a3461a73d98a26cebc39e11e2721e43400ec27e60405180806020018281038252602a815260200180615438602a913960400191505060405180910390a1612146565b611fe233612b09565b6000601560003373ffffffffffffffffffffffffffffffffffffffff1673ffffffffffffffffffffffffffffffffffffffff1681526020019081526020016000206000015490506000601560003373ffffffffffffffffffffffffffffffffffffffff1673ffffffffffffffffffffffffffffffffffffffff1681526020019081526020016000206000018190555061208760016003546125fd90919063ffffffff16565b6003819055503373ffffffffffffffffffffffffffffffffffffffff166108fc829081150290604051600060405180830381858888f193505050501580156120d3573d6000803e3d6000fd5b507fd8dd3d19368b2cfc5c3f8e03a3eb5ab6209e25fd1f64f0a1d5cd85885fa1e49d816040518080602001838152602001828103825260208152602001807f5765207472616e7366657272656420746865206d6f6e657920746f20796f752e8152506020019250505060405180910390a1505b5b5b565b60011515600660019054906101000a900460ff1615151461216a57600080fd5b6121a86040518060400160405280600d81526020017f404372617a7943616e6164696100000000000000000000000000000000000000815250612bf9565b60088190555066038d7ea4c68000600854016009819055506001151581151514806121d7575060001515811515145b6121e057600080fd5b600454341015612258576040517f08c379a00000000000000000000000000000000000000000000000000000000081526004018080602001828103825260138152602001807f5468652062657420697320746f6f206c6f772e0000000000000000000000000081525060200191505060405180910390fd5b600554600954340311156122d4576040517f08c379a00000000000000000000000000000000000000000000000000000000081526004018080602001828103825260148152602001807f596f75722062657420697320746f6f206269672e00000000000000000000000081525060200191505060405180910390fd5b6007546002540360095434031115612354576040517f08c379a00000000000000000000000000000000000000000000000000000000081526004018080602001828103825260148152602001807f596f75722062657420697320746f6f206269672100000000000000000000000081525060200191505060405180910390fd5b6000601560003373ffffffffffffffffffffffffffffffffffffffff1673ffffffffffffffffffffffffffffffffffffffff16815260200190815260200160002060010154146123ef576040517f08c379a00000000000000000000000000000000000000000000000000000000081526004018080602001828103825260258152602001806154836025913960400191505060405180910390fd5b612404600954346125fd90919063ffffffff16565b601560003373ffffffffffffffffffffffffffffffffffffffff1673ffffffffffffffffffffffffffffffffffffffff1681526020019081526020016000206001018190555061245f34600254612a3790919063ffffffff16565b6002819055506124cf6124be6002601560003373ffffffffffffffffffffffffffffffffffffffff1673ffffffffffffffffffffffffffffffffffffffff1681526020019081526020016000206001015461264790919063ffffffff16565b600754612a3790919063ffffffff16565b6007819055506124dd612f8d565b50565b6000601560003373ffffffffffffffffffffffffffffffffffffffff1673ffffffffffffffffffffffffffffffffffffffff16815260200190815260200160002060000154905090565b600c5481565b60095481565b600b5481565b60011515600660019054906101000a900460ff1615151461255c57600080fd5b600660019054906101000a900460ff1661257557600080fd5b60006125843460025433613102565b90507f9f37e877e3b476b298e06d3a15e338426d26f843c271f1e3c710385972bded438160405180806020018381526020018281038252604b8152602001806153ed604b91396060019250505060405180910390a16125ee34600254612a3790919063ffffffff16565b60028190555050565b60075481565b600061263f83836040518060400160405280601e81526020017f536166654d6174683a207375627472616374696f6e206f766572666c6f7700008152506134db565b905092915050565b60008083141561265a57600090506126c7565b600082840290508284828161266b57fe5b04146126c2576040517f08c379a00000000000000000000000000000000000000000000000000000000081526004018080602001828103825260218152602001806154626021913960400191505060405180910390fd5b809150505b92915050565b60008073ffffffffffffffffffffffffffffffffffffffff16601860009054906101000a900473ffffffffffffffffffffffffffffffffffffffff1673ffffffffffffffffffffffffffffffffffffffff16148061275557506000612753601860009054906101000a900473ffffffffffffffffffffffffffffffffffffffff1661359b565b145b156127665761276460006135a6565b505b601860009054906101000a900473ffffffffffffffffffffffffffffffffffffffff1673ffffffffffffffffffffffffffffffffffffffff166338cc48316040518163ffffffff1660e01b8152600401602060405180830381600087803b1580156127d057600080fd5b505af11580156127e4573d6000803e3d6000fd5b505050506040513d60208110156127fa57600080fd5b810190808051906020019092919050505073ffffffffffffffffffffffffffffffffffffffff16601760009054906101000a900473ffffffffffffffffffffffffffffffffffffffff1673ffffffffffffffffffffffffffffffffffffffff161461294557601860009054906101000a900473ffffffffffffffffffffffffffffffffffffffff1673ffffffffffffffffffffffffffffffffffffffff166338cc48316040518163ffffffff1660e01b8152600401602060405180830381600087803b1580156128c957600080fd5b505af11580156128dd573d6000803e3d6000fd5b505050506040513d60208110156128f357600080fd5b8101908080519060200190929190505050601760006101000a81548173ffffffffffffffffffffffffffffffffffffffff021916908373ffffffffffffffffffffffffffffffffffffffff1602179055505b601760009054906101000a900473ffffffffffffffffffffffffffffffffffffffff1673ffffffffffffffffffffffffffffffffffffffff1663c281d19e6040518163ffffffff1660e01b815260040160206040518083038186803b1580156129ad57600080fd5b505afa1580156129c1573d6000803e3d6000fd5b505050506040513d60208110156129d757600080fd5b8101908080519060200190929190505050905090565b6000612a2f83836040518060400160405280601881526020017f536166654d6174683a206d6f64756c6f206279207a65726f00000000000000008152506135b7565b905092915050565b600080828401905083811015612ab5576040517f08c379a000000000000000000000000000000000000000000000000000000000815260040180806020018281038252601b8152602001807f536166654d6174683a206164646974696f6e206f766572666c6f77000000000081525060200191505060405180910390fd5b8091505092915050565b6000612b0183836040518060400160405280601a81526020017f536166654d6174683a206469766973696f6e206279207a65726f000000000000815250613678565b905092915050565b612b60601660008373ffffffffffffffffffffffffffffffffffffffff1673ffffffffffffffffffffffffffffffffffffffff16815260200190815260200160002060010154600c546125fd90919063ffffffff16565b600c819055506000601660008373ffffffffffffffffffffffffffffffffffffffff1673ffffffffffffffffffffffffffffffffffffffff168152602001908152602001600020600101819055506000601660003373ffffffffffffffffffffffffffffffffffffffff1673ffffffffffffffffffffffffffffffffffffffff1681526020019081526020016000206000018190555050565b60008073ffffffffffffffffffffffffffffffffffffffff16601860009054906101000a900473ffffffffffffffffffffffffffffffffffffffff1673ffffffffffffffffffffffffffffffffffffffff161480612c8157506000612c7f601860009054906101000a900473ffffffffffffffffffffffffffffffffffffffff1661359b565b145b15612c9257612c9060006135a6565b505b601860009054906101000a900473ffffffffffffffffffffffffffffffffffffffff1673ffffffffffffffffffffffffffffffffffffffff166338cc48316040518163ffffffff1660e01b8152600401602060405180830381600087803b158015612cfc57600080fd5b505af1158015612d10573d6000803e3d6000fd5b505050506040513d6020811015612d2657600080fd5b810190808051906020019092919050505073ffffffffffffffffffffffffffffffffffffffff16601760009054906101000a900473ffffffffffffffffffffffffffffffffffffffff1673ffffffffffffffffffffffffffffffffffffffff1614612e7157601860009054906101000a900473ffffffffffffffffffffffffffffffffffffffff1673ffffffffffffffffffffffffffffffffffffffff166338cc48316040518163ffffffff1660e01b8152600401602060405180830381600087803b158015612df557600080fd5b505af1158015612e09573d6000803e3d6000fd5b505050506040513d6020811015612e1f57600080fd5b8101908080519060200190929190505050601760006101000a81548173ffffffffffffffffffffffffffffffffffffffff021916908373ffffffffffffffffffffffffffffffffffffffff1602179055505b601760009054906101000a900473ffffffffffffffffffffffffffffffffffffffff1673ffffffffffffffffffffffffffffffffffffffff1663524f3889836040518263ffffffff1660e01b81526004018080602001828103825283818151815260200191508051906020019080838360005b83811015612eff578082015181840152602081019050612ee4565b50505050905090810190601f168015612f2c5780820380516001836020036101000a031916815260200191505b5092505050602060405180830381600087803b158015612f4b57600080fd5b505af1158015612f5f573d6000803e3d6000fd5b505050506040513d6020811015612f7557600080fd5b81019080805190602001909291905050509050919050565b6000809050600062030d409050600854816002540303600281905550612fb58260018361373e565b600a819055503360146000600a54815260200190815260200160002060006101000a81548173ffffffffffffffffffffffffffffffffffffffff021916908373ffffffffffffffffffffffffffffffffffffffff160217905550600a54601560003373ffffffffffffffffffffffffffffffffffffffff1673ffffffffffffffffffffffffffffffffffffffff168152602001908152602001600020600301819055507f842c2c2b9081be42c86023fe442ee67a1e8264e45f372b2c104890eab83b580f600a543360405180806020018481526020018373ffffffffffffffffffffffffffffffffffffffff1673ffffffffffffffffffffffffffffffffffffffff168152602001828103825260178152602001807f50726f7661626c65207175657279207761732073656e74000000000000000000815250602001935050505060405180910390a15050565b6000600454831161318557620f424090506000600c819055506131316001600d54612a3790919063ffffffff16565b600d81905550600d54601660008473ffffffffffffffffffffffffffffffffffffffff1673ffffffffffffffffffffffffffffffffffffffff168152602001908152602001600020600001819055506131af565b6131ac8361319e86600c5461264790919063ffffffff16565b612abf90919063ffffffff16565b90505b600d54601660008473ffffffffffffffffffffffffffffffffffffffff1673ffffffffffffffffffffffffffffffffffffffff1681526020019081526020016000206000015414156133215761325081601660008573ffffffffffffffffffffffffffffffffffffffff1673ffffffffffffffffffffffffffffffffffffffff16815260200190815260200160002060010154612a3790919063ffffffff16565b601660008473ffffffffffffffffffffffffffffffffffffffff1673ffffffffffffffffffffffffffffffffffffffff168152602001908152602001600020600101819055506132ab81600c54612a3790919063ffffffff16565b600c819055507f757b590df84fcfa69d415c36100812777c24cc28d0190aeec594dba0596a86cd60405180806020018281038252601b8152602001807f436f6e6772617473206f6e206d696e74696e6720746f6b656e732e000000000081525060200191505060405180910390a18090506134d4565b6000601660008473ffffffffffffffffffffffffffffffffffffffff1673ffffffffffffffffffffffffffffffffffffffff16815260200190815260200160002060010181905550600d54601660008473ffffffffffffffffffffffffffffffffffffffff1673ffffffffffffffffffffffffffffffffffffffff1681526020019081526020016000206000018190555061340781601660008573ffffffffffffffffffffffffffffffffffffffff1673ffffffffffffffffffffffffffffffffffffffff16815260200190815260200160002060010154612a3790919063ffffffff16565b601660008473ffffffffffffffffffffffffffffffffffffffff1673ffffffffffffffffffffffffffffffffffffffff1681526020019081526020016000206001018190555061346281600c54612a3790919063ffffffff16565b600c819055507f757b590df84fcfa69d415c36100812777c24cc28d0190aeec594dba0596a86cd60405180806020018281038252601b8152602001807f436f6e6772617473206f6e206d696e74696e6720746f6b656e732e000000000081525060200191505060405180910390a18090505b9392505050565b6000838311158290613588576040517f08c379a00000000000000000000000000000000000000000000000000000000081526004018080602001828103825283818151815260200191508051906020019080838360005b8381101561354d578082015181840152602081019050613532565b50505050905090810190601f16801561357a5780820380516001836020036101000a031916815260200191505b509250505060405180910390fd5b5060008385039050809150509392505050565b6000813b9050919050565b60006135b0613cd9565b9050919050565b6000808314158290613664576040517f08c379a00000000000000000000000000000000000000000000000000000000081526004018080602001828103825283818151815260200191508051906020019080838360005b8381101561362957808201518184015260208101905061360e565b50505050905090810190601f1680156136565780820380516001836020036101000a031916815260200191505b509250505060405180910390fd5b5082848161366e57fe5b0690509392505050565b60008083118290613724576040517f08c379a00000000000000000000000000000000000000000000000000000000081526004018080602001828103825283818151815260200191508051906020019080838360005b838110156136e95780820151818401526020810190506136ce565b50505050905090810190601f1680156137165780820380516001836020036101000a031916815260200191505b509250505060405180910390fd5b50600083858161373057fe5b049050809150509392505050565b60008083118015613750575060208311155b61375957600080fd5b600a84029350606060016040519080825280601f01601f1916602001820160405280156137955781602001600182028038833980820191505090505b5090508360f81b816000815181106137a957fe5b60200101907effffffffffffffffffffffffffffffffffffffffffffffffffffffffffffff1916908160001a905350606060206040519080825280601f01601f19166020018201604052801561380e5781602001600182028038833980820191505090505b509050606060206040519080825280601f01601f1916602001820160405280156138475781602001600182028038833980820191505090505b5090506000613854614230565b905060208352424118600143034018602084015260208252806020830152606060206040519080825280601f01601f1916602001820160405280156138a85781602001600182028038833980820191505090505b509050886020820152606060086040519080825280601f01601f1916602001820160405280156138e75781602001600182028038833980820191505090505b5090506138fa8260186008846000614550565b506139036152c3565b604051806080016040528087815260200188815260200186815260200184815250905060006139686040518060400160405280600681526020017f72616e646f6d0000000000000000000000000000000000000000000000000000815250838c6145af565b9050606060086040519080825280601f01601f1916602001820160405280156139a05781602001600182028038833980820191505090505b50905060208401517f0100000000000000000000000000000000000000000000000000000000000000810460278301537e01000000000000000000000000000000000000000000000000000000000000810460268301537d010000000000000000000000000000000000000000000000000000000000810460258301537c0100000000000000000000000000000000000000000000000000000000810460248301537b01000000000000000000000000000000000000000000000000000000810460238301537a010000000000000000000000000000000000000000000000000000810460228301537901000000000000000000000000000000000000000000000000008104602183015378010000000000000000000000000000000000000000000000008104602083015350613cc6828285600160048110613adf57fe5b6020020151600287600060048110613af357fe5b60200201516040518082805190602001908083835b60208310613b2b5780518252602082019150602081019050602083039250613b08565b6001836020036101000a038019825116818451168082178552505050505050905001915050602060405180830381855afa158015613b6d573d6000803e3d6000fd5b5050506040513d6020811015613b8257600080fd5b810190808051906020019092919050505087600260048110613ba057fe5b60200201516040516020018085805190602001908083835b60208310613bdb5780518252602082019150602081019050602083039250613bb8565b6001836020036101000a03801982511681845116808217855250505050505090500184805190602001908083835b60208310613c2c5780518252602082019150602081019050602083039250613c09565b6001836020036101000a03801982511681845116808217855250505050505090500183815260200182805190602001908083835b60208310613c835780518252602082019150602081019050602083039250613c60565b6001836020036101000a0380198251168184511680821785525050505050509050019450505050506040516020818303038152906040528051906020012061491e565b8199505050505050505050509392505050565b600080613cf9731d3b2638a7cc9f2cb3d298a3da7a90b67e5506ed61359b565b1115613d9b57731d3b2638a7cc9f2cb3d298a3da7a90b67e5506ed601860006101000a81548173ffffffffffffffffffffffffffffffffffffffff021916908373ffffffffffffffffffffffffffffffffffffffff160217905550613d926040518060400160405280600b81526020017f6574685f6d61696e6e657400000000000000000000000000000000000000000081525061493a565b6001905061422d565b6000613dba73c03a2615d5efaf5f49f60b7bb6583eaec212fdf161359b565b1115613e5c5773c03a2615d5efaf5f49f60b7bb6583eaec212fdf1601860006101000a81548173ffffffffffffffffffffffffffffffffffffffff021916908373ffffffffffffffffffffffffffffffffffffffff160217905550613e536040518060400160405280600c81526020017f6574685f726f707374656e33000000000000000000000000000000000000000081525061493a565b6001905061422d565b6000613e7b73b7a07bcf2ba2f2703b24c0691b5278999c59ac7e61359b565b1115613f1d5773b7a07bcf2ba2f2703b24c0691b5278999c59ac7e601860006101000a81548173ffffffffffffffffffffffffffffffffffffffff021916908373ffffffffffffffffffffffffffffffffffffffff160217905550613f146040518060400160405280600981526020017f6574685f6b6f76616e000000000000000000000000000000000000000000000081525061493a565b6001905061422d565b6000613f3c73146500cfd35b22e4a392fe0adc06de1a1368ed4861359b565b1115613fde5773146500cfd35b22e4a392fe0adc06de1a1368ed48601860006101000a81548173ffffffffffffffffffffffffffffffffffffffff021916908373ffffffffffffffffffffffffffffffffffffffff160217905550613fd56040518060400160405280600b81526020017f6574685f72696e6b65627900000000000000000000000000000000000000000081525061493a565b6001905061422d565b6000613ffd73a2998efd205fb9d4b4963afb70778d6354ad3a4161359b565b111561409f5773a2998efd205fb9d4b4963afb70778d6354ad3a41601860006101000a81548173ffffffffffffffffffffffffffffffffffffffff021916908373ffffffffffffffffffffffffffffffffffffffff1602179055506140966040518060400160405280600a81526020017f6574685f676f65726c690000000000000000000000000000000000000000000081525061493a565b6001905061422d565b60006140be736f485c8bf6fc43ea212e93bbf8ce046c7f1cb47561359b565b111561412257736f485c8bf6fc43ea212e93bbf8ce046c7f1cb475601860006101000a81548173ffffffffffffffffffffffffffffffffffffffff021916908373ffffffffffffffffffffffffffffffffffffffff1602179055506001905061422d565b60006141417320e12a1f859b3feae5fb2a0a32c18f5a65555bbf61359b565b11156141a5577320e12a1f859b3feae5fb2a0a32c18f5a65555bbf601860006101000a81548173ffffffffffffffffffffffffffffffffffffffff021916908373ffffffffffffffffffffffffffffffffffffffff1602179055506001905061422d565b60006141c47351efaf4c8b3c9afbd5ab9f4bbc82784ab6ef8faa61359b565b1115614228577351efaf4c8b3c9afbd5ab9f4bbc82784ab6ef8faa601860006101000a81548173ffffffffffffffffffffffffffffffffffffffff021916908373ffffffffffffffffffffffffffffffffffffffff1602179055506001905061422d565b600090505b90565b60008073ffffffffffffffffffffffffffffffffffffffff16601860009054906101000a900473ffffffffffffffffffffffffffffffffffffffff1673ffffffffffffffffffffffffffffffffffffffff1614806142b8575060006142b6601860009054906101000a900473ffffffffffffffffffffffffffffffffffffffff1661359b565b145b156142c9576142c760006135a6565b505b601860009054906101000a900473ffffffffffffffffffffffffffffffffffffffff1673ffffffffffffffffffffffffffffffffffffffff166338cc48316040518163ffffffff1660e01b8152600401602060405180830381600087803b15801561433357600080fd5b505af1158015614347573d6000803e3d6000fd5b505050506040513d602081101561435d57600080fd5b810190808051906020019092919050505073ffffffffffffffffffffffffffffffffffffffff16601760009054906101000a900473ffffffffffffffffffffffffffffffffffffffff1673ffffffffffffffffffffffffffffffffffffffff16146144a857601860009054906101000a900473ffffffffffffffffffffffffffffffffffffffff1673ffffffffffffffffffffffffffffffffffffffff166338cc48316040518163ffffffff1660e01b8152600401602060405180830381600087803b15801561442c57600080fd5b505af1158015614440573d6000803e3d6000fd5b505050506040513d602081101561445657600080fd5b8101908080519060200190929190505050601760006101000a81548173ffffffffffffffffffffffffffffffffffffffff021916908373ffffffffffffffffffffffffffffffffffffffff1602179055505b601760009054906101000a900473ffffffffffffffffffffffffffffffffffffffff1673ffffffffffffffffffffffffffffffffffffffff1663abaa5f3e6040518163ffffffff1660e01b815260040160206040518083038186803b15801561451057600080fd5b505afa158015614524573d6000803e3d6000fd5b505050506040513d602081101561453a57600080fd5b8101908080519060200190929190505050905090565b606060008285019050808451101561456757600080fd5b600086602001905060008460200190505b8688602001018210156145a05781890151808288015250602082019150602081019050614578565b85935050505095945050505050565b60008073ffffffffffffffffffffffffffffffffffffffff16601860009054906101000a900473ffffffffffffffffffffffffffffffffffffffff1673ffffffffffffffffffffffffffffffffffffffff16148061463757506000614635601860009054906101000a900473ffffffffffffffffffffffffffffffffffffffff1661359b565b145b156146485761464660006135a6565b505b601860009054906101000a900473ffffffffffffffffffffffffffffffffffffffff1673ffffffffffffffffffffffffffffffffffffffff166338cc48316040518163ffffffff1660e01b8152600401602060405180830381600087803b1580156146b257600080fd5b505af11580156146c6573d6000803e3d6000fd5b505050506040513d60208110156146dc57600080fd5b810190808051906020019092919050505073ffffffffffffffffffffffffffffffffffffffff16601760009054906101000a900473ffffffffffffffffffffffffffffffffffffffff1673ffffffffffffffffffffffffffffffffffffffff161461482757601860009054906101000a900473ffffffffffffffffffffffffffffffffffffffff1673ffffffffffffffffffffffffffffffffffffffff166338cc48316040518163ffffffff1660e01b8152600401602060405180830381600087803b1580156147ab57600080fd5b505af11580156147bf573d6000803e3d6000fd5b505050506040513d60208110156147d557600080fd5b8101908080519060200190929190505050601760006101000a81548173ffffffffffffffffffffffffffffffffffffffff021916908373ffffffffffffffffffffffffffffffffffffffff1602179055505b6060600460405190808252806020026020018201604052801561485e57816020015b60608152602001906001900390816148495790505b5090508360006004811061486e57fe5b60200201518160008151811061488057fe5b60200260200101819052508360016004811061489857fe5b6020020151816001815181106148aa57fe5b6020026020010181905250836002600481106148c257fe5b6020020151816002815181106148d457fe5b6020026020010181905250836003600481106148ec57fe5b6020020151816003815181106148fe57fe5b6020026020010181905250614914858285614954565b9150509392505050565b80601a6000848152602001908152602001600020819055505050565b80601990805190602001906149509291906152ea565b5050565b60008073ffffffffffffffffffffffffffffffffffffffff16601860009054906101000a900473ffffffffffffffffffffffffffffffffffffffff1673ffffffffffffffffffffffffffffffffffffffff1614806149dc575060006149da601860009054906101000a900473ffffffffffffffffffffffffffffffffffffffff1661359b565b145b156149ed576149eb60006135a6565b505b601860009054906101000a900473ffffffffffffffffffffffffffffffffffffffff1673ffffffffffffffffffffffffffffffffffffffff166338cc48316040518163ffffffff1660e01b8152600401602060405180830381600087803b158015614a5757600080fd5b505af1158015614a6b573d6000803e3d6000fd5b505050506040513d6020811015614a8157600080fd5b810190808051906020019092919050505073ffffffffffffffffffffffffffffffffffffffff16601760009054906101000a900473ffffffffffffffffffffffffffffffffffffffff1673ffffffffffffffffffffffffffffffffffffffff1614614bcc57601860009054906101000a900473ffffffffffffffffffffffffffffffffffffffff1673ffffffffffffffffffffffffffffffffffffffff166338cc48316040518163ffffffff1660e01b8152600401602060405180830381600087803b158015614b5057600080fd5b505af1158015614b64573d6000803e3d6000fd5b505050506040513d6020811015614b7a57600080fd5b8101908080519060200190929190505050601760006101000a81548173ffffffffffffffffffffffffffffffffffffffff021916908373ffffffffffffffffffffffffffffffffffffffff1602179055505b6000601760009054906101000a900473ffffffffffffffffffffffffffffffffffffffff1673ffffffffffffffffffffffffffffffffffffffff16632ef3accc86856040518363ffffffff1660e01b81526004018080602001838152602001828103825284818151815260200191508051906020019080838360005b83811015614c63578082015181840152602081019050614c48565b50505050905090810190601f168015614c905780820380516001836020036101000a031916815260200191505b509350505050602060405180830381600087803b158015614cb057600080fd5b505af1158015614cc4573d6000803e3d6000fd5b505050506040513d6020811015614cda57600080fd5b81019080805190602001909291905050509050823a02670de0b6b3a764000001811115614d0d576000801b915050614eb3565b6060614d1885614eba565b9050601760009054906101000a900473ffffffffffffffffffffffffffffffffffffffff1673ffffffffffffffffffffffffffffffffffffffff1663c55c1cb68360008985896040518663ffffffff1660e01b8152600401808581526020018060200180602001848152602001838103835286818151815260200191508051906020019080838360005b83811015614dbd578082015181840152602081019050614da2565b50505050905090810190601f168015614dea5780820380516001836020036101000a031916815260200191505b50838103825285818151815260200191508051906020019080838360005b83811015614e23578082015181840152602081019050614e08565b50505050905090810190601f168015614e505780820380516001836020036101000a031916815260200191505b5096505050505050506020604051808303818588803b158015614e7257600080fd5b505af1158015614e86573d6000803e3d6000fd5b50505050506040513d6020811015614e9d57600080fd5b8101908080519060200190929190505050925050505b9392505050565b6060614ec4614f3a565b614ecc61536a565b614ed881610400614f46565b614ee181614f90565b60008090505b8351811015614f2357614f16848281518110614eff57fe5b602002602001015183614f9e90919063ffffffff16565b8080600101915050614ee7565b50614f2d81614fc3565b8060000151915050919050565b60405180590338823950565b6000819050600060208281614f5757fe5b0614614f705760208181614f6757fe5b06602003810190505b808360200181815250506040518084526000815281810160405250505050565b614f9b816004614fd1565b50565b614fab8260028351614ff2565b614fbe818361513290919063ffffffff16565b505050565b614fce816007614fd1565b50565b614fee601f60058360ff16901b17836151dd90919063ffffffff16565b5050565b6017811161501e576150198160058460ff16901b60ff1617846151dd90919063ffffffff16565b61512d565b60ff811161505f57615043601860058460ff16901b17846151dd90919063ffffffff16565b6150598160018561521d9092919063ffffffff16565b5061512c565b61ffff81116150a157615085601960058460ff16901b17846151dd90919063ffffffff16565b61509b8160028561521d9092919063ffffffff16565b5061512b565b63ffffffff81116150e5576150c9601a60058460ff16901b17846151dd90919063ffffffff16565b6150df8160048561521d9092919063ffffffff16565b5061512a565b67ffffffffffffffff811161512957615111601b60058460ff16901b17846151dd90919063ffffffff16565b6151278160088561521d9092919063ffffffff16565b505b5b5b5b5b505050565b61513a61536a565b8260200151836000015151835101111561516a5761516983600261516386602001518651615284565b026152a0565b5b60008060008451905085518051602081830101945086518101825260208701935050505b602081106151b1578151835260208301925060208201915060208103905061518e565b60006001826020036101000a039050801983511681855116818117865250508694505050505092915050565b81602001516001836000015151011115615203576152028260028460200151026152a0565b5b815180516020818301018381536001820183525050505050565b61522561536a565b8360200151846000015151830111156152535761525284600261524c876020015186615284565b026152a0565b5b60006001836101000a0390508451805184818301018684198251161781528582018352505050849150509392505050565b6000818311156152965782905061529a565b8190505b92915050565b6060826000015190506152b38383614f46565b6152bd8382615132565b50505050565b60405180608001604052806004905b60608152602001906001900390816152d25790505090565b828054600181600116156101000203166002900490600052602060002090601f016020900481019282601f1061532b57805160ff1916838001178555615359565b82800160010185558215615359579182015b8281111561535857825182559160200191906001019061533d565b5b5090506153669190615384565b5090565b604051806040016040528060608152602001600081525090565b6153a691905b808211156153a257600081600090555060010161538a565b5090565b9056fe54686520636f6e7472616374206973207368757474696e6720646f776e2e2e2e204e6f206d6f726520626574732e20576974686472617720796f75722066756e64732e596f752068617665207375636365737366756c6c792070726f7669646564206c69717569646974792e20596f75206e6f7720686176652074686973206d616e79204c50746f6b656e733a20596f752068616420612070726576696f75732067656e65726174696f6e206e6f7720776f72746820302e536166654d6174683a206d756c7469706c69636174696f6e206f766572666c6f77596f752063757272656e746c792068617665206120626574206f75747374616e64696e672e546865726520617265207374696c6c2070726f7669646572732077697468206d6f6e657920696e2074686520636f6e74726163742ea265627a7a72315820a401df59b84ed6fe6d222059f9de21989f97f7d4cd135b4aba4c67e93c0c644564736f6c634300050c0032",
  "source": "import \"./Storage.sol\";\r\nimport \"./Destroyable.sol\";\r\nimport \"./provableAPI.sol\";\r\nimport \"./UsesLiquidityProviders.sol\";\r\nimport \"./SafeMath.sol\";\r\n\r\n\r\n/* --- This is an educational project by @CrazyCanadia. It is a Coin Flip betting Dapp 15/11/2020 --- */\r\npragma solidity 0.5.12;\r\n\r\ncontract CoinFlip is Storage, UsesLiquidityProviders, Destroyable, usingProvable {\r\n\r\n  using SafeMath for uint256; //Uses SafeMath from OpenZeppelin to help avoid errrors.\r\n\r\n  event LogNewProvableQuery(string description, bytes32 ticket_num, address whoseNumber);\r\n  event winningResult(string description, bytes32 ticket_num, address player);\r\n  event losingResult(string description, bytes32 ticket_num, address player);\r\n  event refundedBet(string description, uint256 returnBet, address player);\r\n  event deadTicket(string description, bytes32 ticket_num, address player);\r\n  event LiquidityProvided(string description, uint256 result);\r\n  event transferOK(string result, uint256 withdraw_Amount);\r\n  event updateGen(string description);\r\n\r\n  function selfDestruct() external onlyOwner { //Used only for updating\r\n    address payable receiver = msg.sender;\r\n    selfdestruct(receiver);\r\n  }\r\n\r\n  //Make a bet  Heads = 0(false)  Tails = 1(true)\r\n  function makeBet(bool _headsOrTails) public payable isNotPaused {//Place the bet after fees and requirements.\r\n    currentTxPrice = provable_getPrice(\"@CrazyCanadia\");\r\n    processingFee = currentTxPrice + 1000000000000000;\r\n    require(_headsOrTails == true || _headsOrTails == false);\r\n    require(msg.value >= MIN_BET, \"The bet is too low.\"); //.01 Eth minimum bet where (.004 eth + gas fees for transaction = .005 as a deducted fee)\r\n    require(msg.value-processingFee <= MAX_BET, \"Your bet is too big.\");\r\n    require(msg.value-processingFee <= (contractBalance-totalLiabilities), \"Your bet is too big!\"); //Ensures nobody is betting against money the contract may not have.\r\n    require(m_userData[msg.sender].bet_amount == 0, \"You currently have a bet outstanding.\"); //Ensures that they curently have no bet... meaning only one bet at a time per person.\r\n\r\n\r\n    m_userData[msg.sender].bet_amount = msg.value.sub(processingFee);\r\n    contractBalance = contractBalance.add(msg.value);\r\n    totalLiabilities = totalLiabilities.add( (m_userData[msg.sender].bet_amount.mul(2)) );\r\n\r\n    coinFlip();\r\n  }\r\n\r\n  function coinFlip() internal {//Send the request to a 3rd party oracle for a random byte of info...\r\n    uint256 QUERY_EXECUTION_DELAY = 0;\r\n    uint256 GAS_FOR_CALLBACK = 200000;\r\n    contractBalance = contractBalance - GAS_FOR_CALLBACK - currentTxPrice;\r\n    queryId = provable_newRandomDSQuery(QUERY_EXECUTION_DELAY, NUM_RANDOM_BYTES_REQUESTED, GAS_FOR_CALLBACK);\r\n    userQueryId[queryId] = msg.sender;\r\n    m_userData[msg.sender].ticket_num = queryId;\r\n    emit LogNewProvableQuery(\"Provable query was sent\", queryId, msg.sender);\r\n  }\r\n\r\n  function __callback (bytes32 _queryId, string memory _result,  bytes memory _proof) public {//This is how the oracle will callback to deliver the random bytes.\r\n    require(msg.sender == provable_cbAddress());\r\n    address _userAddress = userQueryId[_queryId];\r\n    if (m_userData[_userAddress].ticket_num == _queryId){\r\n      m_userData[_userAddress].ticket_num = blank;\r\n      uint256 _betResult = uint256(keccak256(abi.encodePacked(_result))).mod(2);\r\n      bool _headsOrTails = m_userData[_userAddress].heads_or_tails;\r\n\r\n      //The payout function should not be pushed to the user, rather it should sit to be pulled by them later for Security reasons.\r\n      if( (_betResult == 1 && _headsOrTails == true)||(_betResult == 0 && _headsOrTails == false) ){\r\n        if (m_userData[_userAddress].account_balance == 0){\r\n          activeBets = activeBets.add(1);\r\n        }\r\n        uint256 winningBet = m_userData[_userAddress].bet_amount.mul(2);\r\n        contractBalance = contractBalance.sub(winningBet);\r\n        totalLiabilities = totalLiabilities.sub(winningBet);\r\n        m_userData[_userAddress].bet_amount = 0;\r\n        m_userData[_userAddress].account_balance = m_userData[_userAddress].account_balance.add(winningBet);\r\n        emit winningResult(\"Congratulations you won the bet!\", _queryId, _userAddress);\r\n      }\r\n      else {\r\n        totalLiabilities = totalLiabilities.sub( m_userData[_userAddress].bet_amount.mul(2));\r\n        m_userData[_userAddress].bet_amount = 0;\r\n        emit losingResult(\"You lost. Try Again!\", _queryId, _userAddress);\r\n      }\r\n    } else {\r\n      emit deadTicket(\"We got back a now dead request.\", _queryId, _userAddress);\r\n    }\r\n  }\r\n\r\n  //function to deposit into liquidity pool\r\n  function addLiquidity() public payable isNotPaused {\r\n    require(betsAllowed); // \"The contract is no longer accepting funds.\"\r\n    uint256 _mintAmount = mintAmount(msg.value, contractBalance, msg.sender);\r\n    emit LiquidityProvided(\"You have successfully provided liquidity. You now have this many LPtokens: \",  _mintAmount);\r\n    contractBalance = contractBalance.add(msg.value);\r\n  }\r\n\r\n  function refundBet() public {\r\n      if (m_userData[msg.sender].bet_amount != 0){\r\n        m_userData[msg.sender].ticket_num = blank;\r\n        //The fees have already been removed from the bet\r\n        uint256 returnBet = m_userData[msg.sender].bet_amount;\r\n        contractBalance = contractBalance.sub(returnBet);\r\n        totalLiabilities = totalLiabilities.sub( returnBet.mul(2) );\r\n        m_userData[msg.sender].bet_amount = 0;\r\n        msg.sender.transfer(returnBet);\r\n        emit refundedBet(\"Your bet was refunded.\", returnBet, msg.sender);\r\n      }\r\n  }\r\n\r\n  //function to withdraw money from the contract\r\n  function withdrawMoney() public onlyProvider {\r\n    if (m_LP_tokens[msg.sender].LP_token_amount == 0){ //If you are not an LP provider...\r\n\r\n      if(m_userData[msg.sender].account_balance != 0){//If you are not an LP provider && have a balance...\r\n        uint256 _transferAmount = m_userData[msg.sender].account_balance;\r\n        m_userData[msg.sender].account_balance = 0;\r\n        activeBets = activeBets.sub(1);\r\n        msg.sender.transfer(_transferAmount);\r\n        emit transferOK(\"We transferred the money to you.\", _transferAmount);\r\n      }\r\n\r\n    } else if (m_LP_tokens[msg.sender].genNum == currentLPGen) {//You are an LP provider of the current Generation...\r\n\r\n        if(m_userData[msg.sender].account_balance == 0){ //If you are an LP provider of the current Generation && have no balance...\r\n          uint256 _withdrawAmount = (m_LP_tokens[msg.sender].LP_token_amount.mul(contractBalance)).div(LPTokenPool);\r\n          burnTokens(msg.sender);\r\n          contractBalance = contractBalance.sub(_withdrawAmount);\r\n          msg.sender.transfer(_withdrawAmount);\r\n          emit transferOK(\"We transferred the money to you.\", _withdrawAmount);\r\n        } else {//If you are an LP provider of the current Generation && have a balance...\r\n          uint256 _withdrawAmount = (m_LP_tokens[msg.sender].LP_token_amount.mul(contractBalance)).div(LPTokenPool);\r\n          burnTokens(msg.sender);\r\n          contractBalance = contractBalance.sub(_withdrawAmount);\r\n          _withdrawAmount = _withdrawAmount.add(m_userData[msg.sender].account_balance);\r\n          m_userData[msg.sender].account_balance = 0;\r\n          activeBets = activeBets.sub(1);\r\n          msg.sender.transfer(_withdrawAmount);\r\n          emit transferOK(\"We transferred the money to you.\", _withdrawAmount);\r\n        }\r\n\r\n      } else if(m_userData[msg.sender].account_balance == 0){//You are an LP provider from a previous Generation && have no balance...\r\n          burnTokens(msg.sender);\r\n          emit updateGen(\"You had a previous generation now worth 0.\");\r\n        } else {//You are an LP provider from a previous Generation... && have a balance...\r\n          burnTokens(msg.sender);\r\n          uint256 _withdrawAmount = m_userData[msg.sender].account_balance;\r\n          m_userData[msg.sender].account_balance = 0;\r\n          activeBets = activeBets.sub(1);\r\n          msg.sender.transfer(_withdrawAmount);\r\n          emit transferOK(\"We transferred the money to you.\", _withdrawAmount);\r\n        }\r\n  }\r\n\r\n  function getUserBalance() public view returns(uint256){\r\n    return m_userData[msg.sender].account_balance;\r\n  }\r\n\r\n  function getUserTicket() public view returns(bytes32){\r\n    return m_userData[msg.sender].ticket_num;\r\n  }\r\n\r\n  function getUserBet() public view returns(uint256){\r\n    return m_userData[msg.sender].bet_amount;\r\n  }\r\n\r\n}\r\n",
  "sourcePath": "C:/Users/Daniel/Desktop/Solidity 201/Coin Flip/contracts/CoinFlip.sol",
  "compiler": {
    "name": "solc",
    "version": "0.5.12+commit.7709ece9.Emscripten.clang"
  },
  "schemaVersion": "3.0.16",
  "updatedAt": "2020-11-22T03:49:43.724Z",
  "devdoc": {
    "methods": {
      "__callback(bytes32,string)": {
        "details": "The following `__callback` functions are just placeholders ideally     meant to be defined in child contract when proofs are used.     The function bodies simply silence compiler warnings."
      }
    }
  },
  "userdoc": {
    "methods": {}
  }
}