{
  "contractName": "CoinFlip",
  "abi": [
    {
      "anonymous": false,
      "inputs": [
        {
          "indexed": false,
          "internalType": "string",
          "name": "description",
          "type": "string"
        },
        {
          "indexed": false,
          "internalType": "uint256",
          "name": "result",
          "type": "uint256"
        }
      ],
      "name": "LiquidityProvided",
      "type": "event"
    },
    {
      "anonymous": false,
      "inputs": [
        {
          "indexed": false,
          "internalType": "string",
          "name": "description",
          "type": "string"
        },
        {
          "indexed": false,
          "internalType": "bytes32",
          "name": "ticket_num",
          "type": "bytes32"
        },
        {
          "indexed": false,
          "internalType": "address",
          "name": "whoseNumber",
          "type": "address"
        }
      ],
      "name": "LogNewProvableQuery",
      "type": "event"
    },
    {
      "anonymous": false,
      "inputs": [
        {
          "indexed": false,
          "internalType": "string",
          "name": "description",
          "type": "string"
        },
        {
          "indexed": false,
          "internalType": "uint256",
          "name": "blockNumber",
          "type": "uint256"
        },
        {
          "indexed": false,
          "internalType": "address",
          "name": "player",
          "type": "address"
        }
      ],
      "name": "cancelResult",
      "type": "event"
    },
    {
      "anonymous": false,
      "inputs": [
        {
          "indexed": false,
          "internalType": "string",
          "name": "result",
          "type": "string"
        }
      ],
      "name": "contractClosingDown",
      "type": "event"
    },
    {
      "anonymous": false,
      "inputs": [
        {
          "indexed": false,
          "internalType": "string",
          "name": "result",
          "type": "string"
        }
      ],
      "name": "contractDestroyed",
      "type": "event"
    },
    {
      "anonymous": false,
      "inputs": [
        {
          "indexed": false,
          "internalType": "string",
          "name": "description",
          "type": "string"
        },
        {
          "indexed": false,
          "internalType": "bytes32",
          "name": "ticket_num",
          "type": "bytes32"
        },
        {
          "indexed": false,
          "internalType": "address",
          "name": "player",
          "type": "address"
        }
      ],
      "name": "deadTicket",
      "type": "event"
    },
    {
      "anonymous": false,
      "inputs": [
        {
          "indexed": false,
          "internalType": "string",
          "name": "description",
          "type": "string"
        },
        {
          "indexed": false,
          "internalType": "bytes32",
          "name": "ticket_num",
          "type": "bytes32"
        },
        {
          "indexed": false,
          "internalType": "address",
          "name": "player",
          "type": "address"
        }
      ],
      "name": "losingResult",
      "type": "event"
    },
    {
      "anonymous": false,
      "inputs": [
        {
          "indexed": false,
          "internalType": "string",
          "name": "description",
          "type": "string"
        }
      ],
      "name": "mintedLPTokens",
      "type": "event"
    },
    {
      "anonymous": false,
      "inputs": [
        {
          "indexed": false,
          "internalType": "string",
          "name": "result",
          "type": "string"
        }
      ],
      "name": "transferOK",
      "type": "event"
    },
    {
      "anonymous": false,
      "inputs": [
        {
          "indexed": false,
          "internalType": "string",
          "name": "description",
          "type": "string"
        }
      ],
      "name": "updateGen",
      "type": "event"
    },
    {
      "anonymous": false,
      "inputs": [
        {
          "indexed": false,
          "internalType": "string",
          "name": "description",
          "type": "string"
        }
      ],
      "name": "waitingForProviders",
      "type": "event"
    },
    {
      "anonymous": false,
      "inputs": [
        {
          "indexed": false,
          "internalType": "string",
          "name": "description",
          "type": "string"
        },
        {
          "indexed": false,
          "internalType": "bytes32",
          "name": "ticket_num",
          "type": "bytes32"
        },
        {
          "indexed": false,
          "internalType": "address",
          "name": "player",
          "type": "address"
        }
      ],
      "name": "winningResult",
      "type": "event"
    },
    {
      "constant": true,
      "inputs": [],
      "name": "LPTokenPool",
      "outputs": [
        {
          "internalType": "uint256",
          "name": "",
          "type": "uint256"
        }
      ],
      "payable": false,
      "stateMutability": "view",
      "type": "function"
    },
    {
      "constant": true,
      "inputs": [],
      "name": "MAX_BET",
      "outputs": [
        {
          "internalType": "uint256",
          "name": "",
          "type": "uint256"
        }
      ],
      "payable": false,
      "stateMutability": "view",
      "type": "function"
    },
    {
      "constant": true,
      "inputs": [],
      "name": "MIN_BET",
      "outputs": [
        {
          "internalType": "uint256",
          "name": "",
          "type": "uint256"
        }
      ],
      "payable": false,
      "stateMutability": "view",
      "type": "function"
    },
    {
      "constant": true,
      "inputs": [],
      "name": "SELF_DESTRUCT_TIMER",
      "outputs": [
        {
          "internalType": "uint256",
          "name": "",
          "type": "uint256"
        }
      ],
      "payable": false,
      "stateMutability": "view",
      "type": "function"
    },
    {
      "constant": true,
      "inputs": [],
      "name": "activeBets",
      "outputs": [
        {
          "internalType": "uint256",
          "name": "",
          "type": "uint256"
        }
      ],
      "payable": false,
      "stateMutability": "view",
      "type": "function"
    },
    {
      "constant": true,
      "inputs": [],
      "name": "betsAllowed",
      "outputs": [
        {
          "internalType": "bool",
          "name": "",
          "type": "bool"
        }
      ],
      "payable": false,
      "stateMutability": "view",
      "type": "function"
    },
    {
      "constant": true,
      "inputs": [],
      "name": "blank",
      "outputs": [
        {
          "internalType": "bytes32",
          "name": "",
          "type": "bytes32"
        }
      ],
      "payable": false,
      "stateMutability": "view",
      "type": "function"
    },
    {
      "constant": true,
      "inputs": [],
      "name": "contractBalance",
      "outputs": [
        {
          "internalType": "uint256",
          "name": "",
          "type": "uint256"
        }
      ],
      "payable": false,
      "stateMutability": "view",
      "type": "function"
    },
    {
      "constant": true,
      "inputs": [],
      "name": "currentLPGen",
      "outputs": [
        {
          "internalType": "uint256",
          "name": "",
          "type": "uint256"
        }
      ],
      "payable": false,
      "stateMutability": "view",
      "type": "function"
    },
    {
      "constant": true,
      "inputs": [],
      "name": "currentTxPrice",
      "outputs": [
        {
          "internalType": "uint256",
          "name": "",
          "type": "uint256"
        }
      ],
      "payable": false,
      "stateMutability": "view",
      "type": "function"
    },
    {
      "constant": false,
      "inputs": [],
      "name": "destroy",
      "outputs": [],
      "payable": false,
      "stateMutability": "nonpayable",
      "type": "function"
    },
    {
      "constant": true,
      "inputs": [
        {
          "internalType": "address",
          "name": "_userAddress",
          "type": "address"
        }
      ],
      "name": "getLiquidityProviderBalance",
      "outputs": [
        {
          "internalType": "uint256",
          "name": "_tokenBalance",
          "type": "uint256"
        }
      ],
      "payable": false,
      "stateMutability": "view",
      "type": "function"
    },
    {
      "constant": true,
      "inputs": [
        {
          "internalType": "address",
          "name": "_userAddress",
          "type": "address"
        }
      ],
      "name": "getLiquidityProviderGen",
      "outputs": [
        {
          "internalType": "uint256",
          "name": "",
          "type": "uint256"
        }
      ],
      "payable": false,
      "stateMutability": "view",
      "type": "function"
    },
    {
      "constant": true,
      "inputs": [
        {
          "internalType": "address",
          "name": "",
          "type": "address"
        }
      ],
      "name": "m_LP_tokens",
      "outputs": [
        {
          "internalType": "uint256",
          "name": "genNum",
          "type": "uint256"
        },
        {
          "internalType": "uint256",
          "name": "LP_token_amount",
          "type": "uint256"
        }
      ],
      "payable": false,
      "stateMutability": "view",
      "type": "function"
    },
    {
      "constant": true,
      "inputs": [
        {
          "internalType": "address",
          "name": "",
          "type": "address"
        }
      ],
      "name": "m_userData",
      "outputs": [
        {
          "internalType": "uint256",
          "name": "account_balance",
          "type": "uint256"
        },
        {
          "internalType": "uint256",
          "name": "bet_amount",
          "type": "uint256"
        },
        {
          "internalType": "bool",
          "name": "heads_or_tails",
          "type": "bool"
        },
        {
          "internalType": "bytes32",
          "name": "ticket_num",
          "type": "bytes32"
        }
      ],
      "payable": false,
      "stateMutability": "view",
      "type": "function"
    },
    {
      "constant": true,
      "inputs": [],
      "name": "owner",
      "outputs": [
        {
          "internalType": "address",
          "name": "",
          "type": "address"
        }
      ],
      "payable": false,
      "stateMutability": "view",
      "type": "function"
    },
    {
      "constant": true,
      "inputs": [],
      "name": "processingFee",
      "outputs": [
        {
          "internalType": "uint256",
          "name": "",
          "type": "uint256"
        }
      ],
      "payable": false,
      "stateMutability": "view",
      "type": "function"
    },
    {
      "constant": true,
      "inputs": [],
      "name": "queryId",
      "outputs": [
        {
          "internalType": "bytes32",
          "name": "",
          "type": "bytes32"
        }
      ],
      "payable": false,
      "stateMutability": "view",
      "type": "function"
    },
    {
      "constant": true,
      "inputs": [],
      "name": "totalLiabilities",
      "outputs": [
        {
          "internalType": "uint256",
          "name": "",
          "type": "uint256"
        }
      ],
      "payable": false,
      "stateMutability": "view",
      "type": "function"
    },
    {
      "constant": true,
      "inputs": [
        {
          "internalType": "bytes32",
          "name": "",
          "type": "bytes32"
        }
      ],
      "name": "userQueryId",
      "outputs": [
        {
          "internalType": "address",
          "name": "",
          "type": "address"
        }
      ],
      "payable": false,
      "stateMutability": "view",
      "type": "function"
    },
    {
      "constant": false,
      "inputs": [
        {
          "internalType": "bool",
          "name": "_headsOrTails",
          "type": "bool"
        }
      ],
      "name": "makeBet",
      "outputs": [],
      "payable": true,
      "stateMutability": "payable",
      "type": "function"
    },
    {
      "constant": false,
      "inputs": [],
      "name": "coinFlip",
      "outputs": [],
      "payable": true,
      "stateMutability": "payable",
      "type": "function"
    },
    {
      "constant": false,
      "inputs": [
        {
          "internalType": "bytes32",
          "name": "_myid",
          "type": "bytes32"
        },
        {
          "internalType": "string",
          "name": "_result",
          "type": "string"
        }
      ],
      "name": "__callback",
      "outputs": [],
      "payable": false,
      "stateMutability": "nonpayable",
      "type": "function"
    },
    {
      "constant": false,
      "inputs": [
        {
          "internalType": "bytes32",
          "name": "_queryId",
          "type": "bytes32"
        },
        {
          "internalType": "string",
          "name": "_result",
          "type": "string"
        },
        {
          "internalType": "bytes",
          "name": "_proof",
          "type": "bytes"
        }
      ],
      "name": "__callback",
      "outputs": [],
      "payable": false,
      "stateMutability": "nonpayable",
      "type": "function"
    },
    {
      "constant": false,
      "inputs": [],
      "name": "addLiquidity",
      "outputs": [],
      "payable": true,
      "stateMutability": "payable",
      "type": "function"
    },
    {
      "constant": false,
      "inputs": [],
      "name": "withdrawMoney",
      "outputs": [],
      "payable": false,
      "stateMutability": "nonpayable",
      "type": "function"
    },
    {
      "constant": true,
      "inputs": [],
      "name": "getUserBalance",
      "outputs": [
        {
          "internalType": "uint256",
          "name": "",
          "type": "uint256"
        }
      ],
      "payable": false,
      "stateMutability": "view",
      "type": "function"
    },
    {
      "constant": true,
      "inputs": [],
      "name": "getUserTicket",
      "outputs": [
        {
          "internalType": "bytes32",
          "name": "",
          "type": "bytes32"
        }
      ],
      "payable": false,
      "stateMutability": "view",
      "type": "function"
    },
    {
      "constant": true,
      "inputs": [],
      "name": "getUserBet",
      "outputs": [
        {
          "internalType": "uint256",
          "name": "",
          "type": "uint256"
        }
      ],
      "payable": false,
      "stateMutability": "view",
      "type": "function"
    }
  ],
  "bytecode": "0x60806040526611c37937e080006011556000801b601355336000806101000a81548173ffffffffffffffffffffffffffffffffffffffff021916908373ffffffffffffffffffffffffffffffffffffffff16021790555060006002819055506001600360006101000a81548160ff021916908315150217905550662386f26fc10000600481905550671bc16d674ec8000060058190555060006006819055506000600781905550600060088190555061519d806100bd6000396000f3fe6080604052600436106101c25760003560e01c80637e95b523116100f7578063ac44600211610095578063de1881a811610064578063de1881a814610923578063e66632fb1461094e578063e8078d9414610979578063f73579a914610983576101c2565b8063ac44600214610886578063b099cceb1461089d578063b7013dc1146108cd578063ce5aec66146108f8576101c2565b80638b7afe2e116100d15780638b7afe2e146107705780638da5cb5b1461079b578063a77fd3eb146107f2578063aac5116414610821576101c2565b80637e95b5231461070357806381a2824f1461072e57806383197ef014610759576101c2565b806353221017116101645780636540742f1161013e5780636540742f146105b4578063738763bc146105df57806374ca6cd31461065a57806375efeb81146106d8576101c2565b806353221017146105545780635ac947cb1461057f578063646f47bb14610589576101c2565b8063343861df116101a0578063343861df1461032957806338bbfa50146103545780633f1be4d4146104bd5780634672f57e146104e8576101c2565b8063032ee405146101c7578063039b3a23146101f257806327dc297e14610257575b600080fd5b3480156101d357600080fd5b506101dc6109ae565b6040518082815260200191505060405180910390f35b3480156101fe57600080fd5b506102416004803603602081101561021557600080fd5b81019080803573ffffffffffffffffffffffffffffffffffffffff1690602001909291905050506109b4565b6040518082815260200191505060405180910390f35b34801561026357600080fd5b506103276004803603604081101561027a57600080fd5b8101908080359060200190929190803590602001906401000000008111156102a157600080fd5b8201836020820111156102b357600080fd5b803590602001918460018302840111640100000000831117156102d557600080fd5b91908080601f016020809104026020016040519081016040528093929190818152602001838380828437600081840152601f19601f820116905080830192505050505050509192919290505050610a00565b005b34801561033557600080fd5b5061033e610a43565b6040518082815260200191505060405180910390f35b34801561036057600080fd5b506104bb6004803603606081101561037757600080fd5b81019080803590602001909291908035906020019064010000000081111561039e57600080fd5b8201836020820111156103b057600080fd5b803590602001918460018302840111640100000000831117156103d257600080fd5b91908080601f016020809104026020016040519081016040528093929190818152602001838380828437600081840152601f19601f8201169050808301925050505050505091929192908035906020019064010000000081111561043557600080fd5b82018360208201111561044757600080fd5b8035906020019184600183028401116401000000008311171561046957600080fd5b91908080601f016020809104026020016040519081016040528093929190818152602001838380828437600081840152601f19601f820116905080830192505050505050509192919290505050610a49565b005b3480156104c957600080fd5b506104d26110fb565b6040518082815260200191505060405180910390f35b3480156104f457600080fd5b506105376004803603602081101561050b57600080fd5b81019080803573ffffffffffffffffffffffffffffffffffffffff169060200190929190505050611101565b604051808381526020018281526020019250505060405180910390f35b34801561056057600080fd5b50610569611125565b6040518082815260200191505060405180910390f35b61058761112b565b005b34801561059557600080fd5b5061059e6112a0565b6040518082815260200191505060405180910390f35b3480156105c057600080fd5b506105c96112ea565b6040518082815260200191505060405180910390f35b3480156105eb57600080fd5b506106186004803603602081101561060257600080fd5b81019080803590602001909291905050506112f0565b604051808273ffffffffffffffffffffffffffffffffffffffff1673ffffffffffffffffffffffffffffffffffffffff16815260200191505060405180910390f35b34801561066657600080fd5b506106a96004803603602081101561067d57600080fd5b81019080803573ffffffffffffffffffffffffffffffffffffffff169060200190929190505050611323565b604051808581526020018481526020018315151515815260200182815260200194505050505060405180910390f35b3480156106e457600080fd5b506106ed611360565b6040518082815260200191505060405180910390f35b34801561070f57600080fd5b50610718611366565b6040518082815260200191505060405180910390f35b34801561073a57600080fd5b5061074361136c565b6040518082815260200191505060405180910390f35b34801561076557600080fd5b5061076e6113b6565b005b34801561077c57600080fd5b506107856115f8565b6040518082815260200191505060405180910390f35b3480156107a757600080fd5b506107b06115fe565b604051808273ffffffffffffffffffffffffffffffffffffffff1673ffffffffffffffffffffffffffffffffffffffff16815260200191505060405180910390f35b3480156107fe57600080fd5b50610807611623565b604051808215151515815260200191505060405180910390f35b34801561082d57600080fd5b506108706004803603602081101561084457600080fd5b81019080803573ffffffffffffffffffffffffffffffffffffffff169060200190929190505050611636565b6040518082815260200191505060405180910390f35b34801561089257600080fd5b5061089b611685565b005b6108cb600480360360208110156108b357600080fd5b81019080803515159060200190929190505050611f09565b005b3480156108d957600080fd5b506108e2612301565b6040518082815260200191505060405180910390f35b34801561090457600080fd5b5061090d61234b565b6040518082815260200191505060405180910390f35b34801561092f57600080fd5b50610938612351565b6040518082815260200191505060405180910390f35b34801561095a57600080fd5b50610963612357565b6040518082815260200191505060405180910390f35b61098161235d565b005b34801561098f57600080fd5b506109986123f8565b6040518082815260200191505060405180910390f35b60025481565b6000600960008373ffffffffffffffffffffffffffffffffffffffff1673ffffffffffffffffffffffffffffffffffffffff168152602001908152602001600020600001549050919050565b610a3f828260006040519080825280601f01601f191660200182016040528015610a395781602001600182028038833980820191505090505b50610a49565b5050565b60085481565b610a516123fe565b73ffffffffffffffffffffffffffffffffffffffff163373ffffffffffffffffffffffffffffffffffffffff1614610a8857600080fd5b60006014600085815260200190815260200160002060009054906101000a900473ffffffffffffffffffffffffffffffffffffffff16905083601560008373ffffffffffffffffffffffffffffffffffffffff1673ffffffffffffffffffffffffffffffffffffffff16815260200190815260200160002060030154141561105057601354601560008373ffffffffffffffffffffffffffffffffffffffff1673ffffffffffffffffffffffffffffffffffffffff168152602001908152602001600020600301819055506000610bdd6002856040516020018082805190602001908083835b60208310610b915780518252602082019150602081019050602083039250610b6e565b6001836020036101000a0380198251168184511680821785525050505050509050019150506040516020818303038152906040528051906020012060001c61271e90919063ffffffff16565b90506000601560008473ffffffffffffffffffffffffffffffffffffffff1673ffffffffffffffffffffffffffffffffffffffff16815260200190815260200160002060020160009054906101000a900460ff169050600182148015610c47575060011515811515145b80610c625750600082148015610c61575060001515811515145b5b15610eec576000601560008573ffffffffffffffffffffffffffffffffffffffff1673ffffffffffffffffffffffffffffffffffffffff168152602001908152602001600020600001541415610ccf57610cc8600160025461276890919063ffffffff16565b6002819055505b6000610d276002601560008773ffffffffffffffffffffffffffffffffffffffff1673ffffffffffffffffffffffffffffffffffffffff168152602001908152602001600020600101546127f090919063ffffffff16565b9050610d3e8160015461287690919063ffffffff16565b600181905550610d5981600f5461287690919063ffffffff16565b600f819055506000601560008673ffffffffffffffffffffffffffffffffffffffff1673ffffffffffffffffffffffffffffffffffffffff16815260200190815260200160002060010181905550610dfc81601560008773ffffffffffffffffffffffffffffffffffffffff1673ffffffffffffffffffffffffffffffffffffffff1681526020019081526020016000206000015461276890919063ffffffff16565b601560008673ffffffffffffffffffffffffffffffffffffffff1673ffffffffffffffffffffffffffffffffffffffff168152602001908152602001600020600001819055507f25e7209c11106001d374e2bce16b86df7fd7c2ebcf94ae2d3db49b646e72c084878560405180806020018481526020018373ffffffffffffffffffffffffffffffffffffffff1673ffffffffffffffffffffffffffffffffffffffff168152602001828103825260208152602001807f436f6e67726174756c6174696f6e7320796f7520776f6e207468652062657421815250602001935050505060405180910390a150611049565b610f56610f456002601560008773ffffffffffffffffffffffffffffffffffffffff1673ffffffffffffffffffffffffffffffffffffffff168152602001908152602001600020600101546127f090919063ffffffff16565b600f5461287690919063ffffffff16565b600f819055506000601560008573ffffffffffffffffffffffffffffffffffffffff1673ffffffffffffffffffffffffffffffffffffffff168152602001908152602001600020600101819055507f859a86a669a043f713bb2cdd0376cf727dc980c7b30f74a8c07fd41aa20f1e73868460405180806020018481526020018373ffffffffffffffffffffffffffffffffffffffff1673ffffffffffffffffffffffffffffffffffffffff168152602001828103825260148152602001807f596f75206c6f73742e2054727920416761696e21000000000000000000000000815250602001935050505060405180910390a15b50506110f5565b7f7ed14a8f4a1bb27eed22d5714ba5b6e51ad183a2f08b6fa5dd03f13cf1dbe4ec848260405180806020018481526020018373ffffffffffffffffffffffffffffffffffffffff1673ffffffffffffffffffffffffffffffffffffffff1681526020018281038252601f8152602001807f576520676f74206261636b2061206e6f77206465616420726571756573742e00815250602001935050505060405180910390a15b50505050565b60125481565b60096020528060005260406000206000915090508060000154908060010154905082565b60065481565b6000809050600062030d409050601054816001540303600181905550611153826001836128c0565b6012819055503360146000601254815260200190815260200160002060006101000a81548173ffffffffffffffffffffffffffffffffffffffff021916908373ffffffffffffffffffffffffffffffffffffffff160217905550601254601560003373ffffffffffffffffffffffffffffffffffffffff1673ffffffffffffffffffffffffffffffffffffffff168152602001908152602001600020600301819055507f842c2c2b9081be42c86023fe442ee67a1e8264e45f372b2c104890eab83b580f6012543360405180806020018481526020018373ffffffffffffffffffffffffffffffffffffffff1673ffffffffffffffffffffffffffffffffffffffff168152602001828103825260178152602001807f50726f7661626c65207175657279207761732073656e74000000000000000000815250602001935050505060405180910390a15050565b6000601560003373ffffffffffffffffffffffffffffffffffffffff1673ffffffffffffffffffffffffffffffffffffffff16815260200190815260200160002060030154905090565b60045481565b60146020528060005260406000206000915054906101000a900473ffffffffffffffffffffffffffffffffffffffff1681565b60156020528060005260406000206000915090508060000154908060010154908060020160009054906101000a900460ff16908060030154905084565b60105481565b60055481565b6000601560003373ffffffffffffffffffffffffffffffffffffffff1673ffffffffffffffffffffffffffffffffffffffff16815260200190815260200160002060010154905090565b6000809054906101000a900473ffffffffffffffffffffffffffffffffffffffff1673ffffffffffffffffffffffffffffffffffffffff163373ffffffffffffffffffffffffffffffffffffffff161461140f57600080fd5b6000600654148061142257504360065410155b156114ac576000600360006101000a81548160ff02191690831515021790555061145660034361276890919063ffffffff16565b6006819055507f1b02c716f27555f879e01d5dabef2ac991d225e6c1278f477168f3bb71493cc76040518080602001828103825260438152602001806150366043913960600191505060405180910390a16115f6565b60006001541480156114c057506000600254145b156114e35760003390508073ffffffffffffffffffffffffffffffffffffffff16ff5b600854600960003373ffffffffffffffffffffffffffffffffffffffff1673ffffffffffffffffffffffffffffffffffffffff168152602001908152602001600020600001541480156115795750600754600960003373ffffffffffffffffffffffffffffffffffffffff1673ffffffffffffffffffffffffffffffffffffffff16815260200190815260200160002060010154145b801561158757506000600254145b156115aa5760003390508073ffffffffffffffffffffffffffffffffffffffff16ff5b7ff60094595f5be639661cd3c6c7fa1ef87c793e55f5923b9dca94fc9a2a6a87926040518080602001828103825260358152602001806151346035913960400191505060405180910390a15b565b60015481565b6000809054906101000a900473ffffffffffffffffffffffffffffffffffffffff1681565b600360009054906101000a900460ff1681565b6000600960008373ffffffffffffffffffffffffffffffffffffffff1673ffffffffffffffffffffffffffffffffffffffff168152602001908152602001600020600101549050809050919050565b6000600960003373ffffffffffffffffffffffffffffffffffffffff1673ffffffffffffffffffffffffffffffffffffffff1681526020019081526020016000206001015414158061171a57506000601560003373ffffffffffffffffffffffffffffffffffffffff1673ffffffffffffffffffffffffffffffffffffffff1681526020019081526020016000206000015414155b61172357600080fd5b6000600960003373ffffffffffffffffffffffffffffffffffffffff1673ffffffffffffffffffffffffffffffffffffffff168152602001908152602001600020600101541415611919576000601560003373ffffffffffffffffffffffffffffffffffffffff1673ffffffffffffffffffffffffffffffffffffffff1681526020019081526020016000206000015414611914576000601560003373ffffffffffffffffffffffffffffffffffffffff1673ffffffffffffffffffffffffffffffffffffffff1681526020019081526020016000206000015490506000601560003373ffffffffffffffffffffffffffffffffffffffff1673ffffffffffffffffffffffffffffffffffffffff1681526020019081526020016000206000018190555061185d600160025461287690919063ffffffff16565b6002819055503373ffffffffffffffffffffffffffffffffffffffff166108fc829081150290604051600060405180830381858888f193505050501580156118a9573d6000803e3d6000fd5b507fe57a33bb09b1fa1093697596ae82d7b7b097898212ac5bf940cedd32103132e56040518080602001828103825260208152602001807f5765207472616e7366657272656420746865206d6f6e657920746f20796f752e81525060200191505060405180910390a1505b611f07565b600854600960003373ffffffffffffffffffffffffffffffffffffffff1673ffffffffffffffffffffffffffffffffffffffff168152602001908152602001600020600001541415611cfc576000601560003373ffffffffffffffffffffffffffffffffffffffff1673ffffffffffffffffffffffffffffffffffffffff168152602001908152602001600020600001541415611af8576000611a1d600754611a0f600154600960003373ffffffffffffffffffffffffffffffffffffffff1673ffffffffffffffffffffffffffffffffffffffff168152602001908152602001600020600101546127f090919063ffffffff16565b612e5b90919063ffffffff16565b9050611a2833612ea5565b611a3d8160015461287690919063ffffffff16565b6001819055503373ffffffffffffffffffffffffffffffffffffffff166108fc829081150290604051600060405180830381858888f19350505050158015611a89573d6000803e3d6000fd5b507fe57a33bb09b1fa1093697596ae82d7b7b097898212ac5bf940cedd32103132e56040518080602001828103825260208152602001807f5765207472616e7366657272656420746865206d6f6e657920746f20796f752e81525060200191505060405180910390a150611cf7565b6000611b65600754611b57600154600960003373ffffffffffffffffffffffffffffffffffffffff1673ffffffffffffffffffffffffffffffffffffffff168152602001908152602001600020600101546127f090919063ffffffff16565b612e5b90919063ffffffff16565b9050611b7033612ea5565b611b858160015461287690919063ffffffff16565b600181905550611be0601560003373ffffffffffffffffffffffffffffffffffffffff1673ffffffffffffffffffffffffffffffffffffffff168152602001908152602001600020600001548261276890919063ffffffff16565b90506000601560003373ffffffffffffffffffffffffffffffffffffffff1673ffffffffffffffffffffffffffffffffffffffff16815260200190815260200160002060000181905550611c40600160025461287690919063ffffffff16565b6002819055503373ffffffffffffffffffffffffffffffffffffffff166108fc829081150290604051600060405180830381858888f19350505050158015611c8c573d6000803e3d6000fd5b507fe57a33bb09b1fa1093697596ae82d7b7b097898212ac5bf940cedd32103132e56040518080602001828103825260208152602001807f5765207472616e7366657272656420746865206d6f6e657920746f20796f752e81525060200191505060405180910390a1505b611f06565b6000601560003373ffffffffffffffffffffffffffffffffffffffff1673ffffffffffffffffffffffffffffffffffffffff168152602001908152602001600020600001541415611da057611d5033612ea5565b7ff6b04a1a728c1c6bb2dbd7347a3461a73d98a26cebc39e11e2721e43400ec27e60405180806020018281038252602a8152602001806150c4602a913960400191505060405180910390a1611f05565b611da933612ea5565b6000601560003373ffffffffffffffffffffffffffffffffffffffff1673ffffffffffffffffffffffffffffffffffffffff1681526020019081526020016000206000015490506000601560003373ffffffffffffffffffffffffffffffffffffffff1673ffffffffffffffffffffffffffffffffffffffff16815260200190815260200160002060000181905550611e4e600160025461287690919063ffffffff16565b6002819055503373ffffffffffffffffffffffffffffffffffffffff166108fc829081150290604051600060405180830381858888f19350505050158015611e9a573d6000803e3d6000fd5b507fe57a33bb09b1fa1093697596ae82d7b7b097898212ac5bf940cedd32103132e56040518080602001828103825260208152602001807f5765207472616e7366657272656420746865206d6f6e657920746f20796f752e81525060200191505060405180910390a1505b5b5b565b611f476040518060400160405280600d81526020017f404372617a7943616e6164696100000000000000000000000000000000000000815250612f95565b60108190555066038d7ea4c6800060105401601181905550600360009054906101000a900460ff16611fe1576040517f08c379a00000000000000000000000000000000000000000000000000000000081526004018080602001828103825260158152602001807f4265747320617265206e6f7420616c6c6f7765642e000000000000000000000081525060200191505060405180910390fd5b600115158115151480611ff8575060001515811515145b61200157600080fd5b600454341015612079576040517f08c379a00000000000000000000000000000000000000000000000000000000081526004018080602001828103825260138152602001807f5468652062657420697320746f6f206c6f772e0000000000000000000000000081525060200191505060405180910390fd5b600554601154340311156120f5576040517f08c379a00000000000000000000000000000000000000000000000000000000081526004018080602001828103825260148152602001807f596f75722062657420697320746f6f206269672e00000000000000000000000081525060200191505060405180910390fd5b600f546001540360115434031115612175576040517f08c379a00000000000000000000000000000000000000000000000000000000081526004018080602001828103825260148152602001807f596f75722062657420697320746f6f206269672100000000000000000000000081525060200191505060405180910390fd5b6000601560003373ffffffffffffffffffffffffffffffffffffffff1673ffffffffffffffffffffffffffffffffffffffff1681526020019081526020016000206001015414612210576040517f08c379a000000000000000000000000000000000000000000000000000000000815260040180806020018281038252602581526020018061510f6025913960400191505060405180910390fd5b6122256011543461287690919063ffffffff16565b601560003373ffffffffffffffffffffffffffffffffffffffff1673ffffffffffffffffffffffffffffffffffffffff168152602001908152602001600020600101819055506122803460015461276890919063ffffffff16565b6001819055506122f06122df6002601560003373ffffffffffffffffffffffffffffffffffffffff1673ffffffffffffffffffffffffffffffffffffffff168152602001908152602001600020600101546127f090919063ffffffff16565b600f5461276890919063ffffffff16565b600f819055506122fe61112b565b50565b6000601560003373ffffffffffffffffffffffffffffffffffffffff1673ffffffffffffffffffffffffffffffffffffffff16815260200190815260200160002060000154905090565b60075481565b60115481565b60135481565b600360009054906101000a900460ff1661237657600080fd5b60006123853460015433613329565b90507f9f37e877e3b476b298e06d3a15e338426d26f843c271f1e3c710385972bded438160405180806020018381526020018281038252604b815260200180615079604b91396060019250505060405180910390a16123ef3460015461276890919063ffffffff16565b60018190555050565b600f5481565b60008073ffffffffffffffffffffffffffffffffffffffff16600b60009054906101000a900473ffffffffffffffffffffffffffffffffffffffff1673ffffffffffffffffffffffffffffffffffffffff16148061248657506000612484600b60009054906101000a900473ffffffffffffffffffffffffffffffffffffffff16613702565b145b1561249757612495600061370d565b505b600b60009054906101000a900473ffffffffffffffffffffffffffffffffffffffff1673ffffffffffffffffffffffffffffffffffffffff166338cc48316040518163ffffffff1660e01b8152600401602060405180830381600087803b15801561250157600080fd5b505af1158015612515573d6000803e3d6000fd5b505050506040513d602081101561252b57600080fd5b810190808051906020019092919050505073ffffffffffffffffffffffffffffffffffffffff16600a60009054906101000a900473ffffffffffffffffffffffffffffffffffffffff1673ffffffffffffffffffffffffffffffffffffffff161461267657600b60009054906101000a900473ffffffffffffffffffffffffffffffffffffffff1673ffffffffffffffffffffffffffffffffffffffff166338cc48316040518163ffffffff1660e01b8152600401602060405180830381600087803b1580156125fa57600080fd5b505af115801561260e573d6000803e3d6000fd5b505050506040513d602081101561262457600080fd5b8101908080519060200190929190505050600a60006101000a81548173ffffffffffffffffffffffffffffffffffffffff021916908373ffffffffffffffffffffffffffffffffffffffff1602179055505b600a60009054906101000a900473ffffffffffffffffffffffffffffffffffffffff1673ffffffffffffffffffffffffffffffffffffffff1663c281d19e6040518163ffffffff1660e01b815260040160206040518083038186803b1580156126de57600080fd5b505afa1580156126f2573d6000803e3d6000fd5b505050506040513d602081101561270857600080fd5b8101908080519060200190929190505050905090565b600061276083836040518060400160405280601881526020017f536166654d6174683a206d6f64756c6f206279207a65726f000000000000000081525061371e565b905092915050565b6000808284019050838110156127e6576040517f08c379a000000000000000000000000000000000000000000000000000000000815260040180806020018281038252601b8152602001807f536166654d6174683a206164646974696f6e206f766572666c6f77000000000081525060200191505060405180910390fd5b8091505092915050565b6000808314156128035760009050612870565b600082840290508284828161281457fe5b041461286b576040517f08c379a00000000000000000000000000000000000000000000000000000000081526004018080602001828103825260218152602001806150ee6021913960400191505060405180910390fd5b809150505b92915050565b60006128b883836040518060400160405280601e81526020017f536166654d6174683a207375627472616374696f6e206f766572666c6f7700008152506137df565b905092915050565b600080831180156128d2575060208311155b6128db57600080fd5b600a84029350606060016040519080825280601f01601f1916602001820160405280156129175781602001600182028038833980820191505090505b5090508360f81b8160008151811061292b57fe5b60200101907effffffffffffffffffffffffffffffffffffffffffffffffffffffffffffff1916908160001a905350606060206040519080825280601f01601f1916602001820160405280156129905781602001600182028038833980820191505090505b509050606060206040519080825280601f01601f1916602001820160405280156129c95781602001600182028038833980820191505090505b50905060006129d661389f565b905060208352424118600143034018602084015260208252806020830152606060206040519080825280601f01601f191660200182016040528015612a2a5781602001600182028038833980820191505090505b509050886020820152606060086040519080825280601f01601f191660200182016040528015612a695781602001600182028038833980820191505090505b509050612a7c8260186008846000613bbf565b50612a85614f4f565b60405180608001604052808781526020018881526020018681526020018481525090506000612aea6040518060400160405280600681526020017f72616e646f6d0000000000000000000000000000000000000000000000000000815250838c613c1e565b9050606060086040519080825280601f01601f191660200182016040528015612b225781602001600182028038833980820191505090505b50905060208401517f0100000000000000000000000000000000000000000000000000000000000000810460278301537e01000000000000000000000000000000000000000000000000000000000000810460268301537d010000000000000000000000000000000000000000000000000000000000810460258301537c0100000000000000000000000000000000000000000000000000000000810460248301537b01000000000000000000000000000000000000000000000000000000810460238301537a010000000000000000000000000000000000000000000000000000810460228301537901000000000000000000000000000000000000000000000000008104602183015378010000000000000000000000000000000000000000000000008104602083015350612e48828285600160048110612c6157fe5b6020020151600287600060048110612c7557fe5b60200201516040518082805190602001908083835b60208310612cad5780518252602082019150602081019050602083039250612c8a565b6001836020036101000a038019825116818451168082178552505050505050905001915050602060405180830381855afa158015612cef573d6000803e3d6000fd5b5050506040513d6020811015612d0457600080fd5b810190808051906020019092919050505087600260048110612d2257fe5b60200201516040516020018085805190602001908083835b60208310612d5d5780518252602082019150602081019050602083039250612d3a565b6001836020036101000a03801982511681845116808217855250505050505090500184805190602001908083835b60208310612dae5780518252602082019150602081019050602083039250612d8b565b6001836020036101000a03801982511681845116808217855250505050505090500183815260200182805190602001908083835b60208310612e055780518252602082019150602081019050602083039250612de2565b6001836020036101000a03801982511681845116808217855250505050505090500194505050505060405160208183030381529060405280519060200120613f8d565b8199505050505050505050509392505050565b6000612e9d83836040518060400160405280601a81526020017f536166654d6174683a206469766973696f6e206279207a65726f000000000000815250613fa9565b905092915050565b612efc600960008373ffffffffffffffffffffffffffffffffffffffff1673ffffffffffffffffffffffffffffffffffffffff1681526020019081526020016000206001015460075461287690919063ffffffff16565b6007819055506000600960008373ffffffffffffffffffffffffffffffffffffffff1673ffffffffffffffffffffffffffffffffffffffff168152602001908152602001600020600101819055506000600960003373ffffffffffffffffffffffffffffffffffffffff1673ffffffffffffffffffffffffffffffffffffffff1681526020019081526020016000206000018190555050565b60008073ffffffffffffffffffffffffffffffffffffffff16600b60009054906101000a900473ffffffffffffffffffffffffffffffffffffffff1673ffffffffffffffffffffffffffffffffffffffff16148061301d5750600061301b600b60009054906101000a900473ffffffffffffffffffffffffffffffffffffffff16613702565b145b1561302e5761302c600061370d565b505b600b60009054906101000a900473ffffffffffffffffffffffffffffffffffffffff1673ffffffffffffffffffffffffffffffffffffffff166338cc48316040518163ffffffff1660e01b8152600401602060405180830381600087803b15801561309857600080fd5b505af11580156130ac573d6000803e3d6000fd5b505050506040513d60208110156130c257600080fd5b810190808051906020019092919050505073ffffffffffffffffffffffffffffffffffffffff16600a60009054906101000a900473ffffffffffffffffffffffffffffffffffffffff1673ffffffffffffffffffffffffffffffffffffffff161461320d57600b60009054906101000a900473ffffffffffffffffffffffffffffffffffffffff1673ffffffffffffffffffffffffffffffffffffffff166338cc48316040518163ffffffff1660e01b8152600401602060405180830381600087803b15801561319157600080fd5b505af11580156131a5573d6000803e3d6000fd5b505050506040513d60208110156131bb57600080fd5b8101908080519060200190929190505050600a60006101000a81548173ffffffffffffffffffffffffffffffffffffffff021916908373ffffffffffffffffffffffffffffffffffffffff1602179055505b600a60009054906101000a900473ffffffffffffffffffffffffffffffffffffffff1673ffffffffffffffffffffffffffffffffffffffff1663524f3889836040518263ffffffff1660e01b81526004018080602001828103825283818151815260200191508051906020019080838360005b8381101561329b578082015181840152602081019050613280565b50505050905090810190601f1680156132c85780820380516001836020036101000a031916815260200191505b5092505050602060405180830381600087803b1580156132e757600080fd5b505af11580156132fb573d6000803e3d6000fd5b505050506040513d602081101561331157600080fd5b81019080805190602001909291905050509050919050565b600060045483116133ac57620f424090506000600781905550613358600160085461276890919063ffffffff16565b600881905550600854600960008473ffffffffffffffffffffffffffffffffffffffff1673ffffffffffffffffffffffffffffffffffffffff168152602001908152602001600020600001819055506133d6565b6133d3836133c5866007546127f090919063ffffffff16565b612e5b90919063ffffffff16565b90505b600854600960008473ffffffffffffffffffffffffffffffffffffffff1673ffffffffffffffffffffffffffffffffffffffff1681526020019081526020016000206000015414156135485761347781600960008573ffffffffffffffffffffffffffffffffffffffff1673ffffffffffffffffffffffffffffffffffffffff1681526020019081526020016000206001015461276890919063ffffffff16565b600960008473ffffffffffffffffffffffffffffffffffffffff1673ffffffffffffffffffffffffffffffffffffffff168152602001908152602001600020600101819055506134d28160075461276890919063ffffffff16565b6007819055507f757b590df84fcfa69d415c36100812777c24cc28d0190aeec594dba0596a86cd60405180806020018281038252601b8152602001807f436f6e6772617473206f6e206d696e74696e6720746f6b656e732e000000000081525060200191505060405180910390a18090506136fb565b6000600960008473ffffffffffffffffffffffffffffffffffffffff1673ffffffffffffffffffffffffffffffffffffffff16815260200190815260200160002060010181905550600854600960008473ffffffffffffffffffffffffffffffffffffffff1673ffffffffffffffffffffffffffffffffffffffff1681526020019081526020016000206000018190555061362e81600960008573ffffffffffffffffffffffffffffffffffffffff1673ffffffffffffffffffffffffffffffffffffffff1681526020019081526020016000206001015461276890919063ffffffff16565b600960008473ffffffffffffffffffffffffffffffffffffffff1673ffffffffffffffffffffffffffffffffffffffff168152602001908152602001600020600101819055506136898160075461276890919063ffffffff16565b6007819055507f757b590df84fcfa69d415c36100812777c24cc28d0190aeec594dba0596a86cd60405180806020018281038252601b8152602001807f436f6e6772617473206f6e206d696e74696e6720746f6b656e732e000000000081525060200191505060405180910390a18090505b9392505050565b6000813b9050919050565b600061371761406f565b9050919050565b60008083141582906137cb576040517f08c379a00000000000000000000000000000000000000000000000000000000081526004018080602001828103825283818151815260200191508051906020019080838360005b83811015613790578082015181840152602081019050613775565b50505050905090810190601f1680156137bd5780820380516001836020036101000a031916815260200191505b509250505060405180910390fd5b508284816137d557fe5b0690509392505050565b600083831115829061388c576040517f08c379a00000000000000000000000000000000000000000000000000000000081526004018080602001828103825283818151815260200191508051906020019080838360005b83811015613851578082015181840152602081019050613836565b50505050905090810190601f16801561387e5780820380516001836020036101000a031916815260200191505b509250505060405180910390fd5b5060008385039050809150509392505050565b60008073ffffffffffffffffffffffffffffffffffffffff16600b60009054906101000a900473ffffffffffffffffffffffffffffffffffffffff1673ffffffffffffffffffffffffffffffffffffffff16148061392757506000613925600b60009054906101000a900473ffffffffffffffffffffffffffffffffffffffff16613702565b145b1561393857613936600061370d565b505b600b60009054906101000a900473ffffffffffffffffffffffffffffffffffffffff1673ffffffffffffffffffffffffffffffffffffffff166338cc48316040518163ffffffff1660e01b8152600401602060405180830381600087803b1580156139a257600080fd5b505af11580156139b6573d6000803e3d6000fd5b505050506040513d60208110156139cc57600080fd5b810190808051906020019092919050505073ffffffffffffffffffffffffffffffffffffffff16600a60009054906101000a900473ffffffffffffffffffffffffffffffffffffffff1673ffffffffffffffffffffffffffffffffffffffff1614613b1757600b60009054906101000a900473ffffffffffffffffffffffffffffffffffffffff1673ffffffffffffffffffffffffffffffffffffffff166338cc48316040518163ffffffff1660e01b8152600401602060405180830381600087803b158015613a9b57600080fd5b505af1158015613aaf573d6000803e3d6000fd5b505050506040513d6020811015613ac557600080fd5b8101908080519060200190929190505050600a60006101000a81548173ffffffffffffffffffffffffffffffffffffffff021916908373ffffffffffffffffffffffffffffffffffffffff1602179055505b600a60009054906101000a900473ffffffffffffffffffffffffffffffffffffffff1673ffffffffffffffffffffffffffffffffffffffff1663abaa5f3e6040518163ffffffff1660e01b815260040160206040518083038186803b158015613b7f57600080fd5b505afa158015613b93573d6000803e3d6000fd5b505050506040513d6020811015613ba957600080fd5b8101908080519060200190929190505050905090565b6060600082850190508084511015613bd657600080fd5b600086602001905060008460200190505b868860200101821015613c0f5781890151808288015250602082019150602081019050613be7565b85935050505095945050505050565b60008073ffffffffffffffffffffffffffffffffffffffff16600b60009054906101000a900473ffffffffffffffffffffffffffffffffffffffff1673ffffffffffffffffffffffffffffffffffffffff161480613ca657506000613ca4600b60009054906101000a900473ffffffffffffffffffffffffffffffffffffffff16613702565b145b15613cb757613cb5600061370d565b505b600b60009054906101000a900473ffffffffffffffffffffffffffffffffffffffff1673ffffffffffffffffffffffffffffffffffffffff166338cc48316040518163ffffffff1660e01b8152600401602060405180830381600087803b158015613d2157600080fd5b505af1158015613d35573d6000803e3d6000fd5b505050506040513d6020811015613d4b57600080fd5b810190808051906020019092919050505073ffffffffffffffffffffffffffffffffffffffff16600a60009054906101000a900473ffffffffffffffffffffffffffffffffffffffff1673ffffffffffffffffffffffffffffffffffffffff1614613e9657600b60009054906101000a900473ffffffffffffffffffffffffffffffffffffffff1673ffffffffffffffffffffffffffffffffffffffff166338cc48316040518163ffffffff1660e01b8152600401602060405180830381600087803b158015613e1a57600080fd5b505af1158015613e2e573d6000803e3d6000fd5b505050506040513d6020811015613e4457600080fd5b8101908080519060200190929190505050600a60006101000a81548173ffffffffffffffffffffffffffffffffffffffff021916908373ffffffffffffffffffffffffffffffffffffffff1602179055505b60606004604051908082528060200260200182016040528015613ecd57816020015b6060815260200190600190039081613eb85790505b50905083600060048110613edd57fe5b602002015181600081518110613eef57fe5b602002602001018190525083600160048110613f0757fe5b602002015181600181518110613f1957fe5b602002602001018190525083600260048110613f3157fe5b602002015181600281518110613f4357fe5b602002602001018190525083600360048110613f5b57fe5b602002015181600381518110613f6d57fe5b6020026020010181905250613f838582856145c6565b9150509392505050565b80600d6000848152602001908152602001600020819055505050565b60008083118290614055576040517f08c379a00000000000000000000000000000000000000000000000000000000081526004018080602001828103825283818151815260200191508051906020019080838360005b8381101561401a578082015181840152602081019050613fff565b50505050905090810190601f1680156140475780820380516001836020036101000a031916815260200191505b509250505060405180910390fd5b50600083858161406157fe5b049050809150509392505050565b60008061408f731d3b2638a7cc9f2cb3d298a3da7a90b67e5506ed613702565b111561413157731d3b2638a7cc9f2cb3d298a3da7a90b67e5506ed600b60006101000a81548173ffffffffffffffffffffffffffffffffffffffff021916908373ffffffffffffffffffffffffffffffffffffffff1602179055506141286040518060400160405280600b81526020017f6574685f6d61696e6e6574000000000000000000000000000000000000000000815250614b2c565b600190506145c3565b600061415073c03a2615d5efaf5f49f60b7bb6583eaec212fdf1613702565b11156141f25773c03a2615d5efaf5f49f60b7bb6583eaec212fdf1600b60006101000a81548173ffffffffffffffffffffffffffffffffffffffff021916908373ffffffffffffffffffffffffffffffffffffffff1602179055506141e96040518060400160405280600c81526020017f6574685f726f707374656e330000000000000000000000000000000000000000815250614b2c565b600190506145c3565b600061421173b7a07bcf2ba2f2703b24c0691b5278999c59ac7e613702565b11156142b35773b7a07bcf2ba2f2703b24c0691b5278999c59ac7e600b60006101000a81548173ffffffffffffffffffffffffffffffffffffffff021916908373ffffffffffffffffffffffffffffffffffffffff1602179055506142aa6040518060400160405280600981526020017f6574685f6b6f76616e0000000000000000000000000000000000000000000000815250614b2c565b600190506145c3565b60006142d273146500cfd35b22e4a392fe0adc06de1a1368ed48613702565b11156143745773146500cfd35b22e4a392fe0adc06de1a1368ed48600b60006101000a81548173ffffffffffffffffffffffffffffffffffffffff021916908373ffffffffffffffffffffffffffffffffffffffff16021790555061436b6040518060400160405280600b81526020017f6574685f72696e6b656279000000000000000000000000000000000000000000815250614b2c565b600190506145c3565b600061439373a2998efd205fb9d4b4963afb70778d6354ad3a41613702565b11156144355773a2998efd205fb9d4b4963afb70778d6354ad3a41600b60006101000a81548173ffffffffffffffffffffffffffffffffffffffff021916908373ffffffffffffffffffffffffffffffffffffffff16021790555061442c6040518060400160405280600a81526020017f6574685f676f65726c6900000000000000000000000000000000000000000000815250614b2c565b600190506145c3565b6000614454736f485c8bf6fc43ea212e93bbf8ce046c7f1cb475613702565b11156144b857736f485c8bf6fc43ea212e93bbf8ce046c7f1cb475600b60006101000a81548173ffffffffffffffffffffffffffffffffffffffff021916908373ffffffffffffffffffffffffffffffffffffffff160217905550600190506145c3565b60006144d77320e12a1f859b3feae5fb2a0a32c18f5a65555bbf613702565b111561453b577320e12a1f859b3feae5fb2a0a32c18f5a65555bbf600b60006101000a81548173ffffffffffffffffffffffffffffffffffffffff021916908373ffffffffffffffffffffffffffffffffffffffff160217905550600190506145c3565b600061455a7351efaf4c8b3c9afbd5ab9f4bbc82784ab6ef8faa613702565b11156145be577351efaf4c8b3c9afbd5ab9f4bbc82784ab6ef8faa600b60006101000a81548173ffffffffffffffffffffffffffffffffffffffff021916908373ffffffffffffffffffffffffffffffffffffffff160217905550600190506145c3565b600090505b90565b60008073ffffffffffffffffffffffffffffffffffffffff16600b60009054906101000a900473ffffffffffffffffffffffffffffffffffffffff1673ffffffffffffffffffffffffffffffffffffffff16148061464e5750600061464c600b60009054906101000a900473ffffffffffffffffffffffffffffffffffffffff16613702565b145b1561465f5761465d600061370d565b505b600b60009054906101000a900473ffffffffffffffffffffffffffffffffffffffff1673ffffffffffffffffffffffffffffffffffffffff166338cc48316040518163ffffffff1660e01b8152600401602060405180830381600087803b1580156146c957600080fd5b505af11580156146dd573d6000803e3d6000fd5b505050506040513d60208110156146f357600080fd5b810190808051906020019092919050505073ffffffffffffffffffffffffffffffffffffffff16600a60009054906101000a900473ffffffffffffffffffffffffffffffffffffffff1673ffffffffffffffffffffffffffffffffffffffff161461483e57600b60009054906101000a900473ffffffffffffffffffffffffffffffffffffffff1673ffffffffffffffffffffffffffffffffffffffff166338cc48316040518163ffffffff1660e01b8152600401602060405180830381600087803b1580156147c257600080fd5b505af11580156147d6573d6000803e3d6000fd5b505050506040513d60208110156147ec57600080fd5b8101908080519060200190929190505050600a60006101000a81548173ffffffffffffffffffffffffffffffffffffffff021916908373ffffffffffffffffffffffffffffffffffffffff1602179055505b6000600a60009054906101000a900473ffffffffffffffffffffffffffffffffffffffff1673ffffffffffffffffffffffffffffffffffffffff16632ef3accc86856040518363ffffffff1660e01b81526004018080602001838152602001828103825284818151815260200191508051906020019080838360005b838110156148d55780820151818401526020810190506148ba565b50505050905090810190601f1680156149025780820380516001836020036101000a031916815260200191505b509350505050602060405180830381600087803b15801561492257600080fd5b505af1158015614936573d6000803e3d6000fd5b505050506040513d602081101561494c57600080fd5b81019080805190602001909291905050509050823a02670de0b6b3a76400000181111561497f576000801b915050614b25565b606061498a85614b46565b9050600a60009054906101000a900473ffffffffffffffffffffffffffffffffffffffff1673ffffffffffffffffffffffffffffffffffffffff1663c55c1cb68360008985896040518663ffffffff1660e01b8152600401808581526020018060200180602001848152602001838103835286818151815260200191508051906020019080838360005b83811015614a2f578082015181840152602081019050614a14565b50505050905090810190601f168015614a5c5780820380516001836020036101000a031916815260200191505b50838103825285818151815260200191508051906020019080838360005b83811015614a95578082015181840152602081019050614a7a565b50505050905090810190601f168015614ac25780820380516001836020036101000a031916815260200191505b5096505050505050506020604051808303818588803b158015614ae457600080fd5b505af1158015614af8573d6000803e3d6000fd5b50505050506040513d6020811015614b0f57600080fd5b8101908080519060200190929190505050925050505b9392505050565b80600c9080519060200190614b42929190614f76565b5050565b6060614b50614bc6565b614b58614ff6565b614b6481610400614bd2565b614b6d81614c1c565b60008090505b8351811015614baf57614ba2848281518110614b8b57fe5b602002602001015183614c2a90919063ffffffff16565b8080600101915050614b73565b50614bb981614c4f565b8060000151915050919050565b60405180590338823950565b6000819050600060208281614be357fe5b0614614bfc5760208181614bf357fe5b06602003810190505b808360200181815250506040518084526000815281810160405250505050565b614c27816004614c5d565b50565b614c378260028351614c7e565b614c4a8183614dbe90919063ffffffff16565b505050565b614c5a816007614c5d565b50565b614c7a601f60058360ff16901b1783614e6990919063ffffffff16565b5050565b60178111614caa57614ca58160058460ff16901b60ff161784614e6990919063ffffffff16565b614db9565b60ff8111614ceb57614ccf601860058460ff16901b1784614e6990919063ffffffff16565b614ce581600185614ea99092919063ffffffff16565b50614db8565b61ffff8111614d2d57614d11601960058460ff16901b1784614e6990919063ffffffff16565b614d2781600285614ea99092919063ffffffff16565b50614db7565b63ffffffff8111614d7157614d55601a60058460ff16901b1784614e6990919063ffffffff16565b614d6b81600485614ea99092919063ffffffff16565b50614db6565b67ffffffffffffffff8111614db557614d9d601b60058460ff16901b1784614e6990919063ffffffff16565b614db381600885614ea99092919063ffffffff16565b505b5b5b5b5b505050565b614dc6614ff6565b82602001518360000151518351011115614df657614df5836002614def86602001518651614f10565b02614f2c565b5b60008060008451905085518051602081830101945086518101825260208701935050505b60208110614e3d5781518352602083019250602082019150602081039050614e1a565b60006001826020036101000a039050801983511681855116818117865250508694505050505092915050565b81602001516001836000015151011115614e8f57614e8e826002846020015102614f2c565b5b815180516020818301018381536001820183525050505050565b614eb1614ff6565b836020015184600001515183011115614edf57614ede846002614ed8876020015186614f10565b02614f2c565b5b60006001836101000a0390508451805184818301018684198251161781528582018352505050849150509392505050565b600081831115614f2257829050614f26565b8190505b92915050565b606082600001519050614f3f8383614bd2565b614f498382614dbe565b50505050565b60405180608001604052806004905b6060815260200190600190039081614f5e5790505090565b828054600181600116156101000203166002900490600052602060002090601f016020900481019282601f10614fb757805160ff1916838001178555614fe5565b82800160010185558215614fe5579182015b82811115614fe4578251825591602001919060010190614fc9565b5b509050614ff29190615010565b5090565b604051806040016040528060608152602001600081525090565b61503291905b8082111561502e576000816000905550600101615016565b5090565b9056fe54686520636f6e7472616374206973207368757474696e6720646f776e2e2e2e204e6f206d6f726520626574732e20576974686472617720796f75722066756e64732e596f752068617665207375636365737366756c6c792070726f7669646564206c69717569646974792e20596f75206e6f7720686176652074686973206d616e79204c50746f6b656e733a20596f752068616420612070726576696f75732067656e65726174696f6e206e6f7720776f72746820302e536166654d6174683a206d756c7469706c69636174696f6e206f766572666c6f77596f752063757272656e746c792068617665206120626574206f75747374616e64696e672e546865726520617265207374696c6c2070726f7669646572732077697468206d6f6e657920696e2074686520636f6e74726163742ea265627a7a72315820b422b87290168d64d5bbdcd6c23e454347608da33a03f82b974f067357ee892c64736f6c634300050c0032",
  "source": "import \"./Ownable.sol\";\r\nimport \"./Destroyable.sol\";\r\nimport \"./provableAPI.sol\";\r\nimport \"./UsesLiquidityProviders.sol\";\r\nimport \"./SafeMath.sol\";\r\n\r\n\r\n/* --- This is an educational project by @CrazyCanadia. It is a Coin Flip betting Dapp --- */\r\npragma solidity 0.5.12;\r\n\r\ncontract CoinFlip is Ownable, UsesLiquidityProviders, Destroyable, usingProvable {\r\n\r\n  using SafeMath for uint256; //Uses SafeMath from OpenZeppelin to help avoid errrors.\r\n\r\n  uint256 public totalLiabilities; //total potential payouts needing to be accounted for\r\n  uint256 constant NUM_RANDOM_BYTES_REQUESTED = 1; //This is for usingProvable to return a byte of info\r\n  uint256 public currentTxPrice; //This is called and calculated from the provableAPI service\r\n  uint256 public processingFee = 5000000000000000; //This is the overall cost as a fee taken by the contract\r\n  bytes32 public queryId;//For testing only\r\n  bytes32 public blank = 0x0000000000000000000000000000000000000000000000000000000000000000;\r\n\r\n  //User details are recorded in a mapping of a struct.\r\n  struct UserData {\r\n    uint256 account_balance; //The account_balance is for an individual players winnings to sit seperate from the community pool.\r\n    uint256 bet_amount; //Recording the user's bet\r\n    bool heads_or_tails; //Recording their choice\r\n    bytes32 ticket_num; //Change theis to ticket_num... where the ticket_num = queryId of active bet        //Allowing determination of a player who is \"actively\" waiting.\r\n  }\r\n\r\n  mapping(bytes32 => address) public userQueryId; //internal is used to limit access to the receipt number\r\n  mapping(address => UserData) public m_userData;\r\n\r\n  event LogNewProvableQuery(string description, bytes32 ticket_num, address whoseNumber);\r\n  event winningResult(string description, bytes32 ticket_num, address player);\r\n  event losingResult(string description, bytes32 ticket_num, address player);\r\n  event cancelResult(string description, uint256 blockNumber, address player);\r\n  event deadTicket(string description, bytes32 ticket_num, address player);\r\n  event LiquidityProvided(string description, uint256 result);\r\n  event updateGen(string description);\r\n  event transferOK(string result);\r\n\r\n\r\n  modifier onlyProvider(){ //a modifier only for those with a liquidity balance or a winning account_balance\r\n      require(m_LP_tokens[msg.sender].LP_token_amount != 0 || m_userData[msg.sender].account_balance != 0);\r\n      _; //Continue Execution\r\n  }\r\n\r\n\r\n  //Make a bet  Heads = 0(false)  Tails = 1(true)\r\n  function makeBet(bool _headsOrTails) public payable {//Place the bet after fees and requirements.\r\n    currentTxPrice = provable_getPrice(\"@CrazyCanadia\");\r\n    processingFee = currentTxPrice + 1000000000000000;\r\n    require(betsAllowed, \"Bets are not allowed.\");\r\n    require(_headsOrTails == true || _headsOrTails == false);\r\n    require(msg.value >= MIN_BET, \"The bet is too low.\"); //.01 Eth minimum bet where (.004 eth + gas fees for transaction = .005 as a deducted fee)\r\n    require(msg.value-processingFee <= MAX_BET, \"Your bet is too big.\");\r\n    require(msg.value-processingFee <= (contractBalance-totalLiabilities), \"Your bet is too big!\"); //Ensures nobody is betting against money the contract may not have.\r\n    require(m_userData[msg.sender].bet_amount == 0, \"You currently have a bet outstanding.\"); //Ensures that they curently have no bet... meaning only one bet at a time per person.\r\n\r\n\r\n    m_userData[msg.sender].bet_amount = msg.value.sub(processingFee);\r\n    contractBalance = contractBalance.add(msg.value);\r\n    totalLiabilities = totalLiabilities.add( (m_userData[msg.sender].bet_amount.mul(2)) );\r\n\r\n    coinFlip();\r\n  }\r\n\r\n  function coinFlip() payable public {//Send the request to a 3rd party oracle for a random byte of info...\r\n    uint256 QUERY_EXECUTION_DELAY = 0;\r\n    uint256 GAS_FOR_CALLBACK = 200000;\r\n    contractBalance = contractBalance - GAS_FOR_CALLBACK - currentTxPrice;\r\n    queryId = provable_newRandomDSQuery(QUERY_EXECUTION_DELAY, NUM_RANDOM_BYTES_REQUESTED, GAS_FOR_CALLBACK);\r\n    userQueryId[queryId] = msg.sender;\r\n    m_userData[msg.sender].ticket_num = queryId;\r\n    emit LogNewProvableQuery(\"Provable query was sent\", queryId, msg.sender);\r\n    // __callback(queryId, \"42\", bytes(\"test\"));\r\n  }\r\n\r\n  function __callback (bytes32 _queryId, string memory _result,  bytes memory _proof) public {//This is how the oracle will callback to deliver the random bytes.\r\n    require(msg.sender == provable_cbAddress());\r\n    address _userAddress = userQueryId[_queryId];\r\n    if (m_userData[_userAddress].ticket_num == _queryId){\r\n      m_userData[_userAddress].ticket_num = blank;\r\n      uint256 _betResult = uint256(keccak256(abi.encodePacked(_result))).mod(2);\r\n      // uint256 _betResult = now.mod(2); //currently here for testing only...\r\n      bool _headsOrTails = m_userData[_userAddress].heads_or_tails;\r\n\r\n      //The payout function should not be pushed to the user, rather it should sit to be pulled by them later for Security reasons.\r\n      if( (_betResult == 1 && _headsOrTails == true)||(_betResult == 0 && _headsOrTails == false) ){\r\n        if (m_userData[_userAddress].account_balance == 0){\r\n          activeBets = activeBets.add(1);\r\n        }\r\n        uint256 winningBet = m_userData[_userAddress].bet_amount.mul(2);\r\n        contractBalance = contractBalance.sub(winningBet);\r\n        totalLiabilities = totalLiabilities.sub(winningBet);\r\n        m_userData[_userAddress].bet_amount = 0;\r\n        m_userData[_userAddress].account_balance = m_userData[_userAddress].account_balance.add(winningBet);\r\n        emit winningResult(\"Congratulations you won the bet!\", _queryId, _userAddress);\r\n      }\r\n      else {\r\n        totalLiabilities = totalLiabilities.sub( m_userData[_userAddress].bet_amount.mul(2));\r\n        m_userData[_userAddress].bet_amount = 0;\r\n        emit losingResult(\"You lost. Try Again!\", _queryId, _userAddress);\r\n      }\r\n    } else {\r\n      emit deadTicket(\"We got back a now dead request.\", _queryId, _userAddress);\r\n    }\r\n  }\r\n\r\n  // function cancelBet () public {//Allows intervention if the callback function  takes longer than the user wishes to wait.\r\n  //   if (m_userData[msg.sender].bet_amount != 0){\r\n  //     m_userData[msg.sender].ticket_num = blank;\r\n  //     //The fees have already been removed from the bet\r\n  //     uint256 returnBet = m_userData[msg.sender].bet_amount;\r\n  //     contractBalance = contractBalance.sub(returnBet);\r\n  //     totalLiabilities = totalLiabilities.sub( returnBet.mul(2) );\r\n  //     m_userData[msg.sender].bet_amount = 0;\r\n  //     m_userData[msg.sender].account_balance = m_userData[msg.sender].account_balance.add(returnBet);\r\n  //     emit cancelResult(\"You cancelled your bet.\", block.number, msg.sender);\r\n  //   }\r\n  // }\r\n\r\n\r\n  //function to deposit into liquidity pool\r\n  function addLiquidity() public payable {\r\n    require(betsAllowed); // \"The contract is no longer accepting funds.\"\r\n    uint256 _mintAmount = mintAmount(msg.value, contractBalance, msg.sender);\r\n    emit LiquidityProvided(\"You have successfully provided liquidity. You now have this many LPtokens: \",  _mintAmount);\r\n    contractBalance = contractBalance.add(msg.value);\r\n  }\r\n\r\n\r\n  //function to withdraw money from the contract\r\n  function withdrawMoney() public onlyProvider {\r\n    if (m_LP_tokens[msg.sender].LP_token_amount == 0){ //If you are not an LP provider...\r\n\r\n      if(m_userData[msg.sender].account_balance != 0){//If you are not an LP provider && have a balance...\r\n        uint256 _transferAmount = m_userData[msg.sender].account_balance;\r\n        m_userData[msg.sender].account_balance = 0;\r\n        activeBets = activeBets.sub(1);\r\n        msg.sender.transfer(_transferAmount);\r\n        emit transferOK(\"We transferred the money to you.\");\r\n      }\r\n\r\n    } else if (m_LP_tokens[msg.sender].genNum == currentLPGen) {//You are an LP provider of the current Generation...\r\n\r\n        if(m_userData[msg.sender].account_balance == 0){ //If you are an LP provider of the current Generation && have no balance...\r\n          uint256 _withdrawAmount = (m_LP_tokens[msg.sender].LP_token_amount.mul(contractBalance)).div(LPTokenPool);\r\n          burnTokens(msg.sender);\r\n          contractBalance = contractBalance.sub(_withdrawAmount);\r\n          msg.sender.transfer(_withdrawAmount);\r\n          emit transferOK(\"We transferred the money to you.\");\r\n        } else {//If you are an LP provider of the current Generation && have a balance...\r\n          uint256 _withdrawAmount = (m_LP_tokens[msg.sender].LP_token_amount.mul(contractBalance)).div(LPTokenPool);\r\n          burnTokens(msg.sender);\r\n          contractBalance = contractBalance.sub(_withdrawAmount);\r\n          _withdrawAmount = _withdrawAmount.add(m_userData[msg.sender].account_balance);\r\n          m_userData[msg.sender].account_balance = 0;\r\n          activeBets = activeBets.sub(1);\r\n          msg.sender.transfer(_withdrawAmount);\r\n          emit transferOK(\"We transferred the money to you.\");\r\n        }\r\n\r\n      } else if(m_userData[msg.sender].account_balance == 0){//You are an LP provider from a previous Generation && have no balance...\r\n          burnTokens(msg.sender);\r\n          emit updateGen(\"You had a previous generation now worth 0.\");\r\n        } else {//You are an LP provider from a previous Generation... && have a balance...\r\n          burnTokens(msg.sender);\r\n          uint256 _withdrawAmount = m_userData[msg.sender].account_balance;\r\n          m_userData[msg.sender].account_balance = 0;\r\n          activeBets = activeBets.sub(1);\r\n          msg.sender.transfer(_withdrawAmount);\r\n          emit transferOK(\"We transferred the money to you.\");\r\n        }\r\n  }\r\n\r\n  function getUserBalance() public view returns(uint256){\r\n    return m_userData[msg.sender].account_balance;\r\n  }\r\n\r\n  function getUserTicket() public view returns(bytes32){\r\n    return m_userData[msg.sender].ticket_num;\r\n  }\r\n\r\n  function getUserBet() public view returns(uint256){\r\n    return m_userData[msg.sender].bet_amount;\r\n  }\r\n\r\n}\r\n",
  "sourcePath": "C:/Users/Daniel/Desktop/Solidity 201/Coin Flip/contracts/CoinFlip.sol",
  "compiler": {
    "name": "solc",
    "version": "0.5.12+commit.7709ece9.Emscripten.clang"
  },
  "schemaVersion": "3.0.16",
  "updatedAt": "2020-11-15T00:21:25.386Z",
  "devdoc": {
    "methods": {
      "__callback(bytes32,string)": {
        "details": "The following `__callback` functions are just placeholders ideally     meant to be defined in child contract when proofs are used.     The function bodies simply silence compiler warnings."
      }
    }
  },
  "userdoc": {
    "methods": {}
  }
}