{
  "contractName": "Destroyable",
  "abi": [
    {
      "anonymous": false,
      "inputs": [
        {
          "indexed": false,
          "internalType": "string",
          "name": "result",
          "type": "string"
        }
      ],
      "name": "contractClosingDown",
      "type": "event"
    },
    {
      "anonymous": false,
      "inputs": [
        {
          "indexed": false,
          "internalType": "string",
          "name": "result",
          "type": "string"
        }
      ],
      "name": "contractDestroyed",
      "type": "event"
    },
    {
      "anonymous": false,
      "inputs": [
        {
          "indexed": false,
          "internalType": "string",
          "name": "description",
          "type": "string"
        }
      ],
      "name": "mintedLPTokens",
      "type": "event"
    },
    {
      "anonymous": false,
      "inputs": [
        {
          "indexed": false,
          "internalType": "string",
          "name": "description",
          "type": "string"
        }
      ],
      "name": "waitingForProviders",
      "type": "event"
    },
    {
      "constant": true,
      "inputs": [],
      "name": "LPTokenPool",
      "outputs": [
        {
          "internalType": "uint256",
          "name": "",
          "type": "uint256"
        }
      ],
      "payable": false,
      "stateMutability": "view",
      "type": "function"
    },
    {
      "constant": true,
      "inputs": [],
      "name": "MAX_BET",
      "outputs": [
        {
          "internalType": "uint256",
          "name": "",
          "type": "uint256"
        }
      ],
      "payable": false,
      "stateMutability": "view",
      "type": "function"
    },
    {
      "constant": true,
      "inputs": [],
      "name": "MIN_BET",
      "outputs": [
        {
          "internalType": "uint256",
          "name": "",
          "type": "uint256"
        }
      ],
      "payable": false,
      "stateMutability": "view",
      "type": "function"
    },
    {
      "constant": true,
      "inputs": [],
      "name": "SELF_DESTRUCT_TIMER",
      "outputs": [
        {
          "internalType": "bool",
          "name": "",
          "type": "bool"
        }
      ],
      "payable": false,
      "stateMutability": "view",
      "type": "function"
    },
    {
      "constant": true,
      "inputs": [],
      "name": "activeBets",
      "outputs": [
        {
          "internalType": "uint256",
          "name": "",
          "type": "uint256"
        }
      ],
      "payable": false,
      "stateMutability": "view",
      "type": "function"
    },
    {
      "constant": true,
      "inputs": [],
      "name": "betsAllowed",
      "outputs": [
        {
          "internalType": "bool",
          "name": "",
          "type": "bool"
        }
      ],
      "payable": false,
      "stateMutability": "view",
      "type": "function"
    },
    {
      "constant": true,
      "inputs": [],
      "name": "blank",
      "outputs": [
        {
          "internalType": "bytes32",
          "name": "",
          "type": "bytes32"
        }
      ],
      "payable": false,
      "stateMutability": "view",
      "type": "function"
    },
    {
      "constant": true,
      "inputs": [],
      "name": "contractBalance",
      "outputs": [
        {
          "internalType": "uint256",
          "name": "",
          "type": "uint256"
        }
      ],
      "payable": false,
      "stateMutability": "view",
      "type": "function"
    },
    {
      "constant": true,
      "inputs": [],
      "name": "currentAddress",
      "outputs": [
        {
          "internalType": "address",
          "name": "",
          "type": "address"
        }
      ],
      "payable": false,
      "stateMutability": "view",
      "type": "function"
    },
    {
      "constant": true,
      "inputs": [],
      "name": "currentLPGen",
      "outputs": [
        {
          "internalType": "uint256",
          "name": "",
          "type": "uint256"
        }
      ],
      "payable": false,
      "stateMutability": "view",
      "type": "function"
    },
    {
      "constant": true,
      "inputs": [],
      "name": "currentTxPrice",
      "outputs": [
        {
          "internalType": "uint256",
          "name": "",
          "type": "uint256"
        }
      ],
      "payable": false,
      "stateMutability": "view",
      "type": "function"
    },
    {
      "constant": true,
      "inputs": [
        {
          "internalType": "address",
          "name": "_userAddress",
          "type": "address"
        }
      ],
      "name": "getLiquidityProviderBalance",
      "outputs": [
        {
          "internalType": "uint256",
          "name": "_tokenBalance",
          "type": "uint256"
        }
      ],
      "payable": false,
      "stateMutability": "view",
      "type": "function"
    },
    {
      "constant": true,
      "inputs": [
        {
          "internalType": "address",
          "name": "_userAddress",
          "type": "address"
        }
      ],
      "name": "getLiquidityProviderGen",
      "outputs": [
        {
          "internalType": "uint256",
          "name": "",
          "type": "uint256"
        }
      ],
      "payable": false,
      "stateMutability": "view",
      "type": "function"
    },
    {
      "constant": true,
      "inputs": [
        {
          "internalType": "address",
          "name": "",
          "type": "address"
        }
      ],
      "name": "m_LP_tokens",
      "outputs": [
        {
          "internalType": "uint256",
          "name": "genNum",
          "type": "uint256"
        },
        {
          "internalType": "uint256",
          "name": "LP_token_amount",
          "type": "uint256"
        }
      ],
      "payable": false,
      "stateMutability": "view",
      "type": "function"
    },
    {
      "constant": true,
      "inputs": [
        {
          "internalType": "address",
          "name": "",
          "type": "address"
        }
      ],
      "name": "m_userData",
      "outputs": [
        {
          "internalType": "uint256",
          "name": "account_balance",
          "type": "uint256"
        },
        {
          "internalType": "uint256",
          "name": "bet_amount",
          "type": "uint256"
        },
        {
          "internalType": "bool",
          "name": "heads_or_tails",
          "type": "bool"
        },
        {
          "internalType": "bytes32",
          "name": "ticket_num",
          "type": "bytes32"
        }
      ],
      "payable": false,
      "stateMutability": "view",
      "type": "function"
    },
    {
      "constant": true,
      "inputs": [],
      "name": "owner",
      "outputs": [
        {
          "internalType": "address",
          "name": "",
          "type": "address"
        }
      ],
      "payable": false,
      "stateMutability": "view",
      "type": "function"
    },
    {
      "constant": true,
      "inputs": [],
      "name": "processingFee",
      "outputs": [
        {
          "internalType": "uint256",
          "name": "",
          "type": "uint256"
        }
      ],
      "payable": false,
      "stateMutability": "view",
      "type": "function"
    },
    {
      "constant": true,
      "inputs": [],
      "name": "queryId",
      "outputs": [
        {
          "internalType": "bytes32",
          "name": "",
          "type": "bytes32"
        }
      ],
      "payable": false,
      "stateMutability": "view",
      "type": "function"
    },
    {
      "constant": true,
      "inputs": [],
      "name": "totalLiabilities",
      "outputs": [
        {
          "internalType": "uint256",
          "name": "",
          "type": "uint256"
        }
      ],
      "payable": false,
      "stateMutability": "view",
      "type": "function"
    },
    {
      "constant": true,
      "inputs": [
        {
          "internalType": "bytes32",
          "name": "",
          "type": "bytes32"
        }
      ],
      "name": "userQueryId",
      "outputs": [
        {
          "internalType": "address",
          "name": "",
          "type": "address"
        }
      ],
      "payable": false,
      "stateMutability": "view",
      "type": "function"
    },
    {
      "constant": false,
      "inputs": [],
      "name": "destroy",
      "outputs": [],
      "payable": false,
      "stateMutability": "nonpayable",
      "type": "function"
    }
  ],
  "bytecode": "0x60806040526611c37937e080006009556000801b600b55336000806101000a81548173ffffffffffffffffffffffffffffffffffffffff021916908373ffffffffffffffffffffffffffffffffffffffff16021790555060006003819055506001600660016101000a81548160ff021916908315150217905550662386f26fc10000600481905550671bc16d674ec800006005819055506000600660006101000a81548160ff0219169083151502179055506000600c819055506000600d81905550610a24806100d06000396000f3fe608060405234801561001057600080fd5b50600436106101375760003560e01c80637e95b523116100b8578063a77fd3eb1161007c578063a77fd3eb14610464578063aac5116414610486578063ce5aec66146104de578063de1881a8146104fc578063e66632fb1461051a578063f73579a91461053857610137565b80637e95b5231461038a57806381bf4718146103a857806383197ef0146103f25780638b7afe2e146103fc5780638da5cb5b1461041a57610137565b806353221017116100ff578063532210171461024d5780636540742f1461026f578063738763bc1461028d57806374ca6cd3146102fb57806375efeb811461036c57610137565b8063032ee4051461013c578063039b3a231461015a578063343861df146101b25780633f1be4d4146101d05780634672f57e146101ee575b600080fd5b610144610556565b6040518082815260200191505060405180910390f35b61019c6004803603602081101561017057600080fd5b81019080803573ffffffffffffffffffffffffffffffffffffffff16906020019092919050505061055c565b6040518082815260200191505060405180910390f35b6101ba6105a8565b6040518082815260200191505060405180910390f35b6101d86105ae565b6040518082815260200191505060405180910390f35b6102306004803603602081101561020457600080fd5b81019080803573ffffffffffffffffffffffffffffffffffffffff1690602001909291905050506105b4565b604051808381526020018281526020019250505060405180910390f35b6102556105d8565b604051808215151515815260200191505060405180910390f35b6102776105eb565b6040518082815260200191505060405180910390f35b6102b9600480360360208110156102a357600080fd5b81019080803590602001909291905050506105f1565b604051808273ffffffffffffffffffffffffffffffffffffffff1673ffffffffffffffffffffffffffffffffffffffff16815260200191505060405180910390f35b61033d6004803603602081101561031157600080fd5b81019080803573ffffffffffffffffffffffffffffffffffffffff169060200190929190505050610624565b604051808581526020018481526020018315151515815260200182815260200194505050505060405180910390f35b610374610661565b6040518082815260200191505060405180910390f35b610392610667565b6040518082815260200191505060405180910390f35b6103b061066d565b604051808273ffffffffffffffffffffffffffffffffffffffff1673ffffffffffffffffffffffffffffffffffffffff16815260200191505060405180910390f35b6103fa610693565b005b6104046108d2565b6040518082815260200191505060405180910390f35b6104226108d8565b604051808273ffffffffffffffffffffffffffffffffffffffff1673ffffffffffffffffffffffffffffffffffffffff16815260200191505060405180910390f35b61046c6108fd565b604051808215151515815260200191505060405180910390f35b6104c86004803603602081101561049c57600080fd5b81019080803573ffffffffffffffffffffffffffffffffffffffff169060200190929190505050610910565b6040518082815260200191505060405180910390f35b6104e661095f565b6040518082815260200191505060405180910390f35b610504610965565b6040518082815260200191505060405180910390f35b61052261096b565b6040518082815260200191505060405180910390f35b610540610971565b6040518082815260200191505060405180910390f35b60035481565b6000601660008373ffffffffffffffffffffffffffffffffffffffff1673ffffffffffffffffffffffffffffffffffffffff168152602001908152602001600020600001549050919050565b600d5481565b600a5481565b60166020528060005260406000206000915090508060000154908060010154905082565b600660009054906101000a900460ff1681565b60045481565b60146020528060005260406000206000915054906101000a900473ffffffffffffffffffffffffffffffffffffffff1681565b60156020528060005260406000206000915090508060000154908060010154908060020160009054906101000a900460ff16908060030154905084565b60085481565b60055481565b600160009054906101000a900473ffffffffffffffffffffffffffffffffffffffff1681565b6000809054906101000a900473ffffffffffffffffffffffffffffffffffffffff1673ffffffffffffffffffffffffffffffffffffffff163373ffffffffffffffffffffffffffffffffffffffff16146106ec57600080fd5b600660009054906101000a900460ff16610786576000600660016101000a81548160ff0219169083151502179055506001600660006101000a81548160ff0219169083151502179055507f1b02c716f27555f879e01d5dabef2ac991d225e6c1278f477168f3bb71493cc76040518080602001828103825260438152602001806109786043913960600191505060405180910390a16108d0565b600060025414801561079a57506000600354145b156107bd5760003390508073ffffffffffffffffffffffffffffffffffffffff16ff5b600d54601660003373ffffffffffffffffffffffffffffffffffffffff1673ffffffffffffffffffffffffffffffffffffffff168152602001908152602001600020600001541480156108535750600c54601660003373ffffffffffffffffffffffffffffffffffffffff1673ffffffffffffffffffffffffffffffffffffffff16815260200190815260200160002060010154145b801561086157506000600354145b156108845760003390508073ffffffffffffffffffffffffffffffffffffffff16ff5b7ff60094595f5be639661cd3c6c7fa1ef87c793e55f5923b9dca94fc9a2a6a87926040518080602001828103825260358152602001806109bb6035913960400191505060405180910390a15b565b60025481565b6000809054906101000a900473ffffffffffffffffffffffffffffffffffffffff1681565b600660019054906101000a900460ff1681565b6000601660008373ffffffffffffffffffffffffffffffffffffffff1673ffffffffffffffffffffffffffffffffffffffff168152602001908152602001600020600101549050809050919050565b600c5481565b60095481565b600b5481565b6007548156fe54686520636f6e7472616374206973207368757474696e6720646f776e2e2e2e204e6f206d6f726520626574732e20576974686472617720796f75722066756e64732e546865726520617265207374696c6c2070726f7669646572732077697468206d6f6e657920696e2074686520636f6e74726163742ea265627a7a723158209ae53872b0b974526186c5c3edb963a8e5ee0488f6a95fa71ed8c7d8042db13a64736f6c634300050c0032",
  "source": "import \"./Storage.sol\";\r\nimport \"./UsesLiquidityProviders.sol\";\r\nimport \"./SafeMath.sol\";\r\n\r\npragma solidity 0.5.12;\r\n\r\ncontract Destroyable is Storage, UsesLiquidityProviders {\r\n\r\n  using SafeMath for uint256;\r\n\r\n  event contractDestroyed(string result);\r\n  event contractClosingDown(string result);\r\n  event waitingForProviders(string description);\r\n\r\n    function destroy() public onlyOwner {\r\n\r\n      if (!SELF_DESTRUCT_TIMER){//Establishing a 3 block timmer... just for fun... not needed.\r\n        betsAllowed = false;\r\n        SELF_DESTRUCT_TIMER = true;\r\n        emit contractClosingDown(\"The contract is shutting down... No more bets. Withdraw your funds.\");\r\n      } else if (contractBalance == 0 && activeBets == 0) {//Otherwise, if the contract is empty it can be deleted.\r\n        address payable receiver = msg.sender;\r\n        selfdestruct(receiver);\r\n        emit contractDestroyed(\"The contract was DESTROYED!\");\r\n      } else  if ( (m_LP_tokens[msg.sender].genNum == currentLPGen && m_LP_tokens[msg.sender].LP_token_amount == LPTokenPool) && activeBets == 0) {\r\n        //This allows the owner to avoid an extra step of withdraw if they are the only liquidity provider.\r\n        address payable receiver = msg.sender;\r\n        selfdestruct(receiver);\r\n        emit contractDestroyed(\"The contract was DESTROYED!\");\r\n      } else {\r\n        emit waitingForProviders(\"There are still providers with money in the contract.\");\r\n      }\r\n    }\r\n\r\n\r\n}\r\n",
  "sourcePath": "C:\\Users\\Daniel\\Desktop\\Solidity 201\\Coin Flip\\contracts\\Destroyable.sol",
  "compiler": {
    "name": "solc",
    "version": "0.5.12+commit.7709ece9.Emscripten.clang"
  },
  "schemaVersion": "3.0.16",
  "updatedAt": "2020-11-22T03:51:52.666Z",
  "devdoc": {
    "methods": {}
  },
  "userdoc": {
    "methods": {}
  }
}