{
  "contractName": "Destroyable",
  "abi": [
    {
      "anonymous": false,
      "inputs": [
        {
          "indexed": false,
          "internalType": "string",
          "name": "result",
          "type": "string"
        }
      ],
      "name": "contractClosingDown",
      "type": "event"
    },
    {
      "anonymous": false,
      "inputs": [
        {
          "indexed": false,
          "internalType": "string",
          "name": "result",
          "type": "string"
        }
      ],
      "name": "contractDestroyed",
      "type": "event"
    },
    {
      "anonymous": false,
      "inputs": [
        {
          "indexed": false,
          "internalType": "string",
          "name": "description",
          "type": "string"
        }
      ],
      "name": "mintedLPTokens",
      "type": "event"
    },
    {
      "anonymous": false,
      "inputs": [
        {
          "indexed": false,
          "internalType": "string",
          "name": "description",
          "type": "string"
        }
      ],
      "name": "waitingForProviders",
      "type": "event"
    },
    {
      "constant": true,
      "inputs": [],
      "name": "LPTokenPool",
      "outputs": [
        {
          "internalType": "uint256",
          "name": "",
          "type": "uint256"
        }
      ],
      "payable": false,
      "stateMutability": "view",
      "type": "function"
    },
    {
      "constant": true,
      "inputs": [],
      "name": "MAX_BET",
      "outputs": [
        {
          "internalType": "uint256",
          "name": "",
          "type": "uint256"
        }
      ],
      "payable": false,
      "stateMutability": "view",
      "type": "function"
    },
    {
      "constant": true,
      "inputs": [],
      "name": "MIN_BET",
      "outputs": [
        {
          "internalType": "uint256",
          "name": "",
          "type": "uint256"
        }
      ],
      "payable": false,
      "stateMutability": "view",
      "type": "function"
    },
    {
      "constant": true,
      "inputs": [],
      "name": "SELF_DESTRUCT_TIMER",
      "outputs": [
        {
          "internalType": "uint256",
          "name": "",
          "type": "uint256"
        }
      ],
      "payable": false,
      "stateMutability": "view",
      "type": "function"
    },
    {
      "constant": true,
      "inputs": [],
      "name": "activeBets",
      "outputs": [
        {
          "internalType": "uint256",
          "name": "",
          "type": "uint256"
        }
      ],
      "payable": false,
      "stateMutability": "view",
      "type": "function"
    },
    {
      "constant": true,
      "inputs": [],
      "name": "betsAllowed",
      "outputs": [
        {
          "internalType": "bool",
          "name": "",
          "type": "bool"
        }
      ],
      "payable": false,
      "stateMutability": "view",
      "type": "function"
    },
    {
      "constant": true,
      "inputs": [],
      "name": "contractBalance",
      "outputs": [
        {
          "internalType": "uint256",
          "name": "",
          "type": "uint256"
        }
      ],
      "payable": false,
      "stateMutability": "view",
      "type": "function"
    },
    {
      "constant": true,
      "inputs": [],
      "name": "currentLPGen",
      "outputs": [
        {
          "internalType": "uint256",
          "name": "",
          "type": "uint256"
        }
      ],
      "payable": false,
      "stateMutability": "view",
      "type": "function"
    },
    {
      "constant": true,
      "inputs": [
        {
          "internalType": "address",
          "name": "_userAddress",
          "type": "address"
        }
      ],
      "name": "getLiquidityProviderBalance",
      "outputs": [
        {
          "internalType": "uint256",
          "name": "_tokenBalance",
          "type": "uint256"
        }
      ],
      "payable": false,
      "stateMutability": "view",
      "type": "function"
    },
    {
      "constant": true,
      "inputs": [
        {
          "internalType": "address",
          "name": "_userAddress",
          "type": "address"
        }
      ],
      "name": "getLiquidityProviderGen",
      "outputs": [
        {
          "internalType": "uint256",
          "name": "",
          "type": "uint256"
        }
      ],
      "payable": false,
      "stateMutability": "view",
      "type": "function"
    },
    {
      "constant": true,
      "inputs": [
        {
          "internalType": "address",
          "name": "",
          "type": "address"
        }
      ],
      "name": "m_LP_tokens",
      "outputs": [
        {
          "internalType": "uint256",
          "name": "genNum",
          "type": "uint256"
        },
        {
          "internalType": "uint256",
          "name": "LP_token_amount",
          "type": "uint256"
        }
      ],
      "payable": false,
      "stateMutability": "view",
      "type": "function"
    },
    {
      "constant": true,
      "inputs": [],
      "name": "owner",
      "outputs": [
        {
          "internalType": "address",
          "name": "",
          "type": "address"
        }
      ],
      "payable": false,
      "stateMutability": "view",
      "type": "function"
    },
    {
      "constant": false,
      "inputs": [],
      "name": "destroy",
      "outputs": [],
      "payable": false,
      "stateMutability": "nonpayable",
      "type": "function"
    }
  ],
  "bytecode": "0x6080604052336000806101000a81548173ffffffffffffffffffffffffffffffffffffffff021916908373ffffffffffffffffffffffffffffffffffffffff16021790555060006002819055506001600360006101000a81548160ff021916908315150217905550662386f26fc10000600481905550671bc16d674ec800006005819055506000600681905550600060078190555060006008819055506107c3806100ab6000396000f3fe608060405234801561001057600080fd5b50600436106100cf5760003560e01c80637e95b5231161008c5780638da5cb5b116100665780638da5cb5b14610249578063a77fd3eb14610293578063aac51164146102b5578063ce5aec661461030d576100cf565b80637e95b5231461020357806383197ef0146102215780638b7afe2e1461022b576100cf565b8063032ee405146100d4578063039b3a23146100f2578063343861df1461014a5780634672f57e1461016857806353221017146101c75780636540742f146101e5575b600080fd5b6100dc61032b565b6040518082815260200191505060405180910390f35b6101346004803603602081101561010857600080fd5b81019080803573ffffffffffffffffffffffffffffffffffffffff169060200190929190505050610331565b6040518082815260200191505060405180910390f35b61015261037d565b6040518082815260200191505060405180910390f35b6101aa6004803603602081101561017e57600080fd5b81019080803573ffffffffffffffffffffffffffffffffffffffff169060200190929190505050610383565b604051808381526020018281526020019250505060405180910390f35b6101cf6103a7565b6040518082815260200191505060405180910390f35b6101ed6103ad565b6040518082815260200191505060405180910390f35b61020b6103b3565b6040518082815260200191505060405180910390f35b6102296103b9565b005b6102336105fb565b6040518082815260200191505060405180910390f35b610251610601565b604051808273ffffffffffffffffffffffffffffffffffffffff1673ffffffffffffffffffffffffffffffffffffffff16815260200191505060405180910390f35b61029b610626565b604051808215151515815260200191505060405180910390f35b6102f7600480360360208110156102cb57600080fd5b81019080803573ffffffffffffffffffffffffffffffffffffffff169060200190929190505050610639565b6040518082815260200191505060405180910390f35b610315610688565b6040518082815260200191505060405180910390f35b60025481565b6000600960008373ffffffffffffffffffffffffffffffffffffffff1673ffffffffffffffffffffffffffffffffffffffff168152602001908152602001600020600001549050919050565b60085481565b60096020528060005260406000206000915090508060000154908060010154905082565b60065481565b60045481565b60055481565b6000809054906101000a900473ffffffffffffffffffffffffffffffffffffffff1673ffffffffffffffffffffffffffffffffffffffff163373ffffffffffffffffffffffffffffffffffffffff161461041257600080fd5b6000600654148061042557504360065410155b156104af576000600360006101000a81548160ff02191690831515021790555061045960034361068e90919063ffffffff16565b6006819055507f1b02c716f27555f879e01d5dabef2ac991d225e6c1278f477168f3bb71493cc76040518080602001828103825260438152602001806107176043913960600191505060405180910390a16105f9565b60006001541480156104c357506000600254145b156104e65760003390508073ffffffffffffffffffffffffffffffffffffffff16ff5b600854600960003373ffffffffffffffffffffffffffffffffffffffff1673ffffffffffffffffffffffffffffffffffffffff1681526020019081526020016000206000015414801561057c5750600754600960003373ffffffffffffffffffffffffffffffffffffffff1673ffffffffffffffffffffffffffffffffffffffff16815260200190815260200160002060010154145b801561058a57506000600254145b156105ad5760003390508073ffffffffffffffffffffffffffffffffffffffff16ff5b7ff60094595f5be639661cd3c6c7fa1ef87c793e55f5923b9dca94fc9a2a6a879260405180806020018281038252603581526020018061075a6035913960400191505060405180910390a15b565b60015481565b6000809054906101000a900473ffffffffffffffffffffffffffffffffffffffff1681565b600360009054906101000a900460ff1681565b6000600960008373ffffffffffffffffffffffffffffffffffffffff1673ffffffffffffffffffffffffffffffffffffffff168152602001908152602001600020600101549050809050919050565b60075481565b60008082840190508381101561070c576040517f08c379a000000000000000000000000000000000000000000000000000000000815260040180806020018281038252601b8152602001807f536166654d6174683a206164646974696f6e206f766572666c6f77000000000081525060200191505060405180910390fd5b809150509291505056fe54686520636f6e7472616374206973207368757474696e6720646f776e2e2e2e204e6f206d6f726520626574732e20576974686472617720796f75722066756e64732e546865726520617265207374696c6c2070726f7669646572732077697468206d6f6e657920696e2074686520636f6e74726163742ea265627a7a7231582052f680f0092a3f55b51fb935f331c11ff21b2f89996343760f559a537533333264736f6c634300050c0032",
  "source": "import \"./Ownable.sol\";\r\nimport \"./UsesLiquidityProviders.sol\";\r\nimport \"./SafeMath.sol\";\r\n\r\npragma solidity 0.5.12;\r\n\r\ncontract Destroyable is Ownable, UsesLiquidityProviders {\r\n\r\n  using SafeMath for uint256;\r\n\r\n  event contractDestroyed(string result);\r\n  event contractClosingDown(string result);\r\n  event waitingForProviders(string description);\r\n\r\n    function destroy() public onlyOwner {\r\n\r\n      if (SELF_DESTRUCT_TIMER == 0 || SELF_DESTRUCT_TIMER >= block.number){//Establishing a 3 block timmer... just for fun... not needed.\r\n        betsAllowed = false;\r\n        SELF_DESTRUCT_TIMER = block.number.add(3);\r\n        emit contractClosingDown(\"The contract is shutting down... No more bets. Withdraw your funds.\");\r\n      } else if (contractBalance == 0 && activeBets == 0) {//Otherwise, if the contract is empty it can be deleted.\r\n        address payable receiver = msg.sender;\r\n        selfdestruct(receiver);\r\n        emit contractDestroyed(\"The contract was DESTROYED!\");\r\n      } else  if ( (m_LP_tokens[msg.sender].genNum == currentLPGen && m_LP_tokens[msg.sender].LP_token_amount == LPTokenPool) && activeBets == 0) {\r\n        //This allows the owner to avoid an extra step of withdraw if they are the only liquidity provider.\r\n        address payable receiver = msg.sender;\r\n        selfdestruct(receiver);\r\n        emit contractDestroyed(\"The contract was DESTROYED!\");\r\n      } else {\r\n        emit waitingForProviders(\"There are still providers with money in the contract.\");\r\n      }\r\n    }\r\n\r\n\r\n}\r\n",
  "sourcePath": "C:\\Users\\Daniel\\Desktop\\Solidity 201\\Coin Flip\\contracts\\Destroyable.sol",
  "compiler": {
    "name": "solc",
    "version": "0.5.12+commit.7709ece9.Emscripten.clang"
  },
  "schemaVersion": "3.0.16",
  "updatedAt": "2020-11-15T00:23:33.909Z",
  "devdoc": {
    "methods": {}
  },
  "userdoc": {
    "methods": {}
  }
}