{
  "contractName": "Ownable",
  "abi": [
    {
      "inputs": [],
      "payable": false,
      "stateMutability": "nonpayable",
      "type": "constructor"
    },
    {
      "constant": true,
      "inputs": [],
      "name": "MAX_BET",
      "outputs": [
        {
          "internalType": "uint256",
          "name": "",
          "type": "uint256"
        }
      ],
      "payable": false,
      "stateMutability": "view",
      "type": "function"
    },
    {
      "constant": true,
      "inputs": [],
      "name": "MIN_BET",
      "outputs": [
        {
          "internalType": "uint256",
          "name": "",
          "type": "uint256"
        }
      ],
      "payable": false,
      "stateMutability": "view",
      "type": "function"
    },
    {
      "constant": true,
      "inputs": [],
      "name": "SELF_DESTRUCT_TIMER",
      "outputs": [
        {
          "internalType": "uint256",
          "name": "",
          "type": "uint256"
        }
      ],
      "payable": false,
      "stateMutability": "view",
      "type": "function"
    },
    {
      "constant": true,
      "inputs": [],
      "name": "activeBets",
      "outputs": [
        {
          "internalType": "uint256",
          "name": "",
          "type": "uint256"
        }
      ],
      "payable": false,
      "stateMutability": "view",
      "type": "function"
    },
    {
      "constant": true,
      "inputs": [],
      "name": "betsAllowed",
      "outputs": [
        {
          "internalType": "bool",
          "name": "",
          "type": "bool"
        }
      ],
      "payable": false,
      "stateMutability": "view",
      "type": "function"
    },
    {
      "constant": true,
      "inputs": [],
      "name": "contractBalance",
      "outputs": [
        {
          "internalType": "uint256",
          "name": "",
          "type": "uint256"
        }
      ],
      "payable": false,
      "stateMutability": "view",
      "type": "function"
    },
    {
      "constant": true,
      "inputs": [],
      "name": "owner",
      "outputs": [
        {
          "internalType": "address",
          "name": "",
          "type": "address"
        }
      ],
      "payable": false,
      "stateMutability": "view",
      "type": "function"
    }
  ],
  "bytecode": "0x608060405234801561001057600080fd5b50336000806101000a81548173ffffffffffffffffffffffffffffffffffffffff021916908373ffffffffffffffffffffffffffffffffffffffff16021790555060006002819055506001600360006101000a81548160ff021916908315150217905550662386f26fc10000600481905550671bc16d674ec80000600581905550600060068190555061020f806100a86000396000f3fe608060405234801561001057600080fd5b506004361061007d5760003560e01c80637e95b5231161005b5780637e95b523146100dc5780638b7afe2e146100fa5780638da5cb5b14610118578063a77fd3eb146101625761007d565b8063032ee4051461008257806353221017146100a05780636540742f146100be575b600080fd5b61008a610184565b6040518082815260200191505060405180910390f35b6100a861018a565b6040518082815260200191505060405180910390f35b6100c6610190565b6040518082815260200191505060405180910390f35b6100e4610196565b6040518082815260200191505060405180910390f35b61010261019c565b6040518082815260200191505060405180910390f35b6101206101a2565b604051808273ffffffffffffffffffffffffffffffffffffffff1673ffffffffffffffffffffffffffffffffffffffff16815260200191505060405180910390f35b61016a6101c7565b604051808215151515815260200191505060405180910390f35b60025481565b60065481565b60045481565b60055481565b60015481565b6000809054906101000a900473ffffffffffffffffffffffffffffffffffffffff1681565b600360009054906101000a900460ff168156fea265627a7a723158206f71b954b161ca4cbe22f9f7d170072c369ff8004edaeb11617ba33855e3679d64736f6c634300050c0032",
  "source": "pragma solidity 0.5.12;\r\n\r\ncontract Ownable{\r\n\r\n    address public owner;\r\n    uint256 public contractBalance;\r\n    uint256 public activeBets;\r\n    bool public betsAllowed;\r\n    uint256 public MIN_BET;\r\n    uint256 public MAX_BET;\r\n    uint256 public SELF_DESTRUCT_TIMER;\r\n\r\n    modifier onlyOwner(){\r\n        require(msg.sender == owner);\r\n        _; //Continue Execution\r\n    }\r\n\r\n    constructor() public {\r\n        owner = msg.sender;\r\n        activeBets = 0;\r\n        betsAllowed = true;\r\n        MIN_BET = 10000000000000000;\r\n        MAX_BET = 2000000000000000000;\r\n        SELF_DESTRUCT_TIMER = 0;\r\n        //contractBalance = msg.value;\r\n    }\r\n\r\n}\r\n",
  "sourcePath": "C:\\Users\\Daniel\\Desktop\\Solidity 201\\Coin Flip\\contracts\\Ownable.sol",
  "compiler": {
    "name": "solc",
    "version": "0.5.12+commit.7709ece9.Emscripten.clang"
  },
  "schemaVersion": "3.0.16",
  "updatedAt": "2020-11-15T00:18:33.483Z",
  "devdoc": {
    "methods": {}
  },
  "userdoc": {
    "methods": {}
  }
}