{
  "contractName": "Storage",
  "abi": [
    {
      "inputs": [],
      "payable": false,
      "stateMutability": "nonpayable",
      "type": "constructor"
    },
    {
      "constant": true,
      "inputs": [],
      "name": "LPTokenPool",
      "outputs": [
        {
          "internalType": "uint256",
          "name": "",
          "type": "uint256"
        }
      ],
      "payable": false,
      "stateMutability": "view",
      "type": "function"
    },
    {
      "constant": true,
      "inputs": [],
      "name": "MAX_BET",
      "outputs": [
        {
          "internalType": "uint256",
          "name": "",
          "type": "uint256"
        }
      ],
      "payable": false,
      "stateMutability": "view",
      "type": "function"
    },
    {
      "constant": true,
      "inputs": [],
      "name": "MIN_BET",
      "outputs": [
        {
          "internalType": "uint256",
          "name": "",
          "type": "uint256"
        }
      ],
      "payable": false,
      "stateMutability": "view",
      "type": "function"
    },
    {
      "constant": true,
      "inputs": [],
      "name": "SELF_DESTRUCT_TIMER",
      "outputs": [
        {
          "internalType": "bool",
          "name": "",
          "type": "bool"
        }
      ],
      "payable": false,
      "stateMutability": "view",
      "type": "function"
    },
    {
      "constant": true,
      "inputs": [],
      "name": "activeBets",
      "outputs": [
        {
          "internalType": "uint256",
          "name": "",
          "type": "uint256"
        }
      ],
      "payable": false,
      "stateMutability": "view",
      "type": "function"
    },
    {
      "constant": true,
      "inputs": [],
      "name": "betsAllowed",
      "outputs": [
        {
          "internalType": "bool",
          "name": "",
          "type": "bool"
        }
      ],
      "payable": false,
      "stateMutability": "view",
      "type": "function"
    },
    {
      "constant": true,
      "inputs": [],
      "name": "blank",
      "outputs": [
        {
          "internalType": "bytes32",
          "name": "",
          "type": "bytes32"
        }
      ],
      "payable": false,
      "stateMutability": "view",
      "type": "function"
    },
    {
      "constant": true,
      "inputs": [],
      "name": "contractBalance",
      "outputs": [
        {
          "internalType": "uint256",
          "name": "",
          "type": "uint256"
        }
      ],
      "payable": false,
      "stateMutability": "view",
      "type": "function"
    },
    {
      "constant": true,
      "inputs": [],
      "name": "currentAddress",
      "outputs": [
        {
          "internalType": "address",
          "name": "",
          "type": "address"
        }
      ],
      "payable": false,
      "stateMutability": "view",
      "type": "function"
    },
    {
      "constant": true,
      "inputs": [],
      "name": "currentLPGen",
      "outputs": [
        {
          "internalType": "uint256",
          "name": "",
          "type": "uint256"
        }
      ],
      "payable": false,
      "stateMutability": "view",
      "type": "function"
    },
    {
      "constant": true,
      "inputs": [],
      "name": "currentTxPrice",
      "outputs": [
        {
          "internalType": "uint256",
          "name": "",
          "type": "uint256"
        }
      ],
      "payable": false,
      "stateMutability": "view",
      "type": "function"
    },
    {
      "constant": true,
      "inputs": [
        {
          "internalType": "address",
          "name": "",
          "type": "address"
        }
      ],
      "name": "m_LP_tokens",
      "outputs": [
        {
          "internalType": "uint256",
          "name": "genNum",
          "type": "uint256"
        },
        {
          "internalType": "uint256",
          "name": "LP_token_amount",
          "type": "uint256"
        }
      ],
      "payable": false,
      "stateMutability": "view",
      "type": "function"
    },
    {
      "constant": true,
      "inputs": [
        {
          "internalType": "address",
          "name": "",
          "type": "address"
        }
      ],
      "name": "m_userData",
      "outputs": [
        {
          "internalType": "uint256",
          "name": "account_balance",
          "type": "uint256"
        },
        {
          "internalType": "uint256",
          "name": "bet_amount",
          "type": "uint256"
        },
        {
          "internalType": "bool",
          "name": "heads_or_tails",
          "type": "bool"
        },
        {
          "internalType": "bytes32",
          "name": "ticket_num",
          "type": "bytes32"
        }
      ],
      "payable": false,
      "stateMutability": "view",
      "type": "function"
    },
    {
      "constant": true,
      "inputs": [],
      "name": "owner",
      "outputs": [
        {
          "internalType": "address",
          "name": "",
          "type": "address"
        }
      ],
      "payable": false,
      "stateMutability": "view",
      "type": "function"
    },
    {
      "constant": true,
      "inputs": [],
      "name": "processingFee",
      "outputs": [
        {
          "internalType": "uint256",
          "name": "",
          "type": "uint256"
        }
      ],
      "payable": false,
      "stateMutability": "view",
      "type": "function"
    },
    {
      "constant": true,
      "inputs": [],
      "name": "queryId",
      "outputs": [
        {
          "internalType": "bytes32",
          "name": "",
          "type": "bytes32"
        }
      ],
      "payable": false,
      "stateMutability": "view",
      "type": "function"
    },
    {
      "constant": true,
      "inputs": [],
      "name": "totalLiabilities",
      "outputs": [
        {
          "internalType": "uint256",
          "name": "",
          "type": "uint256"
        }
      ],
      "payable": false,
      "stateMutability": "view",
      "type": "function"
    },
    {
      "constant": true,
      "inputs": [
        {
          "internalType": "bytes32",
          "name": "",
          "type": "bytes32"
        }
      ],
      "name": "userQueryId",
      "outputs": [
        {
          "internalType": "address",
          "name": "",
          "type": "address"
        }
      ],
      "payable": false,
      "stateMutability": "view",
      "type": "function"
    }
  ],
  "bytecode": "0x60806040526611c37937e080006009556000801b600b5534801561002257600080fd5b50336000806101000a81548173ffffffffffffffffffffffffffffffffffffffff021916908373ffffffffffffffffffffffffffffffffffffffff16021790555060006003819055506001600660016101000a81548160ff021916908315150217905550662386f26fc10000600481905550671bc16d674ec800006005819055506000600660006101000a81548160ff0219169083151502179055506000600c819055506000600d819055506105f7806100dd6000396000f3fe608060405234801561001057600080fd5b50600436106101165760003560e01c80637e95b523116100a2578063a77fd3eb11610071578063a77fd3eb146103e1578063ce5aec6614610403578063de1881a814610421578063e66632fb1461043f578063f73579a91461045d57610116565b80637e95b5231461031157806381bf47181461032f5780638b7afe2e146103795780638da5cb5b1461039757610116565b806353221017116100e957806353221017146101d45780636540742f146101f6578063738763bc1461021457806374ca6cd31461028257806375efeb81146102f357610116565b8063032ee4051461011b578063343861df146101395780633f1be4d4146101575780634672f57e14610175575b600080fd5b61012361047b565b6040518082815260200191505060405180910390f35b610141610481565b6040518082815260200191505060405180910390f35b61015f610487565b6040518082815260200191505060405180910390f35b6101b76004803603602081101561018b57600080fd5b81019080803573ffffffffffffffffffffffffffffffffffffffff16906020019092919050505061048d565b604051808381526020018281526020019250505060405180910390f35b6101dc6104b1565b604051808215151515815260200191505060405180910390f35b6101fe6104c4565b6040518082815260200191505060405180910390f35b6102406004803603602081101561022a57600080fd5b81019080803590602001909291905050506104ca565b604051808273ffffffffffffffffffffffffffffffffffffffff1673ffffffffffffffffffffffffffffffffffffffff16815260200191505060405180910390f35b6102c46004803603602081101561029857600080fd5b81019080803573ffffffffffffffffffffffffffffffffffffffff1690602001909291905050506104fd565b604051808581526020018481526020018315151515815260200182815260200194505050505060405180910390f35b6102fb61053a565b6040518082815260200191505060405180910390f35b610319610540565b6040518082815260200191505060405180910390f35b610337610546565b604051808273ffffffffffffffffffffffffffffffffffffffff1673ffffffffffffffffffffffffffffffffffffffff16815260200191505060405180910390f35b61038161056c565b6040518082815260200191505060405180910390f35b61039f610572565b604051808273ffffffffffffffffffffffffffffffffffffffff1673ffffffffffffffffffffffffffffffffffffffff16815260200191505060405180910390f35b6103e9610597565b604051808215151515815260200191505060405180910390f35b61040b6105aa565b6040518082815260200191505060405180910390f35b6104296105b0565b6040518082815260200191505060405180910390f35b6104476105b6565b6040518082815260200191505060405180910390f35b6104656105bc565b6040518082815260200191505060405180910390f35b60035481565b600d5481565b600a5481565b60166020528060005260406000206000915090508060000154908060010154905082565b600660009054906101000a900460ff1681565b60045481565b60146020528060005260406000206000915054906101000a900473ffffffffffffffffffffffffffffffffffffffff1681565b60156020528060005260406000206000915090508060000154908060010154908060020160009054906101000a900460ff16908060030154905084565b60085481565b60055481565b600160009054906101000a900473ffffffffffffffffffffffffffffffffffffffff1681565b60025481565b6000809054906101000a900473ffffffffffffffffffffffffffffffffffffffff1681565b600660019054906101000a900460ff1681565b600c5481565b60095481565b600b5481565b6007548156fea265627a7a723158202c3674ad1ddcf6821a226b0d69472b12f68141bc7b7334e4068be1707bcf85d164736f6c634300050c0032",
  "source": "pragma solidity 0.5.12;\r\n\r\ncontract Storage{\r\n\r\n\r\n    address public owner;\r\n    address public currentAddress; //This is the address of the functional contract in the backend of the proxy\r\n    uint256 public contractBalance;\r\n    uint256 public activeBets;\r\n    uint256 public MIN_BET;\r\n    uint256 public MAX_BET;\r\n    bool public SELF_DESTRUCT_TIMER;\r\n    bool public betsAllowed;\r\n\r\n    uint256 public totalLiabilities; //total potential payouts needing to be accounted for\r\n    uint256 constant NUM_RANDOM_BYTES_REQUESTED = 1; //This is for usingProvable to return a byte of info\r\n    uint256 public currentTxPrice; //This is called and calculated from the provableAPI service\r\n    uint256 public processingFee = 5000000000000000; //This is the overall cost as a fee taken by the contract\r\n    bytes32 public queryId;//For testing only\r\n    bytes32 public blank = 0x0000000000000000000000000000000000000000000000000000000000000000;\r\n\r\n    uint256 public LPTokenPool;\r\n    uint256 public currentLPGen;\r\n    //uint public totalLPTokens;\r\n\r\n    //User details are recorded in a mapping of a struct.\r\n    struct UserData {\r\n      uint256 account_balance; //The account_balance is for an individual players winnings to sit seperate from the community pool.\r\n      uint256 bet_amount; //Recording the user's bet\r\n      bool heads_or_tails; //Recording their choice\r\n      bytes32 ticket_num; //Change theis to ticket_num... where the ticket_num = queryId of active bet        //Allowing determination of a player who is \"actively\" waiting.\r\n    }\r\n\r\n    struct LP_Provider {\r\n      uint256 genNum;\r\n      uint256 LP_token_amount;\r\n    }\r\n\r\n    mapping (string => uint256) _uintStorage;\r\n    mapping (string => address) _addressStorage;\r\n    mapping (string => bool) _boolStorage;\r\n    mapping (string => string) _stringStorage;\r\n    mapping (string => bytes4) _bytes4Storage;\r\n    mapping (string => bytes32) _bytes32Storage;\r\n\r\n    mapping(bytes32 => address) public userQueryId; //internal is used to limit access to the receipt number\r\n    mapping(address => UserData) public m_userData;\r\n    mapping (address => LP_Provider) public m_LP_tokens;\r\n\r\n\r\n    modifier onlyProvider(){ //a modifier only for those with a liquidity balance or a winning account_balance\r\n        require(m_LP_tokens[msg.sender].LP_token_amount != 0 || m_userData[msg.sender].account_balance != 0);\r\n        _; //Continue Execution\r\n    }\r\n\r\n    modifier onlyOwner(){\r\n        require(msg.sender == owner);\r\n        _; //Continue Execution\r\n    }\r\n\r\n    modifier isNotPaused(){\r\n        require(betsAllowed == true);\r\n        _; //Continue Execution\r\n    }\r\n\r\n    constructor() public {\r\n        owner = msg.sender;\r\n        activeBets = 0;\r\n        betsAllowed = true;\r\n        MIN_BET = 10000000000000000;\r\n        MAX_BET = 2000000000000000000;\r\n        SELF_DESTRUCT_TIMER = false;\r\n        LPTokenPool = 0;\r\n        currentLPGen = 0;\r\n        //contractBalance = msg.value;\r\n    }\r\n\r\n\r\n}\r\n",
  "sourcePath": "C:\\Users\\Daniel\\Desktop\\Solidity 201\\Coin Flip\\contracts\\Storage.sol",
  "compiler": {
    "name": "solc",
    "version": "0.5.12+commit.7709ece9.Emscripten.clang"
  },
  "schemaVersion": "3.0.16",
  "updatedAt": "2020-11-22T03:46:59.581Z",
  "devdoc": {
    "methods": {}
  },
  "userdoc": {
    "methods": {}
  }
}