{
  "contractName": "UsesLiquidityProviders",
  "abi": [
    {
      "anonymous": false,
      "inputs": [
        {
          "indexed": false,
          "internalType": "string",
          "name": "description",
          "type": "string"
        }
      ],
      "name": "mintedLPTokens",
      "type": "event"
    },
    {
      "constant": true,
      "inputs": [],
      "name": "LPTokenPool",
      "outputs": [
        {
          "internalType": "uint256",
          "name": "",
          "type": "uint256"
        }
      ],
      "payable": false,
      "stateMutability": "view",
      "type": "function"
    },
    {
      "constant": true,
      "inputs": [],
      "name": "MAX_BET",
      "outputs": [
        {
          "internalType": "uint256",
          "name": "",
          "type": "uint256"
        }
      ],
      "payable": false,
      "stateMutability": "view",
      "type": "function"
    },
    {
      "constant": true,
      "inputs": [],
      "name": "MIN_BET",
      "outputs": [
        {
          "internalType": "uint256",
          "name": "",
          "type": "uint256"
        }
      ],
      "payable": false,
      "stateMutability": "view",
      "type": "function"
    },
    {
      "constant": true,
      "inputs": [],
      "name": "SELF_DESTRUCT_TIMER",
      "outputs": [
        {
          "internalType": "bool",
          "name": "",
          "type": "bool"
        }
      ],
      "payable": false,
      "stateMutability": "view",
      "type": "function"
    },
    {
      "constant": true,
      "inputs": [],
      "name": "activeBets",
      "outputs": [
        {
          "internalType": "uint256",
          "name": "",
          "type": "uint256"
        }
      ],
      "payable": false,
      "stateMutability": "view",
      "type": "function"
    },
    {
      "constant": true,
      "inputs": [],
      "name": "betsAllowed",
      "outputs": [
        {
          "internalType": "bool",
          "name": "",
          "type": "bool"
        }
      ],
      "payable": false,
      "stateMutability": "view",
      "type": "function"
    },
    {
      "constant": true,
      "inputs": [],
      "name": "blank",
      "outputs": [
        {
          "internalType": "bytes32",
          "name": "",
          "type": "bytes32"
        }
      ],
      "payable": false,
      "stateMutability": "view",
      "type": "function"
    },
    {
      "constant": true,
      "inputs": [],
      "name": "contractBalance",
      "outputs": [
        {
          "internalType": "uint256",
          "name": "",
          "type": "uint256"
        }
      ],
      "payable": false,
      "stateMutability": "view",
      "type": "function"
    },
    {
      "constant": true,
      "inputs": [],
      "name": "currentAddress",
      "outputs": [
        {
          "internalType": "address",
          "name": "",
          "type": "address"
        }
      ],
      "payable": false,
      "stateMutability": "view",
      "type": "function"
    },
    {
      "constant": true,
      "inputs": [],
      "name": "currentLPGen",
      "outputs": [
        {
          "internalType": "uint256",
          "name": "",
          "type": "uint256"
        }
      ],
      "payable": false,
      "stateMutability": "view",
      "type": "function"
    },
    {
      "constant": true,
      "inputs": [],
      "name": "currentTxPrice",
      "outputs": [
        {
          "internalType": "uint256",
          "name": "",
          "type": "uint256"
        }
      ],
      "payable": false,
      "stateMutability": "view",
      "type": "function"
    },
    {
      "constant": true,
      "inputs": [
        {
          "internalType": "address",
          "name": "",
          "type": "address"
        }
      ],
      "name": "m_LP_tokens",
      "outputs": [
        {
          "internalType": "uint256",
          "name": "genNum",
          "type": "uint256"
        },
        {
          "internalType": "uint256",
          "name": "LP_token_amount",
          "type": "uint256"
        }
      ],
      "payable": false,
      "stateMutability": "view",
      "type": "function"
    },
    {
      "constant": true,
      "inputs": [
        {
          "internalType": "address",
          "name": "",
          "type": "address"
        }
      ],
      "name": "m_userData",
      "outputs": [
        {
          "internalType": "uint256",
          "name": "account_balance",
          "type": "uint256"
        },
        {
          "internalType": "uint256",
          "name": "bet_amount",
          "type": "uint256"
        },
        {
          "internalType": "bool",
          "name": "heads_or_tails",
          "type": "bool"
        },
        {
          "internalType": "bytes32",
          "name": "ticket_num",
          "type": "bytes32"
        }
      ],
      "payable": false,
      "stateMutability": "view",
      "type": "function"
    },
    {
      "constant": true,
      "inputs": [],
      "name": "owner",
      "outputs": [
        {
          "internalType": "address",
          "name": "",
          "type": "address"
        }
      ],
      "payable": false,
      "stateMutability": "view",
      "type": "function"
    },
    {
      "constant": true,
      "inputs": [],
      "name": "processingFee",
      "outputs": [
        {
          "internalType": "uint256",
          "name": "",
          "type": "uint256"
        }
      ],
      "payable": false,
      "stateMutability": "view",
      "type": "function"
    },
    {
      "constant": true,
      "inputs": [],
      "name": "queryId",
      "outputs": [
        {
          "internalType": "bytes32",
          "name": "",
          "type": "bytes32"
        }
      ],
      "payable": false,
      "stateMutability": "view",
      "type": "function"
    },
    {
      "constant": true,
      "inputs": [],
      "name": "totalLiabilities",
      "outputs": [
        {
          "internalType": "uint256",
          "name": "",
          "type": "uint256"
        }
      ],
      "payable": false,
      "stateMutability": "view",
      "type": "function"
    },
    {
      "constant": true,
      "inputs": [
        {
          "internalType": "bytes32",
          "name": "",
          "type": "bytes32"
        }
      ],
      "name": "userQueryId",
      "outputs": [
        {
          "internalType": "address",
          "name": "",
          "type": "address"
        }
      ],
      "payable": false,
      "stateMutability": "view",
      "type": "function"
    },
    {
      "constant": true,
      "inputs": [
        {
          "internalType": "address",
          "name": "_userAddress",
          "type": "address"
        }
      ],
      "name": "getLiquidityProviderGen",
      "outputs": [
        {
          "internalType": "uint256",
          "name": "",
          "type": "uint256"
        }
      ],
      "payable": false,
      "stateMutability": "view",
      "type": "function"
    },
    {
      "constant": true,
      "inputs": [
        {
          "internalType": "address",
          "name": "_userAddress",
          "type": "address"
        }
      ],
      "name": "getLiquidityProviderBalance",
      "outputs": [
        {
          "internalType": "uint256",
          "name": "_tokenBalance",
          "type": "uint256"
        }
      ],
      "payable": false,
      "stateMutability": "view",
      "type": "function"
    }
  ],
  "bytecode": "0x60806040526611c37937e080006009556000801b600b55336000806101000a81548173ffffffffffffffffffffffffffffffffffffffff021916908373ffffffffffffffffffffffffffffffffffffffff16021790555060006003819055506001600660016101000a81548160ff021916908315150217905550662386f26fc10000600481905550671bc16d674ec800006005819055506000600660006101000a81548160ff0219169083151502179055506000600c819055506000600d81905550610758806100d06000396000f3fe608060405234801561001057600080fd5b506004361061012c5760003560e01c80637e95b523116100ad578063aac5116411610071578063aac5116414610471578063ce5aec66146104c9578063de1881a8146104e7578063e66632fb14610505578063f73579a9146105235761012c565b80637e95b5231461037f57806381bf47181461039d5780638b7afe2e146103e75780638da5cb5b14610405578063a77fd3eb1461044f5761012c565b806353221017116100f457806353221017146102425780636540742f14610264578063738763bc1461028257806374ca6cd3146102f057806375efeb81146103615761012c565b8063032ee40514610131578063039b3a231461014f578063343861df146101a75780633f1be4d4146101c55780634672f57e146101e3575b600080fd5b610139610541565b6040518082815260200191505060405180910390f35b6101916004803603602081101561016557600080fd5b81019080803573ffffffffffffffffffffffffffffffffffffffff169060200190929190505050610547565b6040518082815260200191505060405180910390f35b6101af610593565b6040518082815260200191505060405180910390f35b6101cd610599565b6040518082815260200191505060405180910390f35b610225600480360360208110156101f957600080fd5b81019080803573ffffffffffffffffffffffffffffffffffffffff16906020019092919050505061059f565b604051808381526020018281526020019250505060405180910390f35b61024a6105c3565b604051808215151515815260200191505060405180910390f35b61026c6105d6565b6040518082815260200191505060405180910390f35b6102ae6004803603602081101561029857600080fd5b81019080803590602001909291905050506105dc565b604051808273ffffffffffffffffffffffffffffffffffffffff1673ffffffffffffffffffffffffffffffffffffffff16815260200191505060405180910390f35b6103326004803603602081101561030657600080fd5b81019080803573ffffffffffffffffffffffffffffffffffffffff16906020019092919050505061060f565b604051808581526020018481526020018315151515815260200182815260200194505050505060405180910390f35b61036961064c565b6040518082815260200191505060405180910390f35b610387610652565b6040518082815260200191505060405180910390f35b6103a5610658565b604051808273ffffffffffffffffffffffffffffffffffffffff1673ffffffffffffffffffffffffffffffffffffffff16815260200191505060405180910390f35b6103ef61067e565b6040518082815260200191505060405180910390f35b61040d610684565b604051808273ffffffffffffffffffffffffffffffffffffffff1673ffffffffffffffffffffffffffffffffffffffff16815260200191505060405180910390f35b6104576106a9565b604051808215151515815260200191505060405180910390f35b6104b36004803603602081101561048757600080fd5b81019080803573ffffffffffffffffffffffffffffffffffffffff1690602001909291905050506106bc565b6040518082815260200191505060405180910390f35b6104d161070b565b6040518082815260200191505060405180910390f35b6104ef610711565b6040518082815260200191505060405180910390f35b61050d610717565b6040518082815260200191505060405180910390f35b61052b61071d565b6040518082815260200191505060405180910390f35b60035481565b6000601660008373ffffffffffffffffffffffffffffffffffffffff1673ffffffffffffffffffffffffffffffffffffffff168152602001908152602001600020600001549050919050565b600d5481565b600a5481565b60166020528060005260406000206000915090508060000154908060010154905082565b600660009054906101000a900460ff1681565b60045481565b60146020528060005260406000206000915054906101000a900473ffffffffffffffffffffffffffffffffffffffff1681565b60156020528060005260406000206000915090508060000154908060010154908060020160009054906101000a900460ff16908060030154905084565b60085481565b60055481565b600160009054906101000a900473ffffffffffffffffffffffffffffffffffffffff1681565b60025481565b6000809054906101000a900473ffffffffffffffffffffffffffffffffffffffff1681565b600660019054906101000a900460ff1681565b6000601660008373ffffffffffffffffffffffffffffffffffffffff1673ffffffffffffffffffffffffffffffffffffffff168152602001908152602001600020600101549050809050919050565b600c5481565b60095481565b600b5481565b6007548156fea265627a7a72315820584911124039855e6a88f5e477b31efa3bb832f52fe23e9eff2c6753646646e164736f6c634300050c0032",
  "source": "import \"./Storage.sol\";\r\nimport \"./SafeMath.sol\";\r\n\r\npragma solidity 0.5.12;\r\n\r\ncontract UsesLiquidityProviders is Storage {\r\n\r\n  using SafeMath for uint256;\r\n\r\n  event mintedLPTokens(string description);\r\n\r\n  function mintAmount(uint256 _deposit, uint256 _contractBalance, address _provider) internal returns(uint256 _mintAmount){\r\n    if (_contractBalance <= MIN_BET){//If the contract has almost no money start a new Gen\r\n      _mintAmount = 1000000;\r\n      LPTokenPool = 0;\r\n      currentLPGen = currentLPGen.add(1);\r\n      m_LP_tokens[_provider].genNum = currentLPGen;\r\n    } else {//otherwise mint as normal\r\n      _mintAmount = (LPTokenPool.mul(_deposit)).div(_contractBalance);\r\n    }\r\n    if (m_LP_tokens[_provider].genNum == currentLPGen){//Are they with the current gen?\r\n      m_LP_tokens[_provider].LP_token_amount = m_LP_tokens[_provider].LP_token_amount.add(_mintAmount);\r\n      LPTokenPool = LPTokenPool.add(_mintAmount);\r\n      emit mintedLPTokens(\"Congrats on minting tokens.\");\r\n      return _mintAmount;\r\n    } else {//They are with an outdated gen\r\n      m_LP_tokens[_provider].LP_token_amount = 0;\r\n      m_LP_tokens[_provider].genNum = currentLPGen;\r\n      m_LP_tokens[_provider].LP_token_amount = m_LP_tokens[_provider].LP_token_amount.add(_mintAmount);\r\n      LPTokenPool = LPTokenPool.add(_mintAmount);\r\n      emit mintedLPTokens(\"Congrats on minting tokens.\");\r\n      return _mintAmount;\r\n    }\r\n\r\n  }\r\n\r\n\r\n  function burnTokens(address _provider) internal {\r\n    LPTokenPool = LPTokenPool.sub(m_LP_tokens[_provider].LP_token_amount);\r\n    m_LP_tokens[_provider].LP_token_amount = 0;\r\n    m_LP_tokens[msg.sender].genNum = 0;\r\n  }\r\n\r\n  function getLiquidityProviderGen(address _userAddress) public view returns(uint256){\r\n    return m_LP_tokens[_userAddress].genNum;\r\n  }\r\n\r\n  function getLiquidityProviderBalance(address _userAddress) public view returns(uint256 _tokenBalance){\r\n    _tokenBalance = m_LP_tokens[_userAddress].LP_token_amount;\r\n    return _tokenBalance;\r\n  }\r\n\r\n\r\n}\r\n",
  "sourcePath": "C:\\Users\\Daniel\\Desktop\\Solidity 201\\Coin Flip\\contracts\\UsesLiquidityProviders.sol",
  "compiler": {
    "name": "solc",
    "version": "0.5.12+commit.7709ece9.Emscripten.clang"
  },
  "schemaVersion": "3.0.16",
  "updatedAt": "2020-11-22T03:54:10.819Z",
  "devdoc": {
    "methods": {}
  },
  "userdoc": {
    "methods": {}
  }
}