{
  "contractName": "UsesLiquidityProviders",
  "abi": [
    {
      "inputs": [],
      "payable": false,
      "stateMutability": "nonpayable",
      "type": "constructor"
    },
    {
      "anonymous": false,
      "inputs": [
        {
          "indexed": false,
          "internalType": "string",
          "name": "description",
          "type": "string"
        }
      ],
      "name": "mintedLPTokens",
      "type": "event"
    },
    {
      "constant": true,
      "inputs": [],
      "name": "LPTokenPool",
      "outputs": [
        {
          "internalType": "uint256",
          "name": "",
          "type": "uint256"
        }
      ],
      "payable": false,
      "stateMutability": "view",
      "type": "function"
    },
    {
      "constant": true,
      "inputs": [],
      "name": "MAX_BET",
      "outputs": [
        {
          "internalType": "uint256",
          "name": "",
          "type": "uint256"
        }
      ],
      "payable": false,
      "stateMutability": "view",
      "type": "function"
    },
    {
      "constant": true,
      "inputs": [],
      "name": "MIN_BET",
      "outputs": [
        {
          "internalType": "uint256",
          "name": "",
          "type": "uint256"
        }
      ],
      "payable": false,
      "stateMutability": "view",
      "type": "function"
    },
    {
      "constant": true,
      "inputs": [],
      "name": "SELF_DESTRUCT_TIMER",
      "outputs": [
        {
          "internalType": "uint256",
          "name": "",
          "type": "uint256"
        }
      ],
      "payable": false,
      "stateMutability": "view",
      "type": "function"
    },
    {
      "constant": true,
      "inputs": [],
      "name": "activeBets",
      "outputs": [
        {
          "internalType": "uint256",
          "name": "",
          "type": "uint256"
        }
      ],
      "payable": false,
      "stateMutability": "view",
      "type": "function"
    },
    {
      "constant": true,
      "inputs": [],
      "name": "betsAllowed",
      "outputs": [
        {
          "internalType": "bool",
          "name": "",
          "type": "bool"
        }
      ],
      "payable": false,
      "stateMutability": "view",
      "type": "function"
    },
    {
      "constant": true,
      "inputs": [],
      "name": "contractBalance",
      "outputs": [
        {
          "internalType": "uint256",
          "name": "",
          "type": "uint256"
        }
      ],
      "payable": false,
      "stateMutability": "view",
      "type": "function"
    },
    {
      "constant": true,
      "inputs": [],
      "name": "currentLPGen",
      "outputs": [
        {
          "internalType": "uint256",
          "name": "",
          "type": "uint256"
        }
      ],
      "payable": false,
      "stateMutability": "view",
      "type": "function"
    },
    {
      "constant": true,
      "inputs": [
        {
          "internalType": "address",
          "name": "",
          "type": "address"
        }
      ],
      "name": "m_LP_tokens",
      "outputs": [
        {
          "internalType": "uint256",
          "name": "genNum",
          "type": "uint256"
        },
        {
          "internalType": "uint256",
          "name": "LP_token_amount",
          "type": "uint256"
        }
      ],
      "payable": false,
      "stateMutability": "view",
      "type": "function"
    },
    {
      "constant": true,
      "inputs": [],
      "name": "owner",
      "outputs": [
        {
          "internalType": "address",
          "name": "",
          "type": "address"
        }
      ],
      "payable": false,
      "stateMutability": "view",
      "type": "function"
    },
    {
      "constant": true,
      "inputs": [
        {
          "internalType": "address",
          "name": "_userAddress",
          "type": "address"
        }
      ],
      "name": "getLiquidityProviderGen",
      "outputs": [
        {
          "internalType": "uint256",
          "name": "",
          "type": "uint256"
        }
      ],
      "payable": false,
      "stateMutability": "view",
      "type": "function"
    },
    {
      "constant": true,
      "inputs": [
        {
          "internalType": "address",
          "name": "_userAddress",
          "type": "address"
        }
      ],
      "name": "getLiquidityProviderBalance",
      "outputs": [
        {
          "internalType": "uint256",
          "name": "_tokenBalance",
          "type": "uint256"
        }
      ],
      "payable": false,
      "stateMutability": "view",
      "type": "function"
    }
  ],
  "bytecode": "0x608060405234801561001057600080fd5b50336000806101000a81548173ffffffffffffffffffffffffffffffffffffffff021916908373ffffffffffffffffffffffffffffffffffffffff16021790555060006002819055506001600360006101000a81548160ff021916908315150217905550662386f26fc10000600481905550671bc16d674ec8000060058190555060006006819055506000600781905550600060088190555061045c806100b86000396000f3fe608060405234801561001057600080fd5b50600436106100b45760003560e01c80637e95b523116100715780637e95b523146101e85780638b7afe2e146102065780638da5cb5b14610224578063a77fd3eb1461026e578063aac5116414610290578063ce5aec66146102e8576100b4565b8063032ee405146100b9578063039b3a23146100d7578063343861df1461012f5780634672f57e1461014d57806353221017146101ac5780636540742f146101ca575b600080fd5b6100c1610306565b6040518082815260200191505060405180910390f35b610119600480360360208110156100ed57600080fd5b81019080803573ffffffffffffffffffffffffffffffffffffffff16906020019092919050505061030c565b6040518082815260200191505060405180910390f35b610137610358565b6040518082815260200191505060405180910390f35b61018f6004803603602081101561016357600080fd5b81019080803573ffffffffffffffffffffffffffffffffffffffff16906020019092919050505061035e565b604051808381526020018281526020019250505060405180910390f35b6101b4610382565b6040518082815260200191505060405180910390f35b6101d2610388565b6040518082815260200191505060405180910390f35b6101f061038e565b6040518082815260200191505060405180910390f35b61020e610394565b6040518082815260200191505060405180910390f35b61022c61039a565b604051808273ffffffffffffffffffffffffffffffffffffffff1673ffffffffffffffffffffffffffffffffffffffff16815260200191505060405180910390f35b6102766103bf565b604051808215151515815260200191505060405180910390f35b6102d2600480360360208110156102a657600080fd5b81019080803573ffffffffffffffffffffffffffffffffffffffff1690602001909291905050506103d2565b6040518082815260200191505060405180910390f35b6102f0610421565b6040518082815260200191505060405180910390f35b60025481565b6000600960008373ffffffffffffffffffffffffffffffffffffffff1673ffffffffffffffffffffffffffffffffffffffff168152602001908152602001600020600001549050919050565b60085481565b60096020528060005260406000206000915090508060000154908060010154905082565b60065481565b60045481565b60055481565b60015481565b6000809054906101000a900473ffffffffffffffffffffffffffffffffffffffff1681565b600360009054906101000a900460ff1681565b6000600960008373ffffffffffffffffffffffffffffffffffffffff1673ffffffffffffffffffffffffffffffffffffffff168152602001908152602001600020600101549050809050919050565b6007548156fea265627a7a72315820f6e2cad5522d5515b33fdd8dbe69901dd12339d68dedc12bc3c539c65c0e968c64736f6c634300050c0032",
  "source": "import \"./Ownable.sol\";\r\nimport \"./SafeMath.sol\";\r\n\r\npragma solidity 0.5.12;\r\n\r\ncontract UsesLiquidityProviders is Ownable {\r\n\r\n  using SafeMath for uint256;\r\n\r\n  uint256 public LPTokenPool;\r\n  uint256 public currentLPGen;\r\n  //uint public totalLPTokens;\r\n\r\n  struct LP_Provider {\r\n    uint256 genNum;\r\n    uint256 LP_token_amount;\r\n  }\r\n\r\n  mapping (address => LP_Provider) public m_LP_tokens;\r\n\r\n\r\n  event mintedLPTokens(string description);\r\n\r\n\r\n  constructor () public {\r\n    LPTokenPool = 0;\r\n    currentLPGen = 0;\r\n    //totalLPTokens = 0;\r\n  }\r\n\r\n\r\n  function mintAmount(uint256 _deposit, uint256 _contractBalance, address _provider) internal returns(uint256 _mintAmount){\r\n    if (_contractBalance <= MIN_BET){//If the contract has almost no money start a new Gen\r\n      _mintAmount = 1000000;\r\n      LPTokenPool = 0;\r\n      currentLPGen = currentLPGen.add(1);\r\n      m_LP_tokens[_provider].genNum = currentLPGen;\r\n    } else {//otherwise mint as normal\r\n      _mintAmount = (LPTokenPool.mul(_deposit)).div(_contractBalance);\r\n    }\r\n    if (m_LP_tokens[_provider].genNum == currentLPGen){//Are they with the current gen?\r\n      m_LP_tokens[_provider].LP_token_amount = m_LP_tokens[_provider].LP_token_amount.add(_mintAmount);\r\n      LPTokenPool = LPTokenPool.add(_mintAmount);\r\n      emit mintedLPTokens(\"Congrats on minting tokens.\");\r\n      return _mintAmount;\r\n    } else {//They are with an outdated gen\r\n      m_LP_tokens[_provider].LP_token_amount = 0;\r\n      m_LP_tokens[_provider].genNum = currentLPGen;\r\n      m_LP_tokens[_provider].LP_token_amount = m_LP_tokens[_provider].LP_token_amount.add(_mintAmount);\r\n      LPTokenPool = LPTokenPool.add(_mintAmount);\r\n      emit mintedLPTokens(\"Congrats on minting tokens.\");\r\n      return _mintAmount;\r\n    }\r\n\r\n  }\r\n\r\n\r\n  function burnTokens(address _provider) internal {\r\n    LPTokenPool = LPTokenPool.sub(m_LP_tokens[_provider].LP_token_amount);\r\n    m_LP_tokens[_provider].LP_token_amount = 0;\r\n    m_LP_tokens[msg.sender].genNum = 0;\r\n  }\r\n\r\n  function getLiquidityProviderGen(address _userAddress) public view returns(uint256){\r\n    return m_LP_tokens[_userAddress].genNum;\r\n  }\r\n\r\n  function getLiquidityProviderBalance(address _userAddress) public view returns(uint256 _tokenBalance){\r\n    _tokenBalance = m_LP_tokens[_userAddress].LP_token_amount;\r\n    return _tokenBalance;\r\n  }\r\n\r\n\r\n}\r\n",
  "sourcePath": "C:\\Users\\Daniel\\Desktop\\Solidity 201\\Coin Flip\\contracts\\UsesLiquidityProviders.sol",
  "compiler": {
    "name": "solc",
    "version": "0.5.12+commit.7709ece9.Emscripten.clang"
  },
  "schemaVersion": "3.0.16",
  "updatedAt": "2020-11-15T00:26:14.282Z",
  "devdoc": {
    "methods": {}
  },
  "userdoc": {
    "methods": {}
  }
}